:040000000DEF00F010
:0400080057EF0DF0B1
:10001800FF008EEF0DF07FEF01F0BA86FBEC0CF0DD
:100028006BEC0BF0E806D8A41CEF00F01EEF00F014
:10003800B5EF01F00001C62BDE0ED46FFF0ED56FB1
:100048002AEC0EF0B5EF01F0CCB62DEF00F02FEF53
:1000580000F039EF00F0CB0ED46FFF0ED56F2AEC0D
:100068000EF00001C62BB5EF01F08C0ED46FFF0E19
:10007800D56F2AEC0EF0020E0001C76F080EC66F8E
:10008800B5EF01F00F0ED46FFF0ED56F2AEC0EF00E
:10009800CA0E0001DA6F000EDB6F010EDC6F84EC14
:1000A80008F0000E0001BC6F0F0EBB6F35EF00F0BB
:1000B8001AEC0DF00001BB51BC11D8A466EF00F09A
:1000C80068EF00F0B5EF01F0C3EC08F03D0E000159
:1000D800B75D0F0EB859D8A074EF00F076EF00F0B6
:1000E8008CEF00F03D0EB55D0F0EB659D8A07FEF2E
:1000F80000F081EF00F08CEF00F0290ED46FFF0EB6
:10010800D56F2AEC0EF0060E0001C76F080EC66FF9
:10011800540EB75D0B0EB859D8B095EF00F097EFB5
:1001280000F0ADEF00F0540EB55D0B0EB659D8B027
:10013800A0EF00F0A2EF00F0ADEF00F0C40ED46F16
:10014800FD0ED56F2AEC0EF0030E0001C76F080EE6
:10015800C66F540EB75D0B0EB859D8A0B6EF00F0B5
:10016800B8EF00F0C3EF00F0540EB55D0B0EB659B2
:10017800D8B0C1EF00F0C3EF00F0CEEF00F05B0E97
:10018800D46FFF0ED56F2AEC0EF0040E0001C76F76
:1001980042EF00F04D0ED46FFE0ED56F2AEC0EF034
:1001A80035EF00F0F50ED46FFE0ED56F2AEC0EF089
:1001B800BC8A000E0001BC6F640EBB6F35EF00F007
:1001C8001AEC0DF00001BB51BC11D8A4EEEF00F001
:1001D800F0EF00F0B5EF01F0C3EC08F0F40E000109
:1001E800B75D010EB859D8B0FCEF00F0FEEF00F093
:1001F80011EF01F0F40EB55D010EB659D8B007EF56
:1002080001F009EF01F011EF01F0740ED46FFF0E49
:10021800D56F2AEC0EF035EF00F00C0ED46FFE0E01
:10022800D56F2AEC0EF0050E0001C76F42EF00F003
:10023800F10ED46FFF0ED56F2AEC0EF0000E000100
:10024800BC6F320EBB6FCA0EDA6F000EDB6F010E89
:10025800DC6F44EC08F0BC9A070E0001C66FB5EFDE
:1002680001F0BA86BA94BB51BC11D8A43EEF01F094
:1002780040EF01F0B5EF01F0BA86BA84000E000134
:10028800C66FB5EF01F0C451D8A44DEF01F04FEFA0
:1002980001F05EEF01F0010EC46FBA84CA0EDA6F86
:1002A800000EDB6F010EDC6F44EC08F0BC9A000E08
:1002B800C8EC05F00001C751C8EC05F06BEC0BF079
:1002C800E806D8A46AEF01F06CEF01F0B5EF01F091
:1002D800000E0001C46F090EC66FB5EF01F06BEC9C
:1002E8000BF00009D8A47BEF01F07DEF01F0B5EF2A
:1002F80001F042EF01F00001C651DF6FE06BE05101
:10030800000AD8B48AEF01F0B5EF01F0DF51000A16
:10031800D8B411EF00F0010AD8B428EF00F0030AAE
:10032800D8B446EF00F0010AD8B45CEF00F0070A31
:10033800D8B4D6EF00F0010AD8B4E4EF00F0030A0D
:10034800D8B41CEF01F0010AD8B435EF01F00F0A58
:10035800D8B447EF01F0010AD8B473EF01F0B5EF54
:1003680001F0120022C038F023C039F024C03AF05E
:1003780025C03BF026C03CF027C03DF028C03EF029
:1003880029C03FF03FBECBEF01F0CEEF01F0010EE8
:10039800CFEF01F0000E426E4250D8B4D6EF01F014
:1003A800D8EF01F0E8EF01F03F1E3E1E3D1E3C1E57
:1003B8003B1E3A1E391E386C000E39223A223B2267
:1003C8003C223D223E223F220001AEBFF6EF01F063
:1003D800AE5106E1AD05D8B0F4EF01F0F6EF01F04B
:1003E800FCEF01F0000E356E010E346E00EF02F0E6
:1003F800ADC034F0AEC035F0ABC036F0ACC037F0AD
:100408004250D8B40AEF02F00CEF02F023EF02F0EA
:100418003606D8A037064250D8A415EF02F017EFD9
:1004280002F01DEF02F0000E336E2B0E326E21EF3C
:1004380002F0000E336E2D0E326E32C042F0000E06
:10044800416E1F0E406E000E01016E6FA8EF02F0A4
:100458004006D8A041064F0E4024D96E010E412017
:10046800DA6E38C003F039C004F03AC005F03BC07A
:1004780006F03CC007F03DC008F03EC009F03FC0A0
:100488000AF00A0E0B6E000E0C6E000E0D6E000EBA
:100498000E6E000E0F6E000E106E000E116E000E26
:1004A800126E85EC04F003C02AF004C02BF005C0DE
:1004B8002CF006C02DF007C02EF008C02FF009C0A0
:1004C80030F00AC031F02AC015F02BC016F0DBEC72
:1004D8000CF01550300FDF6E3406D8A035063606FE
:1004E800D8A0370638C003F039C004F03AC005F088
:1004F8003BC006F03CC007F03DC008F03EC009F024
:100508003FC00AF00A0E0B6E000E0C6E000E0D6E48
:10051800000E0E6E000E0F6E000E106E000E116EA5
:10052800000E126EC1EC03F003C038F004C039F0BD
:1005380005C03AF006C03BF007C03CF008C03DF0EB
:1005480009C03EF00AC03FF041BEB3EF02F041508F
:1005580008E14004D8A0B3EF02F0B5EF02F0D1EF04
:1005680002F0385039103A103B103C103D103E1044
:100578003F10D8A4C2EF02F0C4EF02F02CEF02F053
:1005880035BED1EF02F0355006E13404D8B0CFEFD4
:1005980002F0D1EF02F02CEF02F04250D8B4D7EFBE
:1005A80002F0D9EF02F0E5EF02F04006D8A04106CC
:1005B8004F0E4024D96E010E4120DA6E60000BF117
:1005C800DFFF20C015F021C016F04F0E4024176E33
:1005D800010E4120186E36C019F037C01AF03FECF2
:1005E80009F01200600017F1D9FF60001BF1DAFF73
:1005F8006F007BFFF6FF6F0077FFF7FFF86A0800D0
:10060800F550250AD8A40BEF03F00DEF03F0A7EF80
:1006180003F0600017F1D9FF60001BF1DAFFDE2A52
:10062800000EDD22000E0001AC6F000EAB6FABC0F8
:10063800BDF0AD69AE69600017F1D9FF60001BF12C
:10064800DAFF6F0078FF53F06F0074FF54F060001A
:100658004FF1F6FF600053F1F7FFF86A0800F55014
:10066800640AD8B43AEF03F03CEF03F04DEF03F01F
:1006780060004FF1F6FF600053F1F7FFF86A0800D9
:10068800F550690AD8A44BEF03F04DEF03F09CEF47
:1006980003F060001FF1D9FF600023F1DAFF6F005B
:1006A8007CFF49F0020EDE266F007CFF4AF0000E48
:1006B800DD22600027F1D9FF60002BF1DAFF6F001F
:1006C80078FF4BF06F0074FF4CF0000E4CBEFF0E2D
:1006D8004D6E4E6E4F6E506E516E526E010E53241B
:1006E800496E000E54204A6E600017F1D9FF600071
:1006F8001BF1DAFF600027F1DEFF60002BF1DDFF60
:1007080043C020F044C021F04BC022F04CC023F07D
:100718004DC024F04EC025F04FC026F050C027F041
:1007280051C028F052C029F0B6EC01F0C0EF03F038
:10073800600017F1D9FF60001BF1DAFFDE2A000E16
:10074800DD22C0EF03F0600017F1D9FF60001BF154
:10075800DAFF6F007BFFF6FF6F0077FFF7FFF86A9D
:100768000800F550056E066A43C007F044C008F05B
:1007780070EC07F09CEF03F01200000E146E12BE2E
:10078800CAEF03F0C8EF03F0DCEF03F0121E111EEE
:10079800101E0F1E0E1E0D1E0C1E0B6C000E0C22C2
:1007A8000D220E220F22102211221222010E146E87
:1007B8000ABEE3EF03F0E1EF03F0F5EF03F00A1EE2
:1007C800091E081E071E061E051E041E036C000EC9
:1007D8000422052206220722082209220A22010EE3
:1007E800141A20EE15F0070EDE6AE806FDE20B503B
:1007F8000C100D100E100F10101011101210D8B48C
:1008080008EF04F00AEF04F05CEF04F0010E136E39
:1008180018EF04F0D8900B360C360D360E360F361E
:10082800103611361236132A12AE1DEF04F01FEFE0
:1008380004F00EEF04F0D890153616361736183631
:1008480019361A361B361C360B50035C0C500458EC
:100858000D5005580E5006580F500758105008589C
:100868001150095812500A58D8A03DEF04F03FEF34
:1008780004F050EF04F00B50035E0C50045A0D5076
:10088800055A0E50065A0F50075A1050085A115060
:10089800095A12500A5A1580D89012321132103261
:1008A8000F320E320D320C320B32132E1FEF04F0C2
:1008B8001450D8B462EF04F064EF04F074EF04F05D
:1008C8001C1E1B1E1A1E191E181E171E161E156C1E
:1008D800000E16221722182219221A221B221C2265
:1008E80015C003F016C004F017C005F018C006F0D4
:1008F80019C007F01AC008F01BC009F01CC00AF0A4
:100908001200000E146E0ABE8EEF04F08CEF04F095
:10091800A0EF04F00A1E091E081E071E061E051E6B
:10092800041E036C000E0422052206220722082258
:1009380009220A22010E146E12BEA7EF04F0A5EFD9
:1009480004F0B7EF04F0121E111E101E0F1E0E1E2B
:100958000D1E0C1E0B6C000E0C220D220E220F22F7
:100968001022112212220B500C100D100E100F1015
:10097800101011101210D8B4C4EF04F0C6EF04F030
:100988000EEF05F0010E136ED4EF04F0D8900B367D
:100998000C360D360E360F36103611361236132A2F
:1009A80012AED9EF04F0DBEF04F0CAEF04F00B50FD
:1009B800035C0C5004580D5005580E5006580F5043
:1009C8000758105008581150095812500A58D8A002
:1009D800F0EF04F0F2EF04F002EF05F00B50035EC5
:1009E8000C50045A0D50055A0E50065A0F50075A0B
:1009F8001050085A1150095A12500A5AD8901232F7
:100A0800113210320F320E320D320C320B32132EDD
:100A1800DBEF04F01450D8B414EF05F016EF05F02E
:100A280026EF05F00A1E091E081E071E061E051ED3
:100A3800041E036C000E0422052206220722082247
:100A480009220A2203C003F004C004F005C005F01F
:100A580006C006F007C007F008C008F009C009F092
:100A68000AC00AF012001FEC0FF00009D8B43FEFDB
:100A780005F041EF05F07BEF05F04EEF05F06DEC6A
:100A88000FF0C7EF05F0DCEC0FF0C7EF05F0000E34
:100A9800C7EF05F072C00CF073C00DF002D85FEF1D
:100AA80005F00500FA6E00016651FD6E6751FE6E95
:100AB800FF6AFA5012000E6E0F6A0F50000AD8B47F
:100AC80068EF05F04BEF05F00E50010AD8B44BEF74
:100AD80005F0030AD8B443EF05F0010AD8B447EF8C
:100AE80005F0070AD8B44BEF05F04BEF05F014EC0E
:100AF8000FF00009D8B483EF05F085EF05F0C6EFD5
:100B080005F000018351030B0009D8B48EEF05F0FE
:100B180090EF05F09CEF05F0010E0E6E8351030B6C
:100B28000F6E0E500F5E83510F18FC0B0F18836F5A
:100B38006000F7F1D9FF6000FBF1DAFFDF50126EB9
:100B48007D4B7E2B7F07D8A080077F518011D8A4CA
:100B5800B0EF05F0B2EF05F0BAEF05F001EC09F0DF
:100B68000E6E0E50106E116ABEEF05F0000E116E7B
:100B7800030E106E10C013F0125085EC0FF01350D6
:100B8800C7EF05F0030E1200036E0350D8A4CFEF91
:100B980005F0D1EF05F0DEEF05F0000E0001BF6FA4
:100BA800000EB26F000EB16F000EB06F000EAF6F87
:100BB80031EF06F05D500001BE19D8B4E6EF05F03C
:100BC800E8EF05F0F6EF05F05DC0BEF0B151B211E7
:100BD800D8B4F1EF05F0F3EF05F0F6EF05F0B10743
:100BE800D8A0B207B151B211D8A4FDEF05F0FFEFBC
:100BF80005F031EF06F0BF51D8B405EF06F008EF65
:100C080006F0010E09EF06F0000EBF6FBF51D8A421
:100C180010EF06F012EF06F01BEF06F0BA96AF4B96
:100C2800B02B000EB26F050EB16F31EF06F0BA8629
:100C38000350AF5D000EB059D8B025EF06F027EF8E
:100C480006F029EF06F015EF06F0000EB06F000E63
:100C5800AF6F000EB26F1E0EB16F120000018389D4
:100C680056EF06F0CBEC0FF0080E82EF06F0CBEC57
:100C78000FF0070E82EF06F000017F298AEC0FF0D3
:100C8800040E82EF06F0070E00018119D8B44FEF69
:100C980006F051EF06F053EF06F0CEEC0FF00F0E12
:100CA80082EF06F06CC00CF06DC00DF002D866EF54
:100CB80006F00500FA6E6051FD6E6151FE6EFF6A26
:100CC800FA5012000E6E0F6A0F50000AD8B46FEF78
:100CD80006F047EF06F00E50010AD8B447EF06F0C9
:100CE800030AD8B43BEF06F0010AD8B436EF06F091
:100CF800070AD8B440EF06F047EF06F01200C00E1E
:100D08000001D46FFE0ED56F2AEC0EF0420E0001E2
:100D1800D46FFF0ED56F2AEC0EF06B0E0001D46F66
:100D2800FE0ED56F2AEC0EF0CA0E1B6E000E1C6E5E
:100D3800000E1D6E64EC0AF0990E0001D46FFD0ED2
:100D4800D56F2AEC0EF02D0E0001D46FFE0ED56F74
:100D58002AEC0EF0BA86BA84BC9ACA0E0001DA6F81
:100D6800000EDB6F010EDC6F44EC08F0E90E0001A9
:100D7800D46FFD0ED56F2AEC0EF0BC90CA0E0001A0
:100D8800DA6F000EDB6F000EDC6F44EC08F0A50E86
:100D98000001D46FFE0ED56F2AEC0EF012002AEC7B
:100DA8000FF00009D8A4DBEF06F0DDEF06F0E0EF66
:100DB80006F0040E21EF07F000018351030B000930
:100DC800D8B4E9EF06F0EBEF06F0F7EF06F0010E06
:100DD800106E8351030B116E1050115E8351111860
:100DE800FC0B1118836F7F07D8A080077F518011F3
:100DF800D8B401EF07F003EF07F011EF07F0C8ECE4
:100E08000FF06000F7F1D9FF6000FBF1DAFFDF6E49
:100E180000017D4B7E2BDDEF06F032EC06F0126E02
:100E2800C8EC0FF06000F7F1D9FF6000FBF1DAFFC2
:100E3800DF6E00017D4B7E2B125012003901A39FFB
:100E48005B50B76E60006BF1B6FF0001E151E21133
:100E5800D8B431EF07F033EF07F03FEF07F002D8CF
:100E68003FEF07F00500FA6EE151FD6EE251FE6EAC
:100E7800FF6AFA5012000001BB51BC11D8B447EF09
:100E880007F049EF07F04CEF07F0BB07D8A0BC0705
:100E98005D50D8B452EF07F055EF07F0010E56EF4A
:100EA80007F0000E5D6EC851D8A45DEF07F05FEF44
:100EB80007F06EEF07F0090EC86F5C50D8B467EF03
:100EC80007F06AEF07F0010E6BEF07F0000E5C6E9B
:100ED8006FEF07F0C807120007500810D8B477EF73
:100EE80007F079EF07F082EF07F007500810D8A451
:100EF80080EF07F082EF07F087EF07F0055080ECEE
:100F08000FF0BAEF07F020EE09F00750D926085085
:100F1800DA22DE50DE10D8B494EF07F096EF07F02F
:100F2800B1EF07F020EE09F00750D9260850DA2271
:100F380010EE03F00750E1260850E222DE50E65C8E
:100F4800E650800A0D6EDE50800A0D58D8B0AFEF1B
:100F580007F0B1EF07F0BAEF07F020EE03F0075003
:100F6800D9260850DA22DE2A000EDD221200036E8E
:100F7800010E046E000183B7C4EF07F0C6EF07F057
:100F880001EF08F003C07CF083958387FC0E83177C
:100F98000F0E816F010E7B6FF40E7A6F8389C00E7E
:100FA800606F1F0E616F000E6C6F000E6D6FC00ECC
:100FB800626F1F0E636F000E6E6F000E6F6FC00EB4
:100FC800646F1F0E656F000E706F000E716FC00E9C
:100FD800666F1F0E676F000E726F000E736FBC0E88
:100FE800686F1F0E696F000E746F000E756FB8EC96
:100FF8000FF089EC0EF0000E046E04501200076E1C
:1010080003500410D8B40BEF08F00DEF08F02BEFE5
:1010180008F00750020D600EF324D96E000EF4207C
:10102800DA6E60000FF0DEFF600013F0DDFF07509E
:10103800020D6C0EF324D96E000EF420DA6E6000F7
:1010480017F0DEFF60001BF0DDFF43EF08F00750EC
:10105800020D600EF324D96E000EF420DA6EC00E75
:10106800DE6E1F0EDD6E0750020D6C0EF324D96E76
:10107800000EF420DA6E000EDE6E000EDD6E120039
:10108800070E0001DC654BEF08F04DEF08F058EF54
:1010980008F0890ED46FFE0ED56FDCC0D6F0D76B82
:1010A8002AEC0EF056EF08F0DCC0DDF0010EDE6F22
:1010B800DD2B61EF08F0D890DE37DD2F5FEF08F009
:1010C8000001DE51FF0A596E20EE02F0DA51D926EE
:1010D800DB51DA225950DF16010E186E20EE02F0AD
:1010E800DA51D926DB51DA22DF50196E60006BF332
:1010F800D9FF60006FF3DAFFDF50F3EC09F012005C
:10110800070E0001DC658BEF08F08DEF08F098EF13
:1011180008F0890ED46FFE0ED56FDCC0D6F0D76B01
:101128002AEC0EF096EF08F0DCC0DDF0010EDE6F61
:10113800DD2BA1EF08F0D890DE37DD2F9FEF08F008
:101148000001DE51596E20EE02F0DA51D926DB514A
:10115800DA225950DF12010E186E20EE02F0DA5131
:10116800D926DB51DA22DF50196E60006BF3D9FF04
:1011780060006FF3DAFFDF50F3EC09F01200000EA5
:101188000B6E000E0A6E000E0D6E000E0C6E000E39
:101198000E6E000E75EC0DF003500A2604500B225B
:1011A800010E75EC0DF003500C2604500D220E2A8A
:1011B800090E0E64E2EF08F0E4EF08F0CDEF08F056
:1011C8000AC003F00BC004F0000E066E0A0E056E8E
:1011D800B9EC09F003C0B7F004C0B8F00CC003F0D4
:1011E8000DC004F0000E066E0A0E056EB9EC09F08B
:1011F80003C0B5F004C0B6F012000001838916EFF1
:1012080009F0CBEC0FF0070E3EEF09F000017F2943
:101218008AEC0FF0030E3EEF09F0CEEC0FF00A0E49
:101228003EEF09F06CC00CF06DC00DF002D826EF4F
:1012380009F00500FA6E6051FD6E6151FE6EFF6A9D
:10124800FA5012000E6E0F6A0F50000AD8B42FEF32
:1012580009F011EF09F00E50010AD8B411EF09F0A6
:10126800030AD8B405EF09F0060AD8B40AEF09F062
:1012780011EF09F012001ABE44EF09F046EF09F029
:101288004CEF09F019C01EF01AC01FF050EF09F01A
:10129800000E1F6E000E1E6E000E1D6E000E1C6EE0
:1012A80062EF09F0000E066E200E056E15C007F0FD
:1012B80016C008F070EC07F01C4A1D2A1E501C5C72
:1012C8001D50800A1B6E1F50800A1B58D8A06FEF54
:1012D80009F071EF09F056EF09F017C00EF018C0C9
:1012E8000FF015C010F016C011F099EC0CF01200B8
:1012F8004AEC0CF000018351030B0009D8B487EFC6
:1013080009F089EF09F096EF09F01FEC0FF00009DA
:10131800D8B491EF09F093EF09F096EF09F0100EA9
:101328000001816F00018151020D730EF324F66EE6
:10133800FD0EF420F76EF86A000EF82209006F001F
:10134800D4FF14F009006F00D4FF15F002D8B6EFEF
:1013580009F00500FA6E1450FD6E1550FE6EFF6A16
:10136800FA5012000001816F1200000E086E000E84
:10137800076E05500610D8B4C4EF09F0C6EF09F09F
:10138800EEEF09F0010E096ECEEF09F0D8900536A0
:101398000636092A06AED3EF09F0D5EF09F0CAEFF1
:1013A80009F0D890073608360550035C06500458F3
:1013B800D8A0E1EF09F0E3EF09F0E8EF09F00550F4
:1013C800035E0650045A0780D89006320532092E6B
:1013D800D5EF09F007C003F008C004F012001A6E38
:1013E800D29E1A50BBEC07F00009D8B4FEEF09F002
:1013F80000EF0AF0F5EF09F0780E086E1B0E096E83
:10140800190E0A6E000E0B6EF1EC0EF0180E036E3C
:10141800000E046E000E066E010E056E65EC0EF0F1
:10142800000E086E000E096E000E0A6E000E0B6E9E
:10143800E5EC0EF0A8EC0FF014EC0EF0E806D8B4CA
:1014480028EF0AF02AEF0AF020EF0AF0D28E1200F5
:10145800B8EC0FF0020E0001826F3FEF0AF06DEC5E
:101468000FF063EF0AF0DCEC0FF063EF0AF05EECCC
:101478000FF063EF0AF06EC00CF06FC00DF002D8E9
:101488004FEF0AF00500FA6E6251FD6E6351FE6E71
:10149800FF6AFA5012000E6E0F6A0F50000AD8B495
:1014A80058EF0AF03BEF0AF00E50020AD8B433EFB7
:1014B8000AF0010AD8B437EF0AF03BEF0AF012003D
:1014C80060006FF0D9FF600073F0DAFF200EDF6E66
:1014D80020EE03F01B50D9261C50DA22000EDF6ED6
:1014E80020EE02F01B50D9261C50DA22000EDF6EC7
:1014F80020EE01F01B50D9261C50DA22600077F04C
:10150800DFFF030E186E20EE01F01B50D9261C5089
:10151800DA22DF50196E60006FF0D9FF600073F0B7
:10152800DAFFDF50F3EC09F01200000E3D01D46F32
:10153800000ED56F000ED66F000ED76F000ED86F55
:10154800000ED96FA00EDA6F800EDB6F000EDC6F15
:10155800080EDD6F000EDE6F000EDF6F000EE06F0D
:10156800000EE16F000EE26F000E036E000E046EB7
:1015780099EC0FF0000E036E000E046E94EC0FF061
:10158800000E036E000E046E9EEC0FF0000E0001BC
:10159800C96F1200000EBA6E000EBB6E000EBC6E54
:1015A800C30EC26EDC0EC36E9C0EC46E670E3A018B
:1015B800606F2C0E506F4069000E816F000E516FE6
:1015C800000E416F180E616F000E426F030E526FCE
:1015D800000E626F436953696369446954696469B9
:1015E800080E846F0F0EEA6F090EE46F220E096F62
:1015F800210E086F160E0D6F080EE36F120052ECE5
:101608000EF0D29E83EC06F0D28EBBEC0CF00FEC01
:1016180000F05C500001C519D8B415EF0BF017EFB6
:101628000BF009EF0BF05CC0C5F0A30ED46FFF0EF2
:10163800D56FC6C0D6F0D76B2AEC0EF0C3EC08F015
:10164800B70E0001D46FFF0ED56FB7C0D6F0B8C083
:10165800D7F0B5C0D8F0B6C0D9F02AEC0EF009EF33
:101668000BF00DEF00F0FC0E00018317020E826FE5
:10167800839546EF0BF0DAEC0FF06AEF0BF00F0EE4
:101688006AEF0BF070C00CF071C00DF002D856EF85
:101698000BF00500FA6E6451FD6E6551FE6EFF6A2F
:1016A800FA5012000E6E0F6A0F50000AD8B45FEF9E
:1016B8000BF043EF0BF00E50020AD8B43FEF0BF0DB
:1016C800010AD8B43FEF0BF043EF0BF01200CCB88F
:1016D80070EF0BF072EF0BF086EF0BF00001B451D6
:1016E80009E1650EB35DD8A07CEF0BF07EEF0BF03F
:1016F80082EF0BF0010EC26F98EF0BF0B34BB42BD7
:1017080098EF0BF0000E0001B46F000EB36FC20526
:10171800D8A491EF0BF093EF0BF098EF0BF0000EBD
:10172800C26F010E99EF0BF0000E12003901A3A150
:10173800A0EF0BF0A2EF0BF0A4EF0BF0C7EF0BF04C
:10174800A2AFA9EF0BF0ABEF0BF0ADEF0BF0C7EFCB
:101758000BF03D0179A5B3EF0BF0B5EF0BF0B7EF48
:101768000BF0C7EF0BF079AFBCEF0BF0BEEF0BF04F
:10177800C0EF0BF0C7EF0BF076A9C5EF0BF0C7EF82
:101788000BF09AEF0BF01200000E3E01DE6F000E18
:10179800DF6F000EE06F000EE16F000EE46F000EC9
:1017A800E56F000EEA6F000EEC6F000EF16F000E91
:1017B800F36F000EF46F000EF56F000EF66F000E5B
:1017C800F76F000EF96F000EFA6F000EFB6F000E38
:1017D800FC6F000EFD6F000EFE6F010EFF6F940E82
:1017E800F86F1200D0C055F0D1C056F00AEF0CF0D7
:1017F800CEC043F0CFC044F0550E456E000E466E85
:10180800D2C047F0D3C048F0F6EC02F0600057F1C0
:10181800F6FF60005BF1F7FFF86A0800F550000971
:10182800D8A419EF0CF01BEF0CF0FCEF0BF0000E36
:101838000001CF6F000ECE6F1200166E010E176EEC
:10184800000183B52AEF0CF02CEF0CF048EF0CF0F8
:101858008385000E176E7F518AEC0FF01650D8B4AE
:1018680038EF0CF03AEF0CF041EF0CF0040E0001E9
:10187800816FA5EC0DF046EF0CF0030E0001816FAF
:1018880009EC0FF0ABEC0EF0175012004BEC0FF018
:101898000009D8B452EF0CF054EF0CF058EF0CF0EC
:1018A800D7EC0FF072EF0CF035EC0FF00009D8B45C
:1018B80060EF0CF062EF0CF066EF0CF0D1EC0FF07B
:1018C80072EF0CF040EC0FF00009D8B46EEF0CF09A
:1018D80070EF0CF072EF0CF0D4EC0FF0120020EE69
:1018E80002F00C50D9260D50DA226F0078FF03F071
:1018F8006F0074FF04F0600033F0D9FF600037F028
:10190800DAFF6F0078FF05F06F0074FF06F065ECF2
:101918000EF0000E086E000E096E000E0A6E000E24
:101928000B6EF1EC0EF0020E1200000E146E000E9B
:10193800136EAAEF0CF012C005F0066A10C007F08B
:1019480011C008F070EC07F0134A142A13500E2443
:10195800D96E14500F20DA6EDF50126E1250D8A4D0
:10196800B8EF0CF0BAEF0CF09FEF0CF0120000018A
:10197800C3515D18D8B4C3EF0CF0C5EF0CF0DAEF23
:101988000CF05DC0C3F0BABACCEF0CF0CFEF0CF09E
:10199800010ED0EF0CF0000EFF0A036E033A034667
:1019A800BA500318DF0B0318BA6E0400120016BEF3
:1019B800E8EF0CF0165006E11504D8B0E6EF0CF08D
:1019C800E8EF0CF0F6EF0CF015C017F016C018F0A1
:1019D800171E181E174A182A17C015F018C016F037
:1019E800FAEF0CF015C015F016C016F012005C5096
:1019F8000001C019D8B403EF0DF005EF0DF019EF91
:101A08000DF05CC0C0F0BAB40CEF0DF00FEF0DF0A4
:101A1800010E10EF0DF0000EFF0A036E0346034699
:101A2800BA500318FB0B0318BA6E12005D50000180
:101A3800C119D8B422EF0DF024EF0DF038EF0DF0F6
:101A48005DC0C1F0BAB42BEF0DF02EEF0DF0010E12
:101A58002FEF0DF0000EFF0A036E03460346BA503F
:101A68000318FB0B0318BA6E1200530EB96ECF0E93
:101A7800B76E2C0EB66EB6506F00DCFE05F0066A27
:101A880005C006F0056A05105A6E06505B6E3901EE
:101A9800A39F938FC80E036E1F0E046EA3EC0FF066
:101AA800900EB86E12006F00E8FF01F06F00ECFFB7
:101AB80002F0390193AF63EF0DF065EF0DF06EEFB3
:101AC8000DF0A3AF6AEF0DF06CEF0DF06EEF0DF0B7
:101AD80022EC07F060000BF0FBFF600007F0FAFF54
:101AE8001100076E60001FF0F1FE3E01F88FF89DAF
:101AF800F881F8B182EF0DF084EF0DF07DEF0DF075
:101B0800F051066E056AEF510524036E000E06209B
:101B1800046E120000EE00F16F0EEE6AE806FDE1B9
:101B280000EE60F06E0EEE6AE806FDE15D6A5C6A42
:101B3800080ED56E000ED66E000ED76E000103EFAC
:101B48000BF000018351FC0B0209836F7F058011A4
:101B5800D8A4B1EF0DF0B3EF0DF0B5EF0DF032EC06
:101B680006F0D88000017C3585EC0FF0040E1200D9
:101B78000CC003F00DC004F0000E066E010E056ED9
:101B880065EC0EF0000E086E000E096E000E0A6E6F
:101B9800000E0B6EF1EC0EF0040E12000CC003F0F8
:101BA8000DC004F0000E066E020E056E65EC0EF018
:101BB800000E086E000E096E000E0A6E000E0B6E07
:101BC800F1EC0EF0020E12000CC003F00DC004F090
:101BD800000E066E010E056E65EC0EF0000E086E26
:101BE800000E096E000E0A6E000E0B6EF1EC0EF080
:101BF800020E12000CC003F00DC004F0000E066EB9
:101C0800020E056E65EC0EF0000E086E000E096EF1
:101C1800000E0A6E000E0B6EF1EC0EF0040E1200B0
:101C2800010E036E000183B51CEF0EF01EEF0EF0DF
:101C380028EF0EF083977C69B8EC0FF0BAEC0EF041
:101C48007AEC0FF082C003F003501200D60E576EE4
:101C5800000E586E000E0001CE6F000ECF6FD4C07C
:101C6800D0F0D5C0D1F0570ED26F000ED36FF6EC7E
:101C78000BF01200BFEC0FF0BCEC0FF00009D8B469
:101C880048EF0EF04AEF0EF050EF0EF0000E8AEC1F
:101C98000FF0000E85EC0FF0000E1200E2EC0FF0D2
:101CA80077EC0EF09AEC0EF0CEEC0AF0FDEC0EF0AC
:101CB800C8EC0BF0C9EC0EF039EC0DF099EC0AF019
:101CC8001200000183A96BEF0EF06DEF0EF076EFB6
:101CD8000EF003C07DF004C07EF005C07FF006C0A2
:101CE80080F083991200000E3901C06F000EC16F99
:101CF800000EC26F000EC36F000EC46F000EC56FDA
:101D0800000EC66F000EC76F12003D0173BF8FEF44
:101D18000EF091EF0EF099EF0EF0000E796F000EB5
:101D28007A6F000E766F6C69738F1200040E3D0196
:101D3800736F800E746F180E756F030E7B6F000E35
:101D4800796F000E7A6F000E766F6C691200B1EF32
:101D58000EF09AEC0BF07CEC09F0000183B5B7EFBC
:101D68000EF0B9EF0EF0ADEF0EF0120039019393BB
:101D78009395929F93913D017A917A957A9F7A9D56
:101D88007A937693769576911200010EAE6E000ED8
:101D9800AD6E000EAF6EF90EAB6E000EAA6E390175
:101DA800A495A00EAC6E1200036E3901A7ABDFEF4D
:101DB8000EF0E1EF0EF0D9EF0EF060000FF0D2FD5B
:101DC800120008C003F009C004F00AC005F00BC0F7
:101DD80006F0020E03EC08F0120008C003F009C078
:101DE80004F00AC005F00BC006F0000E03EC08F082
:101DF8001200620E3901D96F000EDB6F000EDD6F25
:101E0800050EDF6F000EDE6F120000018351FC0B20
:101E18000209836F7C517C2585EC0FF0030E1200BC
:101E28003D0178BB1AEF0FF01DEF0FF0010E1EEF0A
:101E38000FF0000E12003D0174BB25EF0FF028EFE4
:101E48000FF0010E29EF0FF0000E12003D0178B1DE
:101E580030EF0FF033EF0FF0010E34EF0FF0000EFC
:101E680012003D0179B53BEF0FF03EEF0FF0010E88
:101E78003FEF0FF0000E12003D0176B946EF0FF06C
:101E880049EF0FF0010E4AEF0FF0000E12003D016E
:101E980079BF51EF0FF054EF0FF0010E55EF0FF02F
:101EA800000E12008FEC0FF000018395020E826F76
:101EB8000F0E12008FEC0FF000018395000E826F59
:101EC8000F0E1200C2EC0FF0BFEC0FF074EC0FF025
:101ED800120000017F518AEC0FF0A5EC0DF0120002
:101EE80000018395000E826F0F0E12003D01739F53
:101EF800000E796F78851200046E0450D8EC0EF04D
:101F08001200036E60000FF06BFD1200036E60009C
:101F18000FF06CFD12003D01739F7885738F1200DE
:101F280003C0E5F004C0E6F0120003C0E7F004C007
:101F3800E8F0120003C0E3F004C0E4F0120003C0AC
:101F4800E1F004C0E2F01200000E21EC0CF01200E7
:101F5800C2EC0FF0090E1200C5EC0FF0040E1200CF
:101F6800C5EC0FF0030E1200000E3D01796F120050
:101F78003D016C5112003D01739B12003D01748DAF
:101F880012003D01749D12003D016A5112003D018D
:101F9800738D12003D01739D12003D017995120069
:101FA8003D01769912003D01799F1200010E120041
:101FB800020E1200050E1200010E1200D29A120033
:021FC800120005
:10FD720000E81E4A1B121E6E0AA60D0212640CDA5D
:10FD82001EB81FB41F7C1C601F681FCC1E581FBCEE
:10FD92001E6E165814AC1E5374617274205379731C
:10FDA20074656D202D2052656C6F6164696E6720E9
:10FDB20044656661756C742056616C756573200DBF
:10FDC2000A0053686F7274206369726375697420E4
:10FDD20077697468206672616D6520646574656315
:10FDE200746564200D0A0053746172742053797330
:10FDF20074656D202D205374617274696E67205092
:10FE020053202F205053200D0A00436F6E746163FC
:10FE12007420766F6C746167652068696768206416
:10FE220065746563746564200D0A005374617274AD
:10FE32002053797374656D202D2053746172746937
:10FE42006E672050696E73200D0A0053686F7274DA
:10FE52002063697263756974206E6F7420646574BF
:10FE62006563746564200D0A0053746172742053D3
:10FE7200797374656D202D20494F20457870616E2D
:10FE8200646572200D0A004552524F52202D2049BE
:10FE92004F20494E56414C49442050494E2025643A
:10FEA2000D0A0053746172742053797374656D2066
:10FEB2002D2046696E6973686564200D0A005374CB
:10FEC2006172742053797374656D202D20537461AF
:10FED2007274696E67200D0A004552524F52202DEE
:10FEE20020494F20494E56414C49442050494E200A
:10FEF2000D0A0052656C6179206E656761746976DE
:10FF02006520706F7765726564200D0A0052656C1A
:10FF1200617920706F73697469766520706F776597
:10FF2200726564200D0A004F56455220564F4C54BC
:10FF3200414745204445544543544544200D0A0059
:10FF420053746172742053797374656D202D20454A
:10FF52004550524F4D200D0A004F70656E20636967
:10FF62007263756974206465746563746564200DD9
:10FF72000A00436F6E7461637420766F6C746167FC
:10FF820065204F4B2121200D0A004672616D6520CC
:10FF92006E6F7420636F6E6E6563746564200D0A04
:10FFA200007374617465206D616368696E652025F4
:10FFB20064200D0A00616463313D25642C20616474
:10FFC20063323D2564200D0A004672616D6520632F
:10FFD2006F6E6E6563746564200D0A0042757474F9
:10FFE2006F6E206465746563746564200D0A005247
:0EFFF200656C617973204F4646200D0A0000B1
:020000040020DA
:10000000FF0FFF0FFF0FFF0FFF0FFF0FFF0FFF0F80
:020000040030CA
:0A000000ECFFF7FFCCC7FFFFFEFF87
:00000001FF
