:040000000DEF00F010
:0400080005EF42F0CE
:10001800FF0032EF3FF0000E0001B66F000EB56F23
:1000280021EF07F020EE07F08851D9268951DA220E
:10003800DF508A6F20EE06F08851D9268951DA22DE
:10004800DF508B6F8A51B56F8BC0B6F0B5C003F027
:10005800B6C004F0000E066E640E056EE6EC3FF0C6
:1000680003C0B5F004C0B6F00001B551010146194E
:100078000BE10001B65101014719D8B446EF00F071
:1000880048EF00F057EF00F0B5C046F1B6C047F1B1
:100098008D0E00016D6FF70E6E6FB5C06FF0B6C0B4
:1000A80070F027EC47F0000120EE09F08851D926BE
:1000B8008951DA22DF508A6F20EE08F08851D9265C
:1000C8008951DA22DF508B6F8A51B56F8BC0B6F039
:1000D800B5C003F0B6C004F0000E066E640E056EDF
:1000E800E6EC3FF003C0B5F004C0B6F00001B5512E
:1000F800010148190BE10001B65101014919D8B4B1
:1001080088EF00F08AEF00F099EF00F0B5C048F1F1
:10011800B6C049F1B80E00016D6FF60E6E6FB5C02E
:100128006FF0B6C070F027EC47F0000120EE0BF03E
:100138008851D9268951DA22DF508A6F20EE0AF0D9
:100148008851D9268951DA22DF508B6F8A51B56FD1
:100158008BC0B6F0B5C003F0B6C004F0000E066E52
:10016800640E056EE6EC3FF003C0B5F004C0B6F0CF
:100178000001B55101014A190BE10001B651010115
:100188004B19D8B4CAEF00F0CCEF00F0DBEF00F069
:10019800B5C04AF1B6C04BF1B00E00016D6FF70E55
:1001A8006E6FB5C06FF0B6C070F027EC47F0000175
:1001B80020EE0DF08851D9268951DA22DF508A6F56
:1001C80020EE0CF08851D9268951DA22DF508B6F46
:1001D8008A51B56F8BC0B6F0B5C003F0B6C004F055
:1001E800000E066E640E056EE6EC3FF003C0B5F037
:1001F80004C0B6F00001B55101014C190BE1000132
:10020800B65101014D19D8B40CEF01F00EEF01F011
:10021800ABEF07F0B5C04CF1B6C04DF1DC0E0001F4
:100228006D6FF60E6E6FB5C06FF0B6C070F027EC4C
:1002380047F0ABEF07F020EE06F08851D926895138
:10024800DA22DF50B46FB45101014119D8B42FEF4D
:1002580001F031EF01F045EF01F0B4C041F10001C8
:10026800B45164EC42F034C042F135C043F1020E9F
:1002780000016D6FF90E6E6FB4C06FF0706B27ECF4
:1002880047F0000120EE08F08851D9268951DA227A
:10029800DF508A6F20EE07F08851D9268951DA227B
:1002A800DF508B6F8A51B56F8BC0B6F0B5C003F0C5
:1002B800B6C004F0000E066E640E056EE6EC3FF064
:1002C80003C0B5F004C0B6F00001B55101014E19E4
:1002D8000BE10001B65101014F19D8B476EF01F0D6
:1002E80078EF01F087EF01F0B5C04EF1B6C04FF1DD
:1002F800000E00016D6FF70E6E6FB5C06FF0B6C0DF
:1003080070F027EC47F0000120EE0AF08851D9265A
:100318008951DA22DF508A6F20EE09F08851D926F8
:100328008951DA22DF508B6F8A51B56F8BC0B6F0D6
:10033800B5C003F0B6C004F0000E066E640E056E7C
:10034800E6EC3FF003C0B5F004C0B6F00001B551CB
:10035800010150190BE10001B65101015119D8B43E
:10036800B8EF01F0BAEF01F0C9EF01F0B5C050F1F4
:10037800B6C051F1270E00016D6FF60E6E6FB5C055
:100388006FF0B6C070F027EC47F0000120EE0CF0DB
:100398008851D9268951DA22DF508A6F20EE0BF076
:1003A8008851D9268951DA22DF508B6F8A51B56F6F
:1003B8008BC0B6F0B5C003F0B6C004F0000E066EF0
:1003C800640E056EE6EC3FF003C0B5F004C0B6F06D
:1003D8000001B551010154190BE10001B6510101A9
:1003E8005519D8B4FAEF01F0FCEF01F0ABEF07F0C4
:1003F800B5C054F1B6C055F1AB0E00016D6FF40EE7
:100408006E6FB5C06FF0B6C070F027EC47F0ABEF79
:1004180007F020EE07F08851D9268951DA22DF50FB
:100428008A6F20EE06F08851D9268951DA22DF50EA
:100438008B6F8A51B56F8BC0B6F0B5C003F0B6C0EC
:1004480004F0000E066E640E056EE6EC3FF003C085
:10045800B5F004C0B6F00001B551010152190BE125
:100468000001B65101015319D8B43DEF02F03FEF36
:1004780002F04EEF02F0B5C052F1B6C053F16D0E66
:1004880000016D6FF50E6E6FB5C06FF0B6C070F0FD
:1004980027EC47F0000120EE08F08851D926895151
:1004A800DA22DF50B46FB45101015619D8B45FEFA6
:1004B80002F061EF02F0ABEF07F0B4C056F1700E36
:1004C80000016D6FF60E6E6FB4C06FF0706B27ECA5
:1004D80047F0ABEF07F020EE07F08851D926895195
:1004E800DA22DF508A6F20EE06F08851D92689512A
:1004F800DA22DF508B6F8A51B56F8BC0B6F0B551D9
:10050800010144190BE10001B65101014519D8B4A4
:1005180090EF02F092EF02F0ABEF07F0B5C044F1B4
:10052800B6C045F1B90E00016D6FF30E6E6FB5C020
:100538006FF0B6C070F027EC47F0ABEF07F020EE95
:1005480006F08851D9268951DA22750EDE18D8A40A
:10055800B0EF02F0B2EF02F0ABEF07F020EE09F0D7
:100568008851D9268951DA22DF508A6F8AC08BF0E8
:100578008C6B8D6B8E6B8DC08EF08CC08DF08BC0AC
:100588008CF08B6B20EE08F08851D9268951DA223D
:10059800DF508F6F8FC090F0916B926B936B91C00F
:1005A80093F090C092F0916B906B20EE07F0885119
:1005B800D9268951DA22DF50946F94C095F0966B52
:1005C800976B986B95C098F0976B966B956B90515D
:1005D8009511996F915196119A6F925197119B6F3E
:1005E800935198119C6F8B5199119D6F8C519A1151
:1005F8009E6F8D519B119F6F8E519C11A06F20EEA5
:100608000AF08851D9268951DA22DF50A16FA15109
:100618009D11A26F9E51A36F9F51A46FA051A56F0A
:10062800A2C003F0A3C004F0A4C005F0A5C006F062
:10063800FAEC44F0E806D8A424EF03F026EF03F020
:100648006CEF03F0E20E00016D6FFA0E6E6F27EC8F
:1006580047F0F70E00017B6F000E7C6F000E7D6F78
:100668007EEC3DF0010E0001EF6FBC90010EF06FC3
:100678000D0E00018A6FFB0EE82EFED78A2FFCD7DD
:1006880000D04BEF03F040EC45F0CDEC34F05EECDD
:1006980027F00009D8B453EF03F055EF03F047EF04
:1006A80003F0D30E00016D6FF40E6E6F27EC47F068
:1006B800060E00018B6F130E8A6FAD0EE82EFED763
:1006C8008A2FFCD78B2FFAD700D0FF00ABEF07F0AB
:1006D800E20E00016D6FF30E6E6F27EC47F0ABEF83
:1006E80007F020EE07F08851D9268951DA22DF5029
:1006F800B46F040E01013F19D8B485EF03F087EFFA
:1007080003F0ABEF07F00001B451E719D8B48FEF4D
:1007180003F091EF03F0ABEF07F0B4C0E7F0230E5E
:100728006D6FF90E6E6FB4C06FF0706B27EC47F009
:10073800ABEF07F020EE06F08851D9268951DA226E
:10074800DF50B46F040E01013F19D8B4AEEF03F0C7
:10075800B0EF03F0C5EF03F00001B451E619D8B4C7
:10076800B8EF03F0BAEF03F0C5EF03F0B4C0E6F05A
:10077800C30E6D6FFA0E6E6FB4C06FF0706B27EC1E
:1007880047F0000120EE08F08851D9268951DA2275
:10079800DF50B46FB429D8B4D4EF03F0D7EF03F027
:1007A800010ED8EF03F0000E0101CD6F000120EE1D
:1007B8000BF08851D9268951DA22DF50B46F330EF5
:1007C800B419D8A4EAEF03F0ECEF03F00EEF04F04D
:1007D80001013F05D8B4F3EF03F0F5EF03F00EEF96
:1007E80004F0010E3E6F000E0001E96F000EE86F85
:1007F800000E0101846F000E836F000E826F000EE1
:10080800816F6A0E00016D6FF70E6E6F27EC47F06F
:10081800ABEF07F0350E0001B419D8A416EF04F0B9
:1008280018EF04F0ABEF07F0030E01013F19D8B43D
:1008380020EF04F022EF04F0ABEF07F0030E3E6F59
:10084800000E0001E96F000EE86F000E0101846FD1
:10085800000E836F000E826F000E816F020E000182
:100868006D6FF60E6E6F27EC47F0ABEF07F020EEDA
:1008780006F08851D9268951DA22DE04D8A447EF38
:1008880004F049EF04F0ABEF07F020EE09F08851CF
:10089800D9268951DA22DF508A6F8AC08BF08C6B97
:1008A8008D6B8E6B8DC08EF08CC08DF08BC08CF0F4
:1008B8008B6B20EE08F08851D9268951DA22DF5057
:1008C8008F6F8FC090F0916B926B936B91C093F088
:1008D80090C092F0916B906B20EE07F08851D9266A
:1008E8008951DA22DF50946F94C095F0966B976B1C
:1008F800986B95C098F0976B966B956B9051951186
:10090800996F915196119A6F925197119B6F9351CC
:1009180098119C6F8B5199119D6F8C519A119E6FF4
:100928008D519B119F6F8E519C11A06F20EE0AF084
:100938008851D9268951DA22DF50A16FA1519D1122
:10094800A66F9E51A76F9F51A86FA051A96FA6C00F
:1009580003F0A7C004F0A8C005F0A9C006F0FAEC9F
:1009680044F0E806D8A4BBEF04F0BDEF04F0CFEFE5
:1009780004F0320E01015425996F000E55219A6F2B
:10098800020E3E6F8A0E00016D6FFC0E6E6F27EC33
:1009980047F0ABEF07F0E70E00016D6FFB0E6E6FCF
:1009A80027EC47F0ABEF07F0030E01013F19D8B46D
:1009B800E0EF04F0E2EF04F0EBEF04F0040E3F196F
:1009C800D8A4E9EF04F0EBEF04F0ABEF07F0000177
:1009D80020EE06F08851D9268951DA22DF50B46F0B
:1009E800040E01013F19D8B4FCEF04F0FEEF04F047
:1009F80046EF05F0AA0E0001B419D8A406EF05F0D9
:100A080008EF05F0ABEF07F0040E01013E6F00019F
:100A180020EE07F08851D9268951DA22DF50B36FCA
:100A2800940E6D6FF60E6E6F27EC47F00001B32938
:100A3800D8B421EF05F023EF05F03AEF05F0010EE9
:100A48000101CB6F0001B3510A0D6F00CCFF8DF18E
:100A58006F00D0FF8EF1AF0E6D6FFE0E6E6FB3C0DC
:100A68006FF0706B27EC47F0ABEF07F0000E010159
:100A7800CB6F450E00016D6FFF0E6E6F27EC47F0D0
:100A8800ABEF07F0BB0E0001B419D8A44EEF05F088
:100A980050EF05F0ABEF07F0B80E6D6FF50E6E6F07
:100AA80027EC47F0650E00016D6FF90E6E6F27ECAD
:100AB80047F00B0E00018B6F260E8A6F5D0EE82E35
:100AC800FED78A2FFCD78B2FFAD700D0FF00ABEFC9
:100AD80007F020EE06F08851D9268951DA22DF5036
:100AE800B46F840EB419D8A47CEF05F07EEF05F03E
:100AF8001FEF06F020EE09F08851D9268951DA2235
:100B0800DF508A6F8AC08BF08C6B8D6B8E6B8DC0BB
:100B18008EF08CC08DF08BC08CF08B6B20EE08F0C3
:100B28008851D9268951DA22DF508F6F8FC090F013
:100B3800916B926B936B91C093F090C092F0916B14
:100B4800906B20EE07F08851D9268951DA22DF50C0
:100B5800946F94C095F0966B976B986B95C098F0CE
:100B6800976B966B956B90519511996F9151961162
:100B78009A6F925197119B6F935198119C6F8B515B
:100B880099119D6F8C519A119E6F8D519B119F6F7A
:100B98008E519C11A06F20EE0AF08851D9268951F8
:100BA800DA22DF50A16FA1519D11AA6F9E51AB6F40
:100BB8009F51AC6FA051AD6FAAC003F0ABC004F059
:100BC800ACC005F0ADC006F0FAEC44F0E806D8A4D5
:100BD800F0EF05F0F2EF05F018EF06F0000E046EE6
:100BE800000E036E000E056E8DEC44F0F40E00014D
:100BF8006D6FFC0E6E6F27EC47F0DA0E00016D6F1B
:100C0800FC0E6E6F27EC47F00B0E00018B6F260E63
:100C18008A6F5D0EE82EFED78A2FFCD78B2FFAD766
:100C280000D0FF001FEF06F0DC0E00016D6FFE0E16
:100C38006E6F27EC47F00A0E0001B419D8A427EF0D
:100C480006F029EF06F0ABEF07F0000EB26F20EECA
:100C58000DF08851D9268951DA22DF50B46FB4518A
:100C6800DB19D8B43AEF06F03CEF06F049EF06F08E
:100C7800010EB26FB4C0DBF0D30E6D6FFF0E6E6F56
:100C8800DBC06FF0706B27EC47F0000120EE0CF032
:100C98008851D9268951DA22DF50B46FB451DC1952
:100CA800D8B459EF06F05BEF06F068EF06F0010ED6
:100CB800B26FB4C0DCF0910E6D6FFF0E6E6FDCC0CA
:100CC8006FF0706B27EC47F0000120EE0BF08851B5
:100CD800D9268951DA22DF50B46FB451DD19D8B45E
:100CE80078EF06F07AEF06F087EF06F0010EB26FA4
:100CF800B4C0DDF0E30E6D6FFF0E6E6FDDC06FF0F8
:100D0800706B27EC47F0000120EE09F08851D926D6
:100D18008951DA22DF508A6F8AC08BF08C6B8D6B19
:100D28008E6B8DC08EF08CC08DF08BC08CF08B6B71
:100D380020EE08F08851D9268951DA22DF508F6FCA
:100D48008FC090F0916B926B936B91C093F090C0B1
:100D580092F0916B906B20EE07F08851D92689515B
:100D6800DA22DF50946F94C095F0966B976B986B6E
:100D780095C098F0976B966B956B90519511996FFC
:100D8800915196119A6F925197119B6F93519811A7
:100D98009C6F8B5199119D6F8C519A119E6F8D513B
:100DA8009B119F6F8E519C11A06F20EE0AF0885105
:100DB800D9268951DA22DF50A16FA1519D11AE6F5A
:100DC8009E51AF6F9F51B06FA051B16FAE51DE19F8
:100DD8000FE1AF51DF190CE1B051E01909E1B15150
:100DE800E119D8B4FAEF06F0FCEF06F014EF07F0BB
:100DF800010EB26FAEC0DEF0AFC0DFF0B0C0E0F001
:100E0800B1C0E1F0AF0E6D6FFB0E6E6FDEC06FF01C
:100E1800DFC070F0E0C071F0E1C072F027EC47F07D
:100E28000001B205D8A41BEF07F01DEF07F0ABEFE8
:100E380007F03BEC3DF0ABEF07F020EE01F08851F6
:100E4800D9268951DA226F0078FF8AF06F0078FF7F
:100E58008BF06F0078FF8CF06F0078FF8DF08D516C
:100E6800030AD8B492EF07F00A0AD8B499EF07F04A
:100E7800100AD8B4A4EF07F0ABEF07F08B51520A71
:100E8800D8B449EF07F0ABEF07F08A51000AD8B49D
:100E980075EF03F0ABEF07F08B51500AD8B457EF5A
:100EA80007F0ABEF07F08A51020AD8B416EF00F04A
:100EB800010AD8B41FEF01F0070AD8B40DEF02F009
:100EC800010AD8B43BEF04F0030AD8B4D8EF04F011
:100ED800010AD8B46FEF02F00F0AD8B4A3EF02F0FA
:100EE800ABEF07F08B51530AD8B47DEF07F0ABEFA7
:100EF80007F08A51000AD8B49EEF03F0ABEF07F071
:100F08008B51160AD8B48BEF07F0ABEF07F08A5174
:100F18000F0AD8B46DEF05F0ABEF07F08C51F80A63
:100F2800D8B442EF07F0ABEF07F08C51B00AD8B451
:100F380050EF07F0480AD8B476EF07F0ABEF07F0A8
:100F48008C51F80AD8B484EF07F0ABEF07F0120021
:100F58006000F7F0D9FF6000FBF0DAFF6F007BFF5D
:100F6800F6FF6F0077FFF7FFF86A0800F550250ACB
:100F7800D8A4C1EF07F0C3EF07F038EF0BF060001B
:100F8800F7F0D9FF6000FBF0DAFFDE2A000EDD2261
:100F9800000E01017E6F000E7D6F7DC1A9F15868BA
:100FA80059686000F7F0D9FF6000FBF0DAFF6F00C6
:100FB80078FF6BF06F0074FF6CF06000AFF1F6FF24
:100FC8006000B3F1F7FFF86A08006F00D4FF62F021
:100FD8000FEF08F06B4B6C2B6000AFF1F6FF600071
:100FE800B3F1F7FFF86A0800F5506C0AD8A4FFEFD0
:100FF80007F001EF08F031EF08F04C0E626F6B4B11
:101008006C2B31EF08F0690E626F31EF08F0000EBB
:10101800626F31EF08F000016251416E426A42503E
:10102800000AD8B41AEF08F00BEF08F04150640A30
:10103800D8B407EF08F00D0AD8B407EF08F0050A8E
:10104800D8B4EEEF07F0190AD8B407EF08F00D0A84
:10105800D8B407EF08F00BEF08F06000AFF1F6FF27
:101068006000B3F1F7FFF86A0800F550640AD8B4D5
:1010780040EF08F042EF08F001EF09F06000AFF12F
:10108800F6FF6000B3F1F7FFF86A0800F550690A47
:10109800D8A451EF08F053EF08F044EF09F001EF3E
:1010A80009F06000FFF0D9FF600003F1DAFF6F007C
:1010B8007CFF41F0020EDE266F007CFF42F0000E3E
:1010C800DD22600007F1D9FF60000BF1DAFF6F0045
:1010D80078FF63F06F0074FF64F0000E64BFFF0ECA
:1010E800656F666F676F686F696F6A6F1AEF09F0EF
:1010F8006000FFF0D9FF600003F1DAFF6F007CFFAA
:1011080041F0040EDE266F007CFF42F0000EDD2267
:10111800600007F1D9FF60000BF1DAFF6F0078FF7C
:1011280043F06F0078FF44F06F0078FF45F06F00E0
:1011380078FF46F043C047F044C048F045C049F046
:1011480046C04AF04B6A4ABE4B684BC04CF04BC095
:101158004DF04BC04EF047C063F048C064F049C042
:1011680065F04AC066F04BC067F04CC068F04DC0EF
:1011780069F04EC06AF01AEF09F06000FFF0D9FF7D
:10118800600003F1DAFF6F007CFF41F0080EDE26F5
:101198006F007CFF42F0000EDD22600007F1D9FFEE
:1011A80060000BF1DAFF6F0078FF43F06F0078FF03
:1011B80044F06F0078FF45F06F0078FF46F06F004D
:1011C80078FF47F06F0078FF48F06F0078FF49F02C
:1011D8006F0078FF4AF043C063F044C064F045C034
:1011E80065F046C066F047C067F048C068F049C07F
:1011F80069F04AC06AF01AEF09F06251416E426A1A
:101208004250000AD8B40BEF09F01AEF09F0415028
:101218004C0AD8B4C1EF08F0250AD8B455EF08F045
:10122800050AD8B47CEF08F01AEF09F0010E6B2517
:10123800416E000E6C21426E6000F7F0D9FF60002D
:10124800FBF0DAFF600007F1DEFF60000BF1DDFF65
:101258003BC020F03CC021F063C022F064C023F002
:1012680065C024F066C025F067C026F068C027F086
:1012780069C028F06AC029F095EC28F051EF0BF00E
:101288006000AFF1F6FF6000B3F1F7FFF86A0800FD
:10129800F550780AD8B453EF09F055EF09F000EF8C
:1012A8000AF06000AFF1F6FF6000B3F1F7FFF86AEB
:1012B8000800F550750AD8A464EF09F066EF09F044
:1012C8007AEF0AF000EF0AF06000FFF0D9FF600043
:1012D80003F1DAFF6F007CFF41F0020EDE266F009B
:1012E8007CFF42F0000EDD22600007F1D9FF6000AC
:1012F8000BF1DAFF6F0078FF43F06F0074FF44F0E2
:1013080043C063F044C064F0656B666B676B686BE1
:10131800696B6A6B19EF0AF06000FFF0D9FF600093
:1013280003F1DAFF6F007CFF41F0040EDE266F0048
:101338007CFF42F0000EDD22600007F1D9FF60005B
:101348000BF1DAFF6F0078FF43F06F0078FF44F08D
:101358006F0078FF45F06F0078FF46F04350636FE9
:101368004450646F4550656F4650666F676B686B95
:10137800696B6A6B19EF0AF06000FFF0D9FF600033
:1013880003F1DAFF6F007CFF41F0080EDE266F00E4
:101398007CFF42F0000EDD22600007F1D9FF6000FB
:1013A8000BF1DAFF6F0078FF43F06F0078FF44F02D
:1013B8006F0078FF45F06F0078FF46F06F0078FF08
:1013C80047F06F0078FF48F06F0078FF49F06F0032
:1013D80078FF4AF043C063F044C064F045C065F04C
:1013E80046C066F047C067F048C068F049C069F079
:1013F8004AC06AF019EF0AF06251416E426A4250DF
:10140800000AD8B40AEF0AF019EF0AF041504C0A62
:10141800D8B4C0EF09F0250AD8B468EF09F0050A76
:10142800D8B490EF09F019EF0AF0010E6B25416E60
:10143800000E6C21426E6000F7F0D9FF6000FBF0EF
:10144800DAFF600007F1DEFF60000BF1DDFF5DEF02
:101458000AF03BC020F03CC021F063C022F064C019
:1014680023F065C024F066C025F067C026F068C088
:1014780027F069C028F06AC029F016EC2DF051EF6A
:101488000BF03BC020F03CC021F063C022F064C0E8
:1014980023F065C024F066C025F067C026F068C058
:1014A80027F069C028F06AC029F06BEC2FF051EFE3
:1014B8000BF06000AFF1F6FF6000B3F1F7FFF86AD8
:1014C8000800F550416E426A4250000AD8B46FEFE6
:1014D8000AF07AEF0AF04150750AD8B42DEF0AF0F5
:1014E8000D0AD8B445EF0AF07AEF0AF06000F7F079
:1014F800D9FF6000FBF0DAFF6F007BFFF6FF6F009B
:1015080077FFF7FFF86A0800F550730AD8B48FEF31
:101518000AF091EF0AF0B0EF0AF06000F7F0D9FF97
:101528006000FBF0DAFF6F0078FF03F06F0074FFD4
:1015380004F0F80E056EFF0E066E000E086E030E20
:10154800076ED2EC33F003500410D8A4AEEF0AF0C3
:10155800B0EF0AF001EF0BF06000F7F0D9FF600080
:10156800FBF0DAFF6F007BFFF6FF6F0077FFF7FFF6
:10157800F86A0800F550730AD8B4C5EF0AF0C7EF47
:101588000AF0CEEF0AF0000E0001616F030E606FE3
:10159800D3EF0AF0000E0001616F010E606F60006A
:1015A800F7F0D9FF6000FBF0DAFF6051DE266151E9
:1015B800DD223BC00EF03CC00FF06000FFF0D9FF09
:1015C800600003F1DAFF6F007CFF41F0020EDE26B7
:1015D8006F007CFF42F0000EDD22600007F1D9FFAA
:1015E80060000BF1DAFF6F0078FF10F06F0074FFF6
:1015F80011F07EEC31F051EF0BF06000F7F0D9FFFD
:101608006000FBF0DAFF6F007BFFF6FF6F0077FFEB
:10161800F7FFF86A0800F550250AD8A416EF0BF072
:1016280018EF0BF02DEF0BF06000F7F0D9FF60001A
:10163800FBF0DAFFDE2A000EDD22000E066E250E14
:10164800056E3BC007F03CC008F06CEC37F051EF7A
:101658000BF06000F7F0D9FF6000FBF0DAFFDE2A3C
:10166800000EDD2251EF0BF06000F7F0D9FF6000AB
:10167800FBF0DAFF6F007BFFF6FF6F0077FFF7FFE5
:10168800F86A0800F550056E066A3BC007F03CC0D2
:1016980008F06CEC37F02DEF0BF01200010E000192
:1016A8006F6F500E3C645BEF0BF05DEF0BF060EF7B
:1016B8000BF0060E78EF0EF0800E066E0E0E38EC6C
:1016C80048F0000E0001676F65EF0EF0930E706F23
:1016D800000E7B6F000E6A6F3C50D8B476EF0BF0AB
:1016E80078EF0BF088EF0BF06000EBF0D9FF6000AB
:1016F800EFF0DAFF040EDF6484EF0BF086EF0BF0F7
:1017080088EF0BF0010E6A6F6A51D8A48EEF0BF0C8
:1017180091EF0BF0010E92EF0BF0000E7A6FE4EFF1
:101728000BF0950E706F030E7B6F000E6B6F3C50C5
:10173800D8B4A1EF0BF0A3EF0BF0B3EF0BF0600000
:10174800EBF0D9FF6000EFF0DAFF070EDF64AFEFD0
:101758000BF0B1EF0BF0B3EF0BF0010E6B6F6B51A9
:10176800D8A4B9EF0BF0BCEF0BF0010EBDEF0BF0F6
:10177800000E7A6FE4EF0BF0970E706F060E7B6F1A
:10178800000E7A6FE4EF0BF0050E78EF0EF06F5154
:101798003D6E3E6A3E50000AD8B4D5EF0BF0C8EF54
:1017A8000BF03D50010AD8B46AEF0BF0030AD8B425
:1017B80095EF0BF0010AD8B4C0EF0BF0C8EF0BF0AF
:1017C8007B51F80DF3503C24846F84BFF0EF0BF08D
:1017D800EEEF0BF0F2EF0BF0000E846F020E836F4A
:1017E8007A51D8B4FAEF0BF0FCEF0BF0FFEF0BF0E7
:1017F800880E726F832B84C03DF03E6A3DBE3E0664
:10180800070E3D16000E3E163D503E10D8A40FEFB1
:101818000CF013EF0CF03F6A3F2A14EF0CF03F6A0C
:1018280000018451036E046A03BE0406000E066EAE
:10183800080E056E10EC39F003503F2400017D6F4F
:101848007D51D8B42AEF0CF02CEF0CF073EF0CF0AC
:101858007A51D8A432EF0CF034EF0CF03AEF0CF0D8
:10186800000E616F040E606F3EEF0CF0000E616FAA
:10187800030E606F60C06DF07D516D5DD8B047EFAD
:101888000CF049EF0CF04BEF0CF06DC07DF0000E42
:10189800816F6AEF0CF07B513A243D6E000E3B20BD
:1018A8003E6E81513D26000E3E22010E3D24D96E2A
:1018B800000E3E20DA6E700E8325E16EE26A000E9D
:1018C800E2226F007FFFE7FF832B812B7D51815D33
:1018D800D8A071EF0CF073EF0CF04FEF0CF07A51C9
:1018E800D8B479EF0CF07BEF0CF07DEF0CF0080E1C
:1018F8008427000E686F9DEF0DF08451800A600FF9
:10190800D8A089EF0CF08BEF0CF0B7EF0CF0700E4D
:10191800716F7251731974197519766F700E096E9B
:10192800000E0A6E070E0B6E770E0C6E000E0D6E13
:101938008CEC3AF00001826F8251D8B4A6EF0CF01B
:10194800A8EF0CF0ABEF0CF0825178EF0EF0000E20
:10195800806F090E696F760E7E6F000E7F6F030E23
:101968007C6FE5EF0CF08451070B806F8451036E98
:10197800046A03BE0406000E066E080E056E10EC1F
:1019880039F003500001816F8151020F836F835139
:10199800100DF3508025716F8051D8A4D6EF0CF04C
:1019A800D9EF0CF0010EDAEF0CF0000E8325696F09
:1019B800700E83257E6F7F6B000E7F23835109088D
:1019C8007C6F80C06CF06C51100DF3508025046E54
:1019D8000D0EDCEC47F0700E2F6E000E306E69C0F5
:1019E80031F07EC032F07FC033F07C0E346E000ED2
:1019F800356E800E366E000E376E6CC038F0000EF5
:101A0800396E9FEC45F00001826F020E8219D8A44E
:101A180010EF0DF012EF0DF083EF0DF00E0EA9ECA4
:101A280047F000016E6F6EAB1CEF0DF01EEF0DF06E
:101A380021EF0DF0020E78EF0EF06E511F0B796F4B
:101A48007951D8A42AEF0DF02CEF0DF02EEF0DF000
:101A5800200E796F79513D6E3E6A84C03FF0406A2E
:101A68003FBE40063D503F5C4050800A416E3E50AC
:101A7800800A4158D8A043EF0DF045EF0DF047EF2D
:101A88000DF0C8EF0BF079C084F08451070B816F1B
:101A98008405070B666F8151D8A455EF0DF059EFF7
:101AA8000DF03D6A3D2A5AEF0DF03D6A0001845160
:101AB800036E046A03BE0406000E066E080E056E69
:101AC80010EC39F003503D243E6E3E280001836F30
:101AD80066C03DF0010E3E6E3D2A75EF0DF0D890C0
:101AE8003E363D2E73EF0DF0700E00018325D96E42
:101AF800DA6A000EDA223E50DF129DEF0DF08251B5
:101B0800D8B489EF0DF08BEF0DF08DEF0DF0A8EF45
:101B18000CF08451800A600FD8A095EF0DF097EF74
:101B28000DF09BEF0DF0010E686F9DEF0DF0200E8C
:101B3800846F6851D8B4A3EF0DF0A5EF0DF081EFD5
:101B48000CF0880E7219D8B4ACEF0DF0AEEF0DF0B2
:101B5800B4EF0DF0000E636F020E626FB8EF0DF078
:101B6800000E636F030E626F62C083F0880E7219F5
:101B7800D8B4C1EF0DF0C3EF0DF0C9EF0DF0000EB2
:101B8800656F040E646FCDEF0DF0000E656F030EE8
:101B9800646F64C07DF0000E816FEEEF0DF0700E83
:101BA8008325D96EDA6A000EDA227B513A243D6E1B
:101BB800000E3B203E6E81513D26000E3E22010E56
:101BC8003D24E16E000E3E20E26E6F007FFFE7FFCE
:101BD800832B812B7D51815DD8A0F5EF0DF0F7EFB8
:101BE8000DF0D3EF0DF0030E7C19D8A4FEEF0DF025
:101BF80000EF0EF008EF0EF08051D8B406EF0EF0AB
:101C080008EF0EF00BEF0EF0010E78EF0EF07EC02D
:101C180009F07FC00AF0010E0B6E720E0C6E000EFA
:101C28000D6E8CEC3AF00001826F8251D8B41FEF30
:101C38000EF021EF0EF023EF0EF0A8EF0CF020EEDF
:101C480001F07E51D9267F51DA22DE507219D8A4CC
:101C580030EF0EF032EF0EF041EF0EF020EE02F012
:101C68007E51D9267F51DA22DE507319D8B43FEF5E
:101C78000EF041EF0EF044EF0EF0070E78EF0EF085
:101C88006000FBF1D9FF6000FFF1DAFFDFA44FEF3E
:101C98000EF051EF0EF054EF0EF06F2B65EF0EF0D3
:101CA800010E676F6000FBF1D9FF6000FFF1DAFFFA
:101CB80010EE0BF03A50E1263B50E2226F007FFF16
:101CC800E7FF6751D8B46BEF0EF06DEF0EF0CBEF76
:101CD8000BF06F51030DF3286000EBF0D9FF6000A3
:101CE800EFF0DAFFDF6E000E120001012651271116
:101CF800D8A481EF0EF083EF0EF0A3EF0EF0000EE4
:101D0800276F140E266FE8C0E7F1CF0E00017B6F36
:101D1800010E7C6F050E7D6F180E7E6FFF0E7F6FB4
:101D2800160E806FE70E816F010E826F010E836FB2
:101D380000EC37F0010E0101CA6FC1EF10F0245119
:101D48002511D8A4AAEF0EF0ACEF0EF0C9EF0EF0F3
:101D5800000E256F140E246FE9C0E7F1CF0E0001C5
:101D68007B6F010E7C6F060E7D6F180E7E6FFF0E67
:101D78007F6F160E806FE70E816F010E826F010E66
:101D8800836F00EC37F09EEF0EF028512911D8A48C
:101D9800D0EF0EF0D2EF0EF0EFEF0EF0000E296F3D
:101DA800140E286FC4C1E7F1CF0E00017B6F010E3E
:101DB8007C6F050E7D6F200E7E6FFF0E7F6F160EF7
:101DC800806FE70E816F010E826F010E836F00EC4A
:101DD80037F09EEF0EF02C512D11D8A4F6EF0EF02F
:101DE800F8EF0EF017EF0FF0000E2D6F140E2C6F9A
:101DF8008251E76F81C1E8F1CF0E00017B6F010EC0
:101E08007C6F070E7D6F170E7E6FFF0E7F6F160EAD
:101E1800806FE70E816F010E826F020E836F00ECF8
:101E280037F09EEF0EF02A512B11D8A41EEF0FF0B9
:101E380020EF0FF03FEF0FF0000E2B6F140E2A6FFC
:101E48008451E76F83C1E8F1CF0E00017B6F010E6B
:101E58007C6F040E7D6F170E7E6FFF0E7F6F160E60
:101E6800806FE70E816F010E826F020E836F00ECA8
:101E780037F09EEF0EF02E512F11D8A446EF0FF039
:101E880048EF0FF065EF0FF0000E2F6F140E2E6F56
:101E98007FC1E7F1CF0E00017B6F010E7C6F040E4E
:101EA8007D6F190E7E6FFF0E7F6F160E806FE70E27
:101EB800816F010E826F010E836F00EC37F09EEF89
:101EC8000EF032513311D8A46CEF0FF06EEF0FF013
:101ED800A3EF0FF0000E336F0A0E326FC651D8A46D
:101EE80078EF0FF07AEF0FF080EF0FF0000E336FFE
:101EF800960E326F51EF11F03FC1E7F1CDC0E8F116
:101F0800CCC0E9F1CBC0EAF1CAC0EBF1C5C1ECF134
:101F1800CF0E00017B6F010E7C6F000E7D6F500E9F
:101F28007E6FF80E7F6F160E806FE70E816F010EC1
:101F3800826F060E836F00EC37F09EEF0EF0305183
:101F48003111D8A4AAEF0FF0ACEF0FF05BEF10F04F
:101F5800000E316F140E306FDAC0E7F1D9C0E8F126
:101F6800D8C0E9F1D3C0B7F0D4C0B8F0D5C0B9F043
:101F7800D6C0BAF0D7C0BBF0D8C0BCF0D9C0BDF04D
:101F8800DAC0BEF0210ED3EF0FF00001D890BE33B7
:101F9800BD33BC33BB33BA33B933B833B733E82EA8
:101FA800C9EF0FF0B7510101EA6FD3C0B7F0D4C041
:101FB800B8F0D5C0B9F0D6C0BAF0D7C0BBF0D8C019
:101FC800BCF0D9C0BDF0DAC0BEF0190EF6EF0FF0C4
:101FD8000001D890BE33BD33BC33BB33BA33B933F9
:101FE800B833B733E82EECEF0FF0B7510101EB6FC0
:101FF800D3C0B7F0D4C0B8F0D5C0B9F0D6C0BAF0E5
:10200800D7C0BBF0D8C0BCF0D9C0BDF0DAC0BEF0B4
:10201800110E19EF10F00001D890BE33BD33BC3358
:10202800BB33BA33B933B833B733E82E0FEF10F0F8
:10203800B7510101EC6FD3C0B7F0D4C0B8F0D5C028
:10204800B9F0D6C0BAF0D7C0BBF0D8C0BCF0D9C080
:10205800BDF0DAC0BEF0B8C0B7F0B9C0B8F0BAC0C9
:10206800B9F0BBC0BAF0BCC0BBF0BDC0BCF0BEC0CC
:10207800BDF00001BE6BB7510101ED6FD3C0EEF1A9
:10208800CF0E00017B6F010E7C6F010E7D6F500E2D
:102098007E6FF80E7F6F160E806FE70E816F010E50
:1020A800826F080E836F00EC37F09EEF0EF036510A
:1020B8003711D8A462EF10F064EF10F08DEF10F034
:1020C800000E376F640E366F010E3A27000E3B2361
:1020D8003C233D233DC1E7F13CC1E8F13BC1E9F1B7
:1020E8003AC1EAF1CF0E00017B6F010E7C6F000E42
:1020F8007D6F300E7E6FF80E7F6F160E806FE70EC5
:10210800816F010E826F040E836F00EC37F09EEF33
:102118000EF038513911D8A494EF10F096EF10F062
:10212800C1EF10F0000E396F140E386F000EE76F14
:10213800E1C0E8F1E0C0E9F1DFC0EAF1DEC0EBF1AF
:10214800DDC0ECF1DCC0EDF1DBC0EEF1CF0E00013B
:102158007B6F010E7C6F030E7D6F600E7E6FF80E35
:102168007F6F160E806FE70E816F010E826F080E6B
:10217800836F00EC37F09EEF0EF052EC48F0E80663
:10218800D8B4C9EF10F0CBEF10F0D5EF10F045EC54
:1021980048F0E806D8A4D3EF10F0D5EF10F0EDEF33
:1021A80010F00001F4510101BF19D8B4DEEF10F0AE
:1021B800E0EF10F051EF11F0F4C0BFF1D8EC37F0B8
:1021C8003C0E00016D6FF30E6E6F27EC47F051EF78
:1021D80011F00101CA05D8A4F4EF10F0F6EF10F0E1
:1021E80007EF11F0CF0E156E010E166E42EC1DF0C2
:1021F800E806D8A402EF11F004EF11F007EF11F090
:10220800000E0101CA6FFEEC46F00009D8B40FEFCA
:1022180011F011EF11F02BEF11F0410E166E020EB6
:10222800176EC7EC24F0E806D8A41DEF11F01FEFD5
:1022380011F026EF11F0410E0001886F020E896F30
:102248000FEC00F0020E0101356F580E346F0101DA
:1022580034513511D8A433EF11F035EF11F051EFA7
:1022680011F0C50E00016D6FF90E6E6F27EC47F087
:10227800650E00016D6FF90E6E6F27EC47F00B0EBF
:102288000001B86F260EB76F5D0EE82EFED7B72F88
:10229800FCD7B82FFAD700D0FF0012000001BF0505
:1022A800D8A459EF11F05BEF11F05FEF11F00101C5
:1022B800848D61EF11F00101849D0001F205D8A41D
:1022C80068EF11F06AEF11F08FEF11F001018F51F3
:1022D8009011D8A472EF11F074EF11F08FEF11F094
:1022E800000E906F0A0E8F6F3CEC3EF00009D8A4E8
:1022F80080EF11F082EF11F08DEF11F0010183856D
:102308006F0E00016D6FFC0E6E6F27EC47F08FEFBC
:1023180011F00101839501013F05D8A496EF11F052
:1023280098EF11F019EF12F00001D351D411D51123
:10233800D611D711D811D911DA11D8A4A6EF11F0F6
:10234800A9EF11F0010EAAEF11F0000E806FC0C0C6
:1023580081F081510101BC19D8A4B5EF11F0B7EF94
:1023680011F0C2EF11F0000180510101BD19D8B47C
:10237800C0EF11F0C2EF11F0CBEF11F081C0BCF14A
:1023880080C0BDF1000E0001EB6F000EEC6F000184
:10239800EB05D8A4D2EF11F0D4EF11F01BEF12F037
:1023A800EC05D8A4DAEF11F0DCEF11F01BEF12F016
:1023B800C005D8A4E2EF11F0E4EF11F0F7EF11F047
:1023C800D351D411D511D611D711D811D911DA1189
:1023D800D8A4F1EF11F0F3EF11F0F7EF11F00101CC
:1023E8008187F9EF11F0010181970001C051D8A44C
:1023F80000EF12F002EF12F015EF12F0D351D411E2
:10240800D511D611D711D811D911DA11D8B40FEFC7
:1024180012F011EF12F015EF12F0010183831BEF98
:1024280012F0010183931BEF12F083938197020E40
:102438000001D019D8B423EF12F025EF12F034EFD1
:1024480012F0030ED019D8B42CEF12F02EEF12F0C0
:1024580034EF12F00101849F839F839B839D8399AE
:10246800000E00017F6F020ED019D8A43EEF12F0C3
:1024780040EF12F06EEF12F00101555109E11F0E05
:10248800545DD8A04AEF12F04CEF12F06EEF12F044
:10249800E20E54250001826FFF0E01015521000153
:1024A800836F82517B6F83517C6F7D6B7E6B7B5119
:1024B800E25D7C51E3597D51E4597E51E559D8B02C
:1024C80068EF12F06AEF12F06EEF12F0010E7F6FF4
:1024D8006EEF12F000017F05D8B475EF12F077EFB8
:1024E80012F080EF12F0040ED019D8A47EEF12F08B
:1024F80080EF12F015EF13F0000E856F020ECE1963
:10250800D8A489EF12F08BEF12F0CCEF12F0D105BE
:10251800D8A491EF12F094EF12F0010E95EF12F09B
:10252800000E846FD205D8A49CEF12F09FEF12F032
:10253800010EA0EF12F0000E856F8405D8A4A7EF56
:1025480012F0A9EF12F0B5EF12F08505D8A4AFEF9D
:1025580012F0B1EF12F0B5EF12F00101848F15EF10
:1025680013F08405D8A4BBEF12F0BDEF12F0BFEF53
:1025780012F00101838D00018505D8A4C6EF12F081
:10258800C8EF12F015EF13F00101838915EF13F06E
:10259800CE05D8A4D2EF12F0D4EF12F015EF13F055
:1025A800020ED119D8A4DBEF12F0DEEF12F0010E03
:1025B800DFEF12F0000E846F020ED219D8A4E7EFF5
:1025C80012F0EAEF12F0010EEBEF12F0000E856F39
:1025D8008405D8A4F2EF12F0F4EF12F0FEEF12F037
:1025E8008505D8A4FAEF12F0FCEF12F0FEEF12F016
:1025F800B1EF12F08405D8A404EF13F006EF13F03E
:1026080008EF13F00101838F00018505D8A40FEFAF
:1026180013F011EF13F015EF13F00101838B15EF91
:1026280013F0010183518411D8A41DEF13F01FEF9B
:1026380013F028EF13F081518211D8B426EF13F06C
:1026480028EF13F0B1EF13F0815183110001866F69
:102658000101825184110001876F87AF36EF13F0B3
:1026680038EF13F03FEF13F0000E0101806F5A0EA0
:102678007F6FB5EF13F086A144EF13F046EF13F028
:102688004DEF13F0000E0101806F580E7F6FB5EF0C
:1026980013F086A752EF13F054EF13F05BEF13F02B
:1026A800000E0101806F560E7F6FB5EF13F087ADF6
:1026B80060EF13F062EF13F069EF13F0000E010101
:1026C800806F5B0E7F6FB5EF13F086A56EEF13F08A
:1026D80070EF13F077EF13F0000E0101806F570EC3
:1026E8007F6FB5EF13F086AF7CEF13F07EEF13F03A
:1026F80085EF13F0000E0101806F520E7F6FB5EF6A
:1027080013F086AD8AEF13F08CEF13F093EF13F00C
:10271800000E0101806F530E7F6FB5EF13F086AB8B
:1027280098EF13F09AEF13F0A1EF13F0000E0101E8
:10273800806F540E7F6FB5EF13F086A9A6EF13F0E4
:10274800A8EF13F0AFEF13F0000E0101806F550EE4
:102758007F6FB5EF13F0B5EF13F0000E806F000E2A
:102768007F6F12007EEC2BF001013E513F19D8B467
:10277800C0EF13F0C2EF13F0EFEF13F0020E3E19A3
:10278800D8A4C9EF13F0CBEF13F0D6EF13F0000E77
:10279800C86F020E0001EA6F2F0E6D6FF20E6E6F9A
:1027A80027EC47F001013E05D8A4DDEF13F0DFEF79
:1027B80013F0E8EF13F0030E0001EA6F5F0E6D6F80
:1027C800F20E6E6F27EC47F03EC13FF1000E00019C
:1027D800EB6F000EEC6F010199519A11D8A4F7EF35
:1027E80013F0F9EF13F056EF15F03F05D8B4FFEFEB
:1027F80013F001EF14F056EF15F0040E3F19D8B49A
:1028080008EF14F00AEF14F056EF15F0020E3F1916
:10281800D8B411EF14F013EF14F056EF15F00001CF
:10282800EB05D8A41AEF14F01CEF14F056EF15F0CE
:10283800EC05D8A422EF14F024EF14F056EF15F0AD
:102848000101C751D8A42BEF14F02DEF14F06EEF4F
:1028580014F00001C005D8B434EF14F036EF14F0CA
:1028680045EF14F0D351D411D511D611D711D81181
:10287800D911DA11D8B443EF14F045EF14F056EF3C
:1028880015F0010E0101C76F520E00016D6FFE0EAB
:102898006E6FC0C06FF0706BD3C071F0D4C072F0AF
:1028A800D5C073F0D6C074F0D7C075F0D8C076F034
:1028B800D9C077F0DAC078F027EC47F0000E0001B5
:1028C800EB6F000EEC6F010E0101986F2C0E976FE5
:1028D80056EF15F0B651D8A474EF14F076EF14F053
:1028E800ACEF14F00001D105D8A47DEF14F07FEF10
:1028F80014F09EEF14F0D205D8A485EF14F087EFFA
:1029080014F09EEF14F0C051D8B48DEF14F08FEF8F
:1029180014F09EEF14F0D351D411D511D611D7115C
:10292800D811D911DA11D8A49CEF14F09EEF14F045
:10293800FDEF14F0010E0101B66F010EC86F5C0EB9
:1029480000016D6FF80E6E6F27EC47F0FDEF14F085
:102958000001D105D8A4B3EF14F0B5EF14F0E0EFFF
:1029680014F0D205D8A4BBEF14F0BDEF14F0E0EFDB
:1029780014F0C005D8A4C3EF14F0C5EF14F0E0EFCD
:1029880014F0D351D411D511D611D711D811D911AA
:10299800DA11D8B4D2EF14F0D4EF14F0E0EF14F059
:1029A800000E0101B66F000EC86F650E00016D6F55
:1029B800FA0E6E6F27EC47F00001C051D8A4E7EF7C
:1029C80014F0E9EF14F0FDEF14F0D351D411D51140
:1029D800D611D711D811D911DA11D8A4F6EF14F0FD
:1029E800F8EF14F0FDEF14F0000E0101986F000EDF
:1029F800976F0101B651D8B404EF15F006EF15F042
:102A08000FEF15F097519811D8A40DEF15F00FEFAF
:102A180015F056EF15F0000EB66F000E986F000E09
:102A2800976F000EC76F0001D351D411D511D6117D
:102A3800D711D811D911DA11D8A425EF15F027EF3D
:102A480015F03BEF15F0C051D8A42DEF15F02FEF7E
:102A580015F03BEF15F0000E0101C86FE10E000103
:102A68006D6FF80E6E6F27EC47F056EF15F0010109
:102A78005651D4EC46F0010E01013E6F050E0001DF
:102A8800E619D8A44AEF15F04CEF15F04EEF15F003
:102A9800020EE66F850E6D6FF90E6E6F27EC47F02C
:102AA80056EF15F0020E01013F19D8A45EEF15F09C
:102AB80060EF15F062EF15F0000EC76F050E4019B4
:102AC800D8A469EF15F06BEF15F06EEF15F0C56936
:102AD800DEEF15F0000EC56FDEEF15F0020E0101F6
:102AE8003F19D8A47AEF15F07CEF15F000EF16F037
:102AF8000001C051D8A483EF15F085EF15F0A8EFB9
:102B080015F0D351D411D511D611D711D811D91127
:102B1800DA11D8A492EF15F094EF15F0A8EF15F09C
:102B2800000EEB6F000EEC6F000E01019A6F640E41
:102B3800996F030E3E6FF60E00016D6FF70E6E6F04
:102B480027EC47F000EF16F0010199519A11D8A42B
:102B5800B0EF15F0B2EF15F0B6EF15F0010E3E6FBD
:102B680000EF16F000EF16F0020E01013F19D8A48D
:102B7800C0EF15F0C2EF15F000EF16F0030E3E6F30
:102B880000EF16F0F4510101B519D8B4CEEF15F0E5
:102B9800D0EF15F000EF16F0F4C0B5F15B0E0001B0
:102BA8006D6FF40E6E6FE6C06FF0706B27EC47F038
:102BB80000EF16F00001E6517D6F7E6B7E51000A32
:102BC800D8B4E9EF15F0C6EF15F07D51010AD8B475
:102BD800B8EF15F0030AD8B472EF15F0010AD8B4AB
:102BE80072EF15F0070AD8B472EF15F0010AD8B4DD
:102BF800B8EF15F0C6EF15F012003901A39F5B502E
:102C0800B76E60006BF1B6FF0101F351F411D8B44F
:102C180010EF16F012EF16F01EEF16F002D81EEFA6
:102C280016F00500FA6EF351FD6EF451FE6EFF6A60
:102C3800FA5012000101A751A811D8B426EF16F0D6
:102C480028EF16F02BEF16F0A707D8A0A807A55174
:102C5800A611D8B432EF16F034EF16F037EF16F0AD
:102C6800A507D8A0A607A351A411D8B43EEF16F023
:102C780040EF16F043EF16F0A307D8A0A407A15120
:102C8800A211D8B44AEF16F04CEF16F04FEF16F039
:102C9800A107D8A0A2079F51A011D8B456EF16F0EB
:102CA80058EF16F05BEF16F09F07D8A0A0079D51CC
:102CB8009E11D8B462EF16F064EF16F067EF16F0C5
:102CC8009D07D8A09E079B519C11D8B46EEF16F0B3
:102CD80070EF16F073EF16F09B07D8A09C07995178
:102CE8009A11D8B47AEF16F07CEF16F07FEF16F051
:102CF8009907D8A09A0797519811D8B486EF16F07B
:102D080088EF16F08BEF16F09707D8A09807955123
:102D18009611D8B492EF16F094EF16F097EF16F0DC
:102D28009507D8A0960793519411D8B49EEF16F042
:102D3800A0EF16F0A3EF16F09307D8A094079151CF
:102D48009211D8B4AAEF16F0ACEF16F0AFEF16F068
:102D58009107D8A092078F519011D8B4B6EF16F00A
:102D6800B8EF16F0BBEF16F08F07D8A09007000158
:102D7800E251E311E411E511D8B4C5EF16F0C7EF3D
:102D880016F0CCEF16F0E207000EE35BE45BE55BC0
:102D980001018D518E11D8B4D4EF16F0D6EF16F08C
:102DA800D9EF16F08D07D8A08E078B518C11D8B4A7
:102DB800E0EF16F0E2EF16F0E5EF16F08B07D8A07B
:102DC8008C0789518A11D8B4ECEF16F0EEEF16F0A3
:102DD800F1EF16F08907D8A08A0787518811D8B46F
:102DE800F8EF16F0FAEF16F0FDEF16F08707D8A007
:102DF800880724512511D8B404EF17F006EF17F00F
:102E080009EF17F02407D8A0250726512711D8B4B1
:102E180010EF17F012EF17F015EF17F02607D8A0EC
:102E2800270728512911D8B41CEF17F01EEF17F007
:102E380021EF17F02807D8A0290736513711D8B441
:102E480028EF17F02AEF17F02DEF17F03607D8A064
:102E580037072C512D11D8B434EF17F036EF17F08F
:102E680039EF17F02C07D8A02D072A512B11D8B409
:102E780040EF17F042EF17F045EF17F02A07D8A0F8
:102E88002B072E512F11D8B44CEF17F04EEF17F037
:102E980051EF17F02E07D8A02F0730513111D8B4B1
:102EA80058EF17F05AEF17F05DEF17F03007D8A07A
:102EB800310732513311D8B464EF17F066EF17F0C9
:102EC80069EF17F03207D8A0330738513911D8B451
:102ED80070EF17F072EF17F075EF17F03807D8A0FA
:102EE800390734513511D8B47CEF17F07EEF17F05D
:102EF80081EF17F03407D8A0350757515811D8B4C7
:102F080088EF17F08AEF17F08DEF17F05707D8A062
:102F1800580759515A11D8B494EF17F096EF17F093
:102F280099EF17F05907D8A05A075B515C11D8B42C
:102F3800A0EF17F0A2EF17F0A5EF17F05B07D8A0E6
:102F48005C075D515E11D8B4ACEF17F0AEEF17F027
:102F5800B1EF17F05D07D8A05E075F516011D8B4D4
:102F6800B8EF17F0BAEF17F0BDEF17F05F07D8A06A
:102F7800600761516211D8B4C4EF17F0C6EF17F0BB
:102F8800C9EF17F06107D8A062070001F551D8B45E
:102F9800D0EF17F0D3EF17F0010ED4EF17F0000EB3
:102FA800F56F0101CE51D8A4DCEF17F0DEEF17F072
:102FB800EEEF17F0090ECE6F0001F451D8B4E7EF29
:102FC80017F0EAEF17F0010EEBEF17F0000EF46FB1
:102FD800EFEF17F0CE0712001450800B216E14503B
:102FE8001424286E13AEFBEF17F0FDEF17F0FEEF79
:102FF80017F028802850D8B404EF18F006EF18F01E
:103008001BEF18F02828D8A40CEF18F00EEF18F0D2
:1030180016EF18F0000E116E000E126E000E136EF1
:10302800000E146E138E000E146E23EF18F0000EAF
:10303800116E000E126E000E136E000E146E1850F4
:10304800800B211A18501824296E17AE2EEF18F08D
:1030580030EF18F031EF18F029802950D8B437EF45
:1030680018F039EF18F04EEF18F02928D8A43FEFE0
:1030780018F041EF18F049EF18F0000E156E000E29
:10308800166E000E176E000E186E178E000E186E54
:1030980056EF18F0000E156E000E166E000E176E25
:1030A800000E186E1550161017101810D8A45FEFE0
:1030B80018F061EF18F079EF18F0000E116E000E9D
:1030C800126E000E136E000E146E800E13127F0E19
:1030D80014122150141211C011F012C012F013C0B2
:1030E80013F014C014F0BCEF19F02850D8A47FEFE7
:1030F80018F081EF18F08BEF18F0000E116E000E2B
:10310800126E000E136E000E146EBCEF19F02950EB
:1031180028C019F01A6A195E000E1A5A7F0E19246F
:10312800226E000E1A20236E11C01DF012C01EF070
:1031380013C01FF014C020F0000E116E000E126EA6
:10314800000E136E000E146E000E246E000E256E17
:10315800000E266E000E276E000E296EECEF18F09A
:103168002950D8B4BAEF18F0BCEF18F0D3EF18F024
:10317800D8901D361E361F362036D8901136123696
:103188001336143627AECBEF18F0CDEF18F0CEEF8C
:1031980018F01180D8902436253626362736155053
:1031A8001D5C16501E5817501F5818502058D8A08C
:1031B800E0EF18F0E2EF18F0EBEF18F0278C15505D
:1031C8001D5E16501E5A17501F5A1850205A292A89
:1031D800190E2964F2EF18F0F4EF18F0B4EF18F0B4
:1031E8001D501E101F102010D8B4FDEF18F0FFEF6F
:1031F80018F017EF19F0248017EF19F0D89011364E
:1032080012361336143627AE0CEF19F00EEF19F0FC
:103218000FEF19F01180D890243625362636273638
:103228002206D8A0230613AE1CEF19F01EEF19F0E2
:1032380002EF19F0000E296E27AE25EF19F027EFDF
:1032480019F04BEF19F0FF0E2414196EFF0E251418
:103258001A6EFF0E26141B6E7F0E27141C6E195053
:103268001A101B101C10D8B43CEF19F03EEF19F0DF
:1032780042EF19F0010E296E4BEF19F011A047EF3C
:1032880019F049EF19F04BEF19F03EEF19F02950FA
:10329800D8B451EF19F053EF19F077EF19F0010E88
:1032A8001126000E12221322142214A05EEF19F028
:1032B80060EF19F077EF19F011C019F012C01AF089
:1032C80013C01BF014C01CF01C341C321B321A3201
:1032D800193219C011F01AC012F01BC013F01CC02B
:1032E80014F0224A232A23BE82EF19F0235008E162
:1032F8002228D8A082EF19F084EF19F08FEF19F087
:10330800000E236E2268000E116E000E126E000E63
:10331800136E000E146E23BE9CEF19F0235006E1C5
:103328002204D8B09AEF19F09CEF19F0AAEF19F01F
:10333800000E236E000E226E000E116E000E126E2D
:10334800000E136E000E146E000E216E22C028F0BF
:1033580028A0B1EF19F0B3EF19F0B6EF19F0138EFA
:10336800B7EF19F0139ED8902830146E6DEF18F04F
:103378001200000E0001886F20EE8BF0070EDE6A47
:10338800E806FDE2F005D8A4CCEF19F0CEEF19F06D
:1033980004EF1AF0020ED019D8B4D5EF19F0D7EF10
:1033A80019F004EF1AF0030ED019D8B4DEEF19F0B3
:1033B800E0EF19F004EF1AF00101B251D8A4E7EFD9
:1033C80019F0E9EF19F007EF1AF0B051D8A4EFEFB0
:1033D80019F0F1EF19F0F7EF19F0010EB06F000EC8
:1033E800886F030E876F87518811D8A4FEEF19F0F4
:1033F80000EF1AF004EF1AF0010EB26F35EC3AF054
:10340800000E82EF1BF0AF51D8A40DEF1AF00FEFAA
:103418001AF015EF1AF0010EAF6F000E8C6F140E34
:103428008B6F0001F5510101B119D8B41EEF1AF0E4
:1034380020EF1AF03BEF1BF0F5C0B1F1D3EC41F0EF
:103448000009D8B42AEF1AF02CEF1AF03BEF1BF062
:1034580013EC47F00009D8B434EF1AF036EF1AF03D
:103468003BEF1BF0000E00018A6F000E896F6FEFB3
:103478001AF0500E8925D96E020E8A21DA6EDF50B5
:10348800856F85518B13FF0E02014F250001856F53
:10349800866BFF0E86238551895D8A51800A876F66
:1034A8008651800A8759D8B05CEF1AF05EEF1AF09F
:1034B8006DEF1AF091C092F090C091F08FC090F02B
:1034C8008EC08FF08DC08EF08CC08DF08BC08CF0CC
:1034D8008B6B894B8A2B02014F510001856F866BDC
:1034E8008551895D8A51800A876F8651800A87597C
:1034F800D8A081EF1AF083EF1AF03DEF1AF08B5144
:10350800D31919E18C51D41916E18D51D51913E14C
:103518008E51D61910E18F51D7190DE19051D81954
:103528000AE19151D91907E19251DA19D8A49FEF0C
:103538001AF0A1EF1AF0A3EF1AF0010E886F01013B
:103548006D5100018B1927E101016E5100018C19A1
:1035580022E101016F5100018D191DE10101705136
:1035680000018E1918E10101715100018F1913E151
:1035780001017251000190190EE10101735100011E
:10358800911909E10101745100019219D8A4CFEFF2
:103598001AF0D1EF1AF026EF1BF0020E0101AE650A
:1035A800D8EF1AF0DAEF1AF023EF1BF0010E000142
:1035B800886F8B51D3191BE18C51D41918E18D51A7
:1035C800D51915E18E51D61912E18F51D7190FE18E
:1035D8009051D8190CE19151D91909E19251DA1990
:1035E800D8B4F9EF1AF0FBEF1AF03BEF1BF08BC0E1
:1035F800D3F08CC0D4F08DC0D5F08EC0D6F08FC07B
:10360800D7F090C0D8F091C0D9F092C0DAF03A0E55
:103618006D6FF80E6E6F8BC06FF08CC070F08DC040
:1036280071F08EC072F08FC073F090C074F091C0CA
:1036380075F092C076F027EC47F03BEF1BF0AE2B0D
:103648003BEF1BF0000E0101AE6F8BC06DF18CC01B
:103658006EF18DC06FF18EC070F18FC071F190C0A6
:1036680072F191C073F192C074F13BEF1BF000014D
:103678008805D8B442EF1BF044EF1BF04EEF1BF067
:1036880001018B518C11D8A44CEF1BF04EEF1BF0AD
:1036980004EF1AF0000E0101B26F000EB06F000EB9
:1036A800AF6FFC0E036E000E046E040E056E91ECF7
:1036B80048F00001D351D411D511D611D711D81122
:1036C800D911DA11D8B46BEF1BF06DEF1BF081EF55
:1036D8001BF08851D8A473EF1BF075EF1BF081EF36
:1036E8001BF020EED3F0070EDE6AE806FDE2CB0EF3
:1036F8006D6FFB0E6E6F27EC47F0010E1200000E87
:1037080000017D6F000E806F030EE619D8B48FEFAD
:103718001BF091EF1BF0A3EF1BF0020EE619D8B4D3
:1037280098EF1BF09AEF1BF0A3EF1BF0040EE619BD
:10373800D8A4A1EF1BF0A3EF1BF0C2EF1BF0020E01
:1037480001013F19D8B4ABEF1BF0ADEF1BF0C2EF8E
:103758001BF0C905D8A4B3EF1BF0B5EF1BF0C4EFFD
:103768001BF0010E00017D6F8081E981BB0E6D6F3A
:10377800F20E6E6F27EC47F0C4EF1BF00001E991E1
:10378800000E0101C96F0001EB51D8B4CEEF1BF058
:10379800D0EF1BF041EF1DF0EC51D8A4D6EF1BF091
:1037A800D8EF1BF0DCEF1BF041EF1DF041EF1DF0EF
:1037B800C105D8A4E2EF1BF0E4EF1BF0E9EF1BF022
:1037C800010E806F010E7D6FE885D005D8A4EFEF5C
:1037D8001BF0F1EF1BF068EF1CF0000E7B6F000E82
:1037E8007C6F020ECE19D8A4FCEF1BF0FEEF1BF085
:1037F80012EF1CF0D105D8A404EF1CF006EF1CF062
:103808000EEF1CF0D205D8B40CEF1CF00EEF1CF034
:103818002EEF1CF0010E7C6F2EEF1CF0CE05D8A405
:1038280018EF1CF01AEF1CF02EEF1CF0020ED11945
:10383800D8A421EF1CF023EF1CF02CEF1CF0020E93
:10384800D219D8B42AEF1CF02CEF1CF02EEF1CF084
:10385800010E7B6F7C05D8B434EF1CF036EF1CF0FA
:103868003EEF1CF07B05D8A43CEF1CF03EEF1CF0AB
:103878004FEF1CF00101C051D8A445EF1CF047EFF1
:103888001CF052EF1CF0010EC06F020EA66F580E0E
:10389800A56F52EF1CF0000E0101C06FC005D8A43F
:1038A80058EF1CF05AEF1CF068EF1CF0A551A61158
:1038B800D8A461EF1CF063EF1CF068EF1CF0010E58
:1038C80000017D6F8087E98701013F05D8A46FEF6C
:1038D8001CF071EF1CF08FEF1CF00001C051D8A450
:1038E80078EF1CF07AEF1CF091EF1CF0D351D41153
:1038F800D511D611D711D811D911DA11D8A487EF5B
:103908001CF089EF1CF091EF1CF0010E7D6F808395
:10391800E88391EF1CF00001E8937D05D8A497EFA8
:103928001CF099EF1CF0A8EF1CF00101C151D8A4BC
:10393800A0EF1CF0A2EF1CF0A8EF1CF0010EC16F65
:1039480052C1A7F153C1A8F10101C105D8A4AFEF35
:103958001CF0B1EF1CF0F7EF1CF0A751A811D8A488
:10396800B8EF1CF0BAEF1CF0F7EF1CF0000EC16FB7
:10397800000180B3C2EF1CF0C4EF1CF0C5EF1CF0CF
:10398800E89380B5CAEF1CF0CCEF1CF0CDEF1CF02B
:10399800E89580B1D2EF1CF0D4EF1CF0D5EF1CF005
:1039A800E99180B7DAEF1CF0DCEF1CF0DDEF1CF0DA
:1039B800E9978051D8A4E3EF1CF0E5EF1CF0EDEF98
:1039C8001CF0A20E6D6FFF0E6E6F27EC47F0F7EF3D
:1039D8001CF052C1A7F153C1A8F1660E6D6FF30E2A
:1039E8006E6F27EC47F00001E951D8A4FEEF1CF0F8
:1039F80000EF1DF008EF1DF0E851D8B406EF1DF0F8
:103A080008EF1DF03EEF1DF0E951E811576E5750D1
:103A18007E6F7F6B7EA313EF1DF015EF1DF01AEF7D
:103A28001DF0010E0101C46F41EF1DF07EA51FEFCF
:103A38001DF021EF1DF026EF1DF0020E0101C46FED
:103A480041EF1DF07EA72BEF1DF02DEF1DF032EF9B
:103A58001DF0030E0101C46F41EF1DF07EA137EF89
:103A68001DF039EF1DF0DAEF1BF0040E0101C46FF1
:103A780041EF1DF0000E0101C46F1200000E186E18
:103A8800000E196E000E1A6E000E1B6E000E176ED9
:103A98003701E0B752EF1DF054EF1DF0DAEF1DF0DB
:103AA80020EE01F01550D9261650DA226F0078FF63
:103AB80003F06F0078FF04F06F0078FF05F06F00E7
:103AC80078FF06F0600057F0D9FF60005BF0DAFF7E
:103AD800DF50076E180E086E000E096E190E0A6E7A
:103AE800000E0B6E1A0E0C6E000E0D6E1B0E0E6E77
:103AF800000E0F6E4CEC2CF0600063F0E3F76000F2
:103B080067F0E4F760006BF0E1F760006FF0E2F750
:103B180020EE05F01550D9261650DA22DF5037016D
:103B2800E56F20EE06F01550D9261650DA22DF5040
:103B3800E66F20EE07F01550D9261650DA22DF502E
:103B4800E76F20EE08F01550D9261650DA22DF501C
:103B5800E86F20EE09F01550D9261650DA22DF500A
:103B6800E96F20EE0AF01550D9261650DA22DF50F8
:103B7800EA6F20EE0BF01550D9261650DA22DF50E6
:103B8800EB6F20EE0CF01550D9261650DA22DF50D4
:103B9800EC6F20EE0DF01550D9261650DA22DF50C2
:103BA800ED6FE087010E176EF0EF1EF0D0B7DFEF74
:103BB8001DF0E1EF1DF065EF1EF020EE01F015504D
:103BC800D9261650DA226F0078FF03F06F0078FFCD
:103BD80004F06F0078FF05F06F0078FF06F06000D2
:103BE80057F0D9FF60005BF0DAFFDF50076E180E60
:103BF800086E000E096E190E0A6E000E0B6E1A0E74
:103C08000C6E000E0D6E1B0E0E6E000E0F6E4CEC41
:103C18002CF0600063F0D3F7600067F0D4F7600021
:103C28006BF0D1F760006FF0D2F720EE05F0155079
:103C3800D9261650DA22DF503701D56F20EE06F06C
:103C48001550D9261650DA22DF50D66F20EE07F02D
:103C58001550D9261650DA22DF50D76F20EE08F01B
:103C68001550D9261650DA22DF50D86F20EE09F009
:103C78001550D9261650DA22DF50D96F20EE0AF0F7
:103C88001550D9261650DA22DF50DA6F20EE0BF0E5
:103C98001550D9261650DA22DF50DB6F20EE0CF0D3
:103CA8001550D9261650DA22DF50DC6F20EE0DF0C1
:103CB8001550D9261650DA22DF50DD6FD087D6EF9F
:103CC8001DF0C0B76AEF1EF06CEF1EF0F0EF1EF0AB
:103CD80020EE01F01550D9261650DA226F0078FF31
:103CE80003F06F0078FF04F06F0078FF05F06F00B5
:103CF80078FF06F0600057F0D9FF60005BF0DAFF4C
:103D0800DF50076E180E086E000E096E190E0A6E47
:103D1800000E0B6E1A0E0C6E000E0D6E1B0E0E6E44
:103D2800000E0F6E4CEC2CF0600063F0C3F76000DF
:103D380067F0C4F760006BF0C1F760006FF0C2F77E
:103D480020EE05F01550D9261650DA22DF5037013B
:103D5800C56F20EE06F01550D9261650DA22DF502E
:103D6800C66F20EE07F01550D9261650DA22DF501C
:103D7800C76F20EE08F01550D9261650DA22DF500A
:103D8800C86F20EE09F01550D9261650DA22DF50F8
:103D9800C96F20EE0AF01550D9261650DA22DF50E6
:103DA800CA6F20EE0BF01550D9261650DA22DF50D4
:103DB800CB6F20EE0CF01550D9261650DA22DF50C2
:103DC800CC6F20EE0DF01550D9261650DA22DF50B0
:103DD800CD6FC087D6EF1DF017501200276E19500F
:103DE8001A10D8A4FAEF1EF0FCEF1EF002EF1FF035
:103DF800000E226E000E216E0DEF1FF0600067F0BE
:103E0800D9FF60006BF0DAFFDF501D6E1D50216E88
:103E1800226A21C023F01B50100DF3502324246E76
:103E2800000E046E010EDCEC47F07F0E046E040EEB
:103E3800DCEC47F0800E046E0A0EDCEC47F014C090
:103E480004F012C005F013C006F0090EB2EC44F0FD
:103E580024C004F00D0EDCEC47F027C004F0010E7E
:103E6800DCEC47F00C0E2718D8A43DEF1FF03FEF0D
:103E78001FF044EF1FF0800E066E0D0E85EC48F023
:103E8800070E2C6ED00E2B6E040EA9EC47F0286E90
:103E9800640E2818D8A453EF1FF055EF1FF057EF02
:103EA8001FF06DEF1FF028A05CEF1FF05EEF1FF012
:103EB80061EF1FF0030E92EF20F02B06D8A02C061E
:103EC8002B502C10D8A46BEF1FF06DEF1FF048EFAC
:103ED8001FF02B502C10D8A474EF1FF076EF1FF0B2
:103EE80078EF1FF05EEF1FF0060EA9EC47F0296E81
:103EF80029C01DF0130E1D16D8B485EF1FF087EFEB
:103F08001FF08AEF1FF0010E92EF20F0000E2E6EC8
:103F180015501610D8B493EF1FF095EF1FF0DFEF90
:103F28001FF017501810D8B49CEF1FF09EEF1FF029
:103F3800DFEF1FF00A0EA9EC47F02D6E60005FF06E
:103F4800D9FF600063F0DAFF2D50DE5CD8B0AFEF28
:103F58001FF0B1EF1FF0B4EF1FF0040E92EF20F046
:103F680060005FF0D9FF600063F0DAFF6000B7F02F
:103F7800DFFF2DC004F015C005F016C006F01BC009
:103F880007F0090E44EC35F00C0EA9EC47F0070BCE
:103F98002E6E19501A10D8B4D4EF1FF0D6EF1FF0B8
:103FA800DFEF1FF0600067F0D9FF60006BF0DAFF09
:103FB8006000BBF0DFFF29A6E4EF1FF0E6EF1FF07B
:103FC800E9EF1FF0020E92EF20F015501610D8B44A
:103FD800F0EF1FF0F2EF1FF091EF20F017501810DC
:103FE800D8B4F9EF1FF0FBEF1FF091EF20F01C5051
:103FF800D8B401EF20F003EF20F091EF20F060003B
:104008005FF0D9FF600063F0DAFFDE04D8A40FEF99
:1040180020F011EF20F01DEF20F0040E2E18D8A488
:1040280018EF20F01AEF20F01DEF20F0FF0E92EFAE
:1040380020F060005FF0D9FF600063F0DAFF010E46
:10404800DF6429EF20F02BEF20F033EF20F02E5023
:10405800D8B431EF20F033EF20F036EF20F0070E20
:1040680092EF20F015C009F016C00AF060005FF06A
:10407800D9FF600063F0DAFFDF50FE0F0B6E250EEC
:104088000C6E000E0D6E8CEC3AF02A6E2A50D8B4E5
:1040980050EF20F052EF20F055EF20F02A5092EF29
:1040A80020F060005FF0D9FF600063F0DAFFDF50B6
:1040B8001D6E1D5015241E6E000E16201F6EFE0E5E
:1040C8001E24D96EFF0E1F20DA6E2550DE18D8A4E4
:1040D80070EF20F072EF20F033EF20F060005FF017
:1040E800D9FF600063F0DAFFDF501D6E1D50152404
:1040F8001E6E000E16201F6EFF0E1E24D96EFF0EB8
:104108001F20DA6E2650DE18D8B48DEF20F08FEF1E
:1041180020F091EF20F033EF20F0000E12000001A4
:10412800EA05D8B49AEF20F09CEF20F008EF21F0D0
:10413800FC0E036E000E046E400E056E26EC49F070
:10414800FB0E036E000E046E400E056E26EC49F061
:104158000001F005D8A4B3EF20F0B5EF20F008EF88
:1041680021F0EF05D8A4BBEF20F0BDEF20F008EF59
:1041780021F0020EEA19D8A4C4EF20F0C6EF20F00F
:10418800EAEF20F03FEC44F0040E01013F19D8A4F7
:10419800D0EF20F0D2EF20F0DDEF20F01E0E00016E
:1041A800E26F000EE36F000EE46F000EE56FE4EFC0
:1041B80020F054C1E2F055C1E3F00001E46BE56B77
:1041C800030E6D6FFC0E6E6F27EC47F0030E0001B7
:1041D800EA19D8A4F2EF20F0F4EF20F005EF21F06F
:1041E8009CEC43F01E0E0001E26F000EE36F000E20
:1041F800E46F000EE56F1E0E6D6FFC0E6E6F27EC00
:1042080047F0010E0001EA6FD005D8B40EEF21F097
:1042180010EF21F019EF21F0040ED019D8A417EFF0
:1042280021F019EF21F036EF21F0CE05D8A41FEFC9
:1042380021F021EF21F036EF21F001019A5107E139
:10424800320E995DD8B02BEF21F02DEF21F036EF2B
:1042580021F0030E0001EA6F330E6D6FF40E6E6FDE
:1042680027EC47F0040E0001D019D8A43EEF21F046
:1042780040EF21F060EF21F0020ECE19D8A447EFED
:1042880021F049EF21F060EF21F001019B519C11D1
:10429800D8A451EF21F053EF21F060EF21F0010E87
:1042A8009C6F2C0E9B6F030E0001EA6FFA0E6D6F68
:1042B800F40E6E6F27EC47F00001D005D8B467EF15
:1042C80021F069EF21F003EF22F0040ED019D8B4E1
:1042D80070EF21F072EF21F003EF22F0000E806FF3
:1042E800020ED019D8A47BEF21F07DEF21F087EFE3
:1042F80021F0CF05D8A483EF21F085EF21F087EFD7
:1043080021F0010E806F030ED019D8A48EEF21F092
:1043180090EF21F09BEF21F0020ECF19D8A497EF70
:1043280021F099EF21F09BEF21F0010E806FE2510F
:10433800E311E411E511D8B4A4EF21F0A6EF21F0C0
:10434800AEEF21F08005D8A4ACEF21F0AEEF21F05C
:1043580003EF22F050EC46F000018005D8A4B7EF37
:1043680021F0B9EF21F0BCEF21F0000E0101BB6F85
:10437800FC0E036E000E046E400E056E91EC48F0C4
:10438800FB0E036E000E046E400E056E91EC48F0B5
:104398000001E251E311E411E511D8A4D6EF21F0B0
:1043A800D8EF21F0E2EF21F0040ED06F390E6D6FD7
:1043B800FC0E6E6F27EC47F003EF22F0CF05D8A470
:1043C800E8EF21F0EAEF21F0F2EF21F0850E6D6FB2
:1043D800FA0E6E6F27EC47F003EF22F0020ECF19AA
:1043E800D8A4F9EF21F0FBEF21F003EF22F0A40E9F
:1043F8006D6FFA0E6E6F27EC47F003EF22F0120094
:104408000001F005D8A40BEF22F00DEF22F01BEF0E
:1044180022F0DD0E826F010E836FE0EC2DF00009B3
:10442800D8A419EF22F01BEF22F01EEF22F0000EA5
:1044380065EF23F064C18AF0DEC18BF000018B5177
:104448008A19D8A42AEF22F02DEF22F0010E2EEFC0
:1044580022F0000EC16F63C18AF0DDC18BF08B5171
:104468008A19D8A43AEF22F03DEF22F0010E3EEF70
:1044780022F0000EC06F000E8C6F000E866F000ECB
:104488008D6F000E876F4E0E0101E525156EF80E33
:10449800E621166E61EC45F015C08EF016C08FF05F
:1044A8004E0E0101E325156EF80EE421166E61EC3F
:1044B80045F015C090F016C091F000018FBF70EF65
:1044C80022F08F5107E1650E8E5DD8B06EEF22F0B5
:1044D80070EF22F07EEF22F091BF7CEF22F0915135
:1044E80009E1650E905DD8A07CEF22F07EEF22F006
:1044F80096EF22F06BC103F06CC104F0E5C105F042
:10450800E6C106F0EEEC42F000018C6F69C103F0E1
:104518006AC104F0E3C105F0E4C106F01AEC43F007
:104528000001866F86518C19D8A49DEF22F09FEF69
:1045380022F0A3EF22F0030ED16FB3EF22F08C0527
:10454800D8B4A9EF22F0ABEF22F0AFEF22F0010EC2
:10455800886FB1EF22F0020E886F88C0D1F04E0E3E
:104568000101E125156EF80EE221166E61EC45F0A9
:1045780015C08EF016C08FF04E0E0101DF25156EA6
:10458800F80EE021166E61EC45F015C090F016C0EB
:1045980091F000018FBFDCEF22F08F5107E1650E2B
:1045A8008E5DD8B0DAEF22F0DCEF22F0EAEF22F0ED
:1045B80091BFE8EF22F0915109E1650E905DD8A016
:1045C800E8EF22F0EAEF22F002EF23F067C103F0F0
:1045D80068C104F0E1C105F0E2C106F0EEEC42F07A
:1045E80000018D6F65C103F066C104F0DFC105F0FD
:1045F800E0C106F01AEC43F00001876F87518D196E
:10460800D8A409EF23F00BEF23F00FEF23F0030EEC
:10461800D26F1FEF23F08D05D8B415EF23F017EFF5
:1046280023F01BEF23F0010E896F1DEF23F0020E1C
:10463800896F89C0D2F0020ED119D8A426EF23F0D1
:1046480028EF23F035EF23F0020ED219D8A42FEF6C
:1046580023F031EF23F035EF23F0010ECF6F4BEF4E
:1046680023F0D105D8A43BEF23F03DEF23F049EF29
:1046780023F0D205D8A443EF23F045EF23F049EF08
:1046880023F0020ECF6F4BEF23F0030ECF6FFCBD6C
:1046980050EF23F052EF23F064EF23F0010197511C
:1046A8009811D8A45AEF23F05CEF23F064EF23F0BD
:1046B800FC0E036E000E046E010E056E91EC48F0C0
:1046C800010E12000001D005D8B46DEF23F06FEF92
:1046D80023F07AEF23F0040ED019D8B476EF23F044
:1046E80078EF23F07AEF23F0000EEE6F0101975177
:1046F8009811D8B482EF23F084EF23F087EF23F0EA
:10470800000E0001EE6F0001EE51D8A48EEF23F0E9
:1047180090EF23F09EEF23F0FC0E036E000E046E64
:10472800010E056E26EC49F004EC22F00001EE6F54
:10473800EEC0EBF0ED51D8A4A4EF23F0A6EF23F0E0
:10474800B4EF23F0FC0E036E000E046E040E056E2B
:1047580026EC49F0BDEC19F00001ED6FEDC0ECF06E
:10476800EB05D8A4BAEF23F0BCEF23F0C7EF23F092
:10477800EC05D8A4C2EF23F0C4EF23F0C7EF23F071
:10478800010E0101C66F0001EB51D8A4CEEF23F052
:10479800D0EF23F0DDEF23F0EE05D8A4D6EF23F019
:1047A800D8EF23F0DDEF23F0000E0101926F000E29
:1047B800916F0001EC51D8A4E4EF23F0E6EF23F069
:1047C800F3EF23F0ED05D8A4ECEF23F0EEEF23F0A0
:1047D800F3EF23F0000E0101946F000E936F0101B7
:1047E80091519211D8B4FBEF23F0FDEF23F008EFBD
:1047F80024F093519411D8B404EF24F006EF24F078
:1048080008EF24F0C6EF24F0000E0001976F000EA9
:10481800966F000E996F000E986F0101C705D8B406
:1048280018EF24F01AEF24F01EEF24F03FC195F0A2
:1048380021EF24F0050E0001956F95C040F175EF4A
:1048480024F0000E976F640E966F010E996F2C0E70
:10485800986F010E6D6FFB0E6E6F27EC47F098EFA7
:1048680024F0000E976F0A0E966F000E996F0A0ECD
:10487800986F180E6D6FF80E6E6F27EC47F098EF73
:1048880024F0000E976F0A0E966F000E996F0A0EAD
:10489800986FDD0E6D6FF50E6E6F27EC47F098EF91
:1048A80024F0000E976F0A0E966F000E996F640E33
:1048B800986FE50E6D6FF90E6E6F27EC47F098EF65
:1048C80024F0000E976F0A0E966F000E996F0A0E6D
:1048D800986F440E6D6FF90E6E6F27EC47F098EFE6
:1048E80024F0010140510001936F946B9451000A28
:1048F800D8B481EF24F098EF24F09351010AD8B48A
:1049080025EF24F0030AD8B445EF24F0010AD8B4FF
:1049180055EF24F0070AD8B435EF24F0010AD8B4CB
:1049280065EF24F098EF24F0010191519211D8A479
:10493800A0EF24F0A2EF24F0AFEF24F096C091F19D
:1049480097C092F1000E0001EE6FC30E6D6FFF0E5F
:104958006E6F27EC47F0010193519411D8A4B7EF7B
:1049680024F0B9EF24F0C6EF24F098C093F199C071
:1049780094F1000E0001ED6FB30E6D6FFF0E6E6FB8
:1049880027EC47F01200000E186E80AECEEF24F030
:10499800D0EF24F075EF25F082A6D5EF24F0D7EFFD
:1049A80024F0FFEF24F060005BF0D9FF60005FF0B7
:1049B800DAFF020EDF6E6F0010FE03F06F0004FED8
:1049C80004F06F0008FE05F0835021EC32F020EE71
:1049D80001F01650D9261750DA2260000FF0DEFFDA
:1049E800600013F0DEFF600017F0DEFF60001BF0D0
:1049F800DEFF1FEF25F060005BF0D9FF60005FF07D
:104A0800DAFF010EDF6E6F0008FE03F081506EECD6
:104A18003FF020EE01F01650D9261750DA22600038
:104A28000FF0DEFF600013F0DEFF600017F0DEFF1E
:104A380060001BF0DEFF20EE05F01650D926175057
:104A4800DA226F0017FEDFFF20EE06F01650D92697
:104A58001750DA226F001BFEDFFF20EE07F016501A
:104A6800D9261750DA226F001FFEDFFF20EE08F06C
:104A78001650D9261750DA226F0023FEDFFF20EEEA
:104A880009F01650D9261750DA226F0027FEDFFFEB
:104A980020EE0AF01650D9261750DA226F002BFEA6
:104AA800DFFF20EE0BF01650D9261750DA226F00E0
:104AB8002FFEDFFF20EE0CF01650D9261750DA2211
:104AC8006F0033FEDFFF20EE0DF01650D926175089
:104AD800DA226F0037FEDFFF809E010E186E21EF8D
:104AE80026F03701F0AF7BEF25F07DEF25F021EFC1
:104AF80026F0F2A782EF25F084EF25F0ACEF25F041
:104B080060005BF0D9FF60005FF0DAFF020EDF6E35
:104B18006D00D0FF03F06D00C4FF04F06D00C8FF06
:104B280005F0F35121EC32F020EE01F01650D926B1
:104B38001750DA2260000FF0DEFF600013F0DEFF8E
:104B4800600017F0DEFF60001BF0DEFFCCEF25F001
:104B580060005BF0D9FF60005FF0DAFF010EDF6EE6
:104B68006D00C8FF03F0F1516EEC3FF020EE01F04C
:104B78001650D9261750DA2260000FF0DEFF6000C9
:104B880013F0DEFF600017F0DEFF60001BF0DEFFB1
:104B980020EE05F01650D9261750DA226D00D7FFFF
:104BA800DFFF20EE06F01650D9261750DA226D00E6
:104BB800DBFFDFFF20EE07F01650D9261750DA2268
:104BC8006D00DFFFDFFF20EE08F01650D9261750E2
:104BD800DA226D00E3FFDFFF20EE09F01650D92638
:104BE8001750DA226D00E7FFDFFF20EE0AF01650BB
:104BF800D9261750DA226D00EBFFDFFF20EE0BF00D
:104C08001650D9261750DA226D00EFFFDFFF20EE8D
:104C18000CF01650D9261750DA226D00F3FFDFFF8B
:104C280020EE0DF01650D9261750DA226D00F7FF46
:104C3800DFFF3701F09F71EF25F0185012000101D6
:104C4800CD05D8A42AEF26F02CEF26F03BEF27F06D
:104C58000001F251D8A433EF26F035EF26F05DEFCE
:104C680027F042C103F043C104F0D6EC45F0010E31
:104C78000001F26FD30E6D6FF70E6E6F27EC47F0E1
:104C88005DEF27F05D04D8B44CEF26F04EEF26F028
:104C98005EEF26F05C04D8B454EF26F056EF26F009
:104CA8005EEF26F0F205D8A45CEF26F05EEF26F062
:104CB8005DEF27F0000E5D6E000E5C6E000E046E58
:104CC800000E036ED6EC45F0000E0001F26FF70EF1
:104CD80000017B6F000E7C6F010E7D6F7EEC3DF056
:104CE800000E0001F16F5DEF27F0E705D8A47FEF14
:104CF80026F081EF26F0B0EF26F00101A151A211B4
:104D0800D8A489EF26F08BEF26F0C4EF26F05D508B
:104D1800D8B491EF26F094EF26F0010E95EF26F027
:104D2800000E5D6E5D04D8B49CEF26F09EEF26F071
:104D3800A4EF26F048C1A1F149C1A2F1A8EF26F0DD
:104D480046C1A1F147C1A2F15D04D8A4AEEF26F097
:104D5800B0EF26F0BBEF26F042C103F043C104F0E8
:104D6800D6EC45F0010E0001F26FC4EF26F0000EFC
:104D7800046E000E036ED6EC45F0000E0001F26FD3
:104D880001019F51A011D8A4CCEF26F0CEEF26F058
:104D98005DEF27F05C50D8B4D4EF26F0D7EF26F0BB
:104DA800010ED8EF26F0000E5C6E5C04D8B4DFEF7D
:104DB80026F0E1EF26F0E7EF26F04CC19FF14DC158
:104DC800A0F1EBEF26F04AC19FF14BC1A0F15C04C2
:104DD800D8A4F1EF26F0F3EF26F06BEF26F0F70EEC
:104DE80000017B6F000E7C6F010E7D6FBEEC3DF005
:104DF800010E0001F16F5DEF27F00101A151A21131
:104E0800D8A409EF27F00BEF27F05DEF27F05D50EE
:104E1800D8B411EF27F014EF27F0010E15EF27F0A3
:104E2800000E5D6E5D04D8B41CEF27F01EEF27F06E
:104E380024EF27F050C1A1F151C1A2F128EF27F0CA
:104E48004EC1A1F14FC1A2F15D04D8A42EEF27F005
:104E580030EF27F062EF26F042C103F043C104F0BF
:104E6800D6EC45F0010E0001F26FF3EF26F00001D9
:104E7800E651806F816B8151000AD8B446EF27F064
:104E88005DEF27F08051010AD8B479EF26F0030AC4
:104E9800D8B446EF26F0010AD8B401EF27F0070A84
:104EA800D8B446EF26F0010AD8B446EF26F05DEFF5
:104EB80027F0120068EF28F0030ED16F030ED26FAF
:104EC800030ECF6F0101AC2B8E0E00016D6FFD0E2E
:104ED8006E6F27EC47F093EF28F00A0E6D6FFE0E09
:104EE8006E6F27EC47F0640E0001E26F000EE36F6F
:104EF800000EE46F000EE56F3FEC44F00101AC2BAF
:104F080093EF28F0040ED019D8A48DEF27F08FEF77
:104F180027F093EF28F0820E0001866FDD0EE82E51
:104F2800FED7862FFCD700D0DD0E0001826F010E60
:104F3800836FE0EC2DF00009D8B4A5EF27F0A7EFB8
:104F480027F098EF27F0DDC163F1DEC164F1E5C118
:104F58006BF1E6C16CF1E1C167F1E2C168F182EF82
:104F680027F0220E6D6FFE0E6E6F27EC47F0640E71
:104F78000001E26F000EE36F000EE46F000EE56FB4
:104F88009CEC43F082EF27F0040ED019D8A4CFEFA1
:104F980027F0D1EF27F093EF28F0820E0001866FFB
:104FA800DD0EE82EFED7862FFCD700D0DD0E0001DF
:104FB800826F010E836FE0EC2DF00009D8B4E7EFA3
:104FC80027F0E9EF27F0DAEF27F0E3C169F1E4C150
:104FD8006AF1DFC165F1E0C166F1470E00016D6F4E
:104FE800F50E6E6F63C16FF0706B64C171F0726B18
:104FF80027EC47F0C90E00016D6FF10E6E6F6BC1A3
:105008006FF06CC170F067C171F068C172F069C16E
:1050180073F06AC174F065C175F066C176F027EC6B
:1050280047F082EF27F0930E6D6FFB0E6E6F27EC43
:1050380047F0000E046E020E036E63C105F08DEC9E
:1050480044F0000E046E010E036E64C105F08DEC91
:1050580044F0000E086E050E076E6BC109F06CC1B6
:105068000AF04FEC47F0000E086E090E076E67C194
:1050780009F068C10AF04FEC47F0000E086E030E05
:10508800076E69C109F06AC10AF04FEC47F0000EDB
:10509800086E070E076E65C109F066C10AF04FEC8D
:1050A80047F082EF27F05C0E6D6FFD0E6E6F27ECF8
:1050B80047F0000E0101AC6F010E94EF28F0000ECE
:1050C8000101AC6F93EF28F00101AC510001866F2C
:1050D800876B8751000AD8B474EF28F063EF28F083
:1050E8008651000AD8B460EF27F0010AD8B471EFEE
:1050F80027F0030AD8B486EF27F0010AD8B4B5EF31
:1051080027F0070AD8B4C8EF27F0010AD8B417EF78
:1051180028F0030AD8B457EF28F063EF28F0000E00
:10512800120029BE9AEF28F09DEF28F0010E9EEF9D
:1051380028F0000E386E3850D8B4A5EF28F0A7EF45
:1051480028F0B7EF28F0291E281E271E261E251E28
:10515800241E231E226C000E23222422252226220E
:1051680027222822292259BEBEEF28F0BCEF28F0BA
:10517800C4EF28F0000E356E010E346EC8EF28F02B
:1051880058C034F059C035F07DC136F07EC137F0D3
:105198003850D8B4D2EF28F0D4EF28F0EBEF28F04D
:1051A8003606D8A037063850D8A4DDEF28F0DFEF50
:1051B80028F0E5EF28F0000E336E2B0E326EE9EF83
:1051C80028F0000E336E2D0E326E32C038F0000E0D
:1051D8003A6E1F0E396E000E0201406F70EF29F013
:1051E8003906D8A03A06210E3924D96E020E3A2083
:1051F800DA6E22C003F023C004F024C005F025C0F5
:1052080006F026C007F027C008F028C009F029C01A
:105218000AF00A0E0B6E000E0C6E000E0D6E000EDC
:105228000E6E000E0F6E000E106E000E116E000E48
:10523800126E20EC30F003C02AF004C02BF005C039
:105248002CF006C02DF007C02EF008C02FF009C0C2
:1052580030F00AC031F02AC015F02BC016F061EC0E
:1052680045F01550300FDF6E3406D8A035063606E7
:10527800D8A0370622C003F023C004F024C005F0EC
:1052880025C006F026C007F027C008F028C009F09E
:1052980029C00AF00A0E0B6E000E0C6E000E0D6E81
:1052A800000E0E6E000E0F6E000E106E000E116EC8
:1052B800000E126EA7EC2EF003C022F004C023F0FB
:1052C80005C024F006C025F007C026F008C027F066
:1052D80009C028F00AC029F03ABE7BEF29F03A50FD
:1052E80008E13904D8A07BEF29F07DEF29F099EF88
:1052F80029F02250231024102510261027102810DA
:105308002910D8A48AEF29F08CEF29F0F4EF28F0BF
:1053180035BE99EF29F0355006E13404D8B097EF3F
:1053280029F099EF29F0F4EF28F03850D8B49FEF1E
:1053380029F0A1EF29F0ADEF29F03906D8A03A06F7
:10534800210E3924D96E020E3A20DA6E6000E3F09D
:10535800DFFF20C015F021C016F0210E3924176E8A
:10536800020E3A20186E36C019F037C01AF0B8ECA1
:105378003EF01200470E00016D6FF70E6E6F27ECBE
:1053880047F0000E046E000E036EFCEC47F0AA0A0C
:10539800D8B4D1EF29F0D4EF29F0010ED5EF29F0D8
:1053A800000E0101CC6FCC05D8B4DDEF29F0DFEF9A
:1053B80029F0E6EF29F0F30E00017B6FFF0E7C6FFA
:1053C800EBEF29F0FC0E00017B6FFF0E7C6F1C0ECB
:1053D8006D6FFF0E6E6F7BC06FF07CC070F027ECB6
:1053E80047F0000E046E0B0E036EFCEC47F0000154
:1053F800DB6F000E046E110E036EFCEC47F000012B
:10540800DC6F000E046E100E036EFCEC47F000011A
:10541800DD6F000E0D6E0C0E0C6E35EC42F00CC0FC
:10542800DEF00DC0DFF00EC0E0F00FC0E1F0FC0EC2
:1054380000016D6FF10E6E6FDBC06FF0706BDDC039
:1054480071F0726BDCC073F0746BDEC075F0DFC096
:1054580076F0E0C077F0E1C078F027EC47F0000E76
:10546800046E020E036EFCEC47F00009D8A43FEF6F
:105478002AF042EF2AF0010E43EF2AF0000E010154
:10548800636F000E046E010E036EFCEC47F000091A
:10549800D8A451EF2AF054EF2AF0010E55EF2AF064
:1054A800000E0101646F000E066E050E056EF0EC2D
:1054B80045F005C06BF106C06CF1000E066E090ED2
:1054C800056EF0EC45F005C067F106C068F1000E06
:1054D800066E030E056EF0EC45F005C069F106C0D6
:1054E8006AF1000E066E070E056EF0EC45F005C079
:1054F80065F106C066F1830E00016D6FF40E6E6FE4
:1055080063C16FF0706B64C171F0726B27EC47F088
:10551800600E00016D6FF10E6E6F6BC16FF06CC1A4
:1055280070F067C171F068C172F069C173F06AC147
:1055380074F065C175F066C176F027EC47F012008B
:105548000B6E0B50D8B4ABEF2AF0ADEF2AF0CFEFCB
:105558002AF006BEB4EF2AF0B2EF2AF0CFEF2AF015
:1055680003C007F004C008F005C009F006C00AF03F
:10557800071E081E091E0A1E072A000E08220922F5
:105588000A2207C00DF008C00EF009C00FF00AC0CB
:1055980010F0D7EF2AF003C00DF004C00EF005C0DC
:1055A8000FF006C010F00350041005100610D8A420
:1055B800E0EF2AF0E2EF2AF0ECEF2AF0000E036E9B
:1055C800000E046E000E056E000E066E7DEF2BF0C9
:1055D800960E0C6EF6EF2AF00C2AD89010320F3285
:1055E8000E320D32000E0D14076E000E0E14086EEA
:1055F800000E0F14096EFE0E10140A6E07500810E4
:1056080009100A10D8A40BEF2BF00DEF2BF0F0EFD8
:105618002AF01BEF2BF00C2A010E0D26000E0E228D
:105628000F221022D89010320F320E320D32000E97
:105638000D14076E000E0E14086E000E0F14096E7E
:10564800FF0E10140A6E0750081009100A10D8A48B
:1056580030EF2BF032EF2BF00FEF2BF03AEF2BF06F
:105668000C06D8900D360E360F3610360FBE3FEFAB
:105678002BF041EF2BF049EF2BF0020E0C6047EFB7
:105688002BF049EF2BF034EF2BF00CB04EEF2BF052
:1056980050EF2BF051EF2BF00F9ED8900C320CC02E
:1056A80007F0086A096A0A6A07C00AF0096A086AFC
:1056B800076A07500D1208500E1209500F120A50AF
:1056C80010120B50D8B46BEF2BF06DEF2BF075EF79
:1056D8002BF006BE74EF2BF072EF2BF075EF2BF06A
:1056E800108E0DC003F00EC004F00FC005F010C0FE
:1056F80006F01200040E01013F19D8A486EF2BF022
:1057080088EF2BF04BEF2CF0010E0001E66F010E35
:10571800E76F040ED019D8A494EF2BF096EF2BF076
:1057280099EF2BF0010E0101AD6F0101AD51D8A425
:10573800A0EF2BF0A2EF2BF0C7EF2BF09D519E119D
:10574800D8A4A9EF2BF0ABEF2BF0C7EF2BF0000E8E
:105758009E6F640E9D6F020E0001CF19D8A4B7EF9B
:105768002BF0B9EF2BF0C7EF2BF0020EEA6F000E0B
:1057780001019A6F5A0E996F1F0E00016D6FFB0E93
:105788006E6F27EC47F00101AD05D8A4CEEF2BF0E2
:10579800D0EF2BF0E2EF2BF0000E476F320E466F82
:1057A800000E496F320E486F000E4B6F320E4A6F73
:1057B800000E4D6F320E4C6F1EEF2CF00001C0052D
:1057C800D8B4E9EF2BF0EBEF2BF0FAEF2BF0D35135
:1057D800D411D511D611D711D811D911DA11D8B4DD
:1057E800F8EF2BF0FAEF2BF00DEF2CF0000E010183
:1057F800476F020E466F000E496F020E486F000E8B
:105808004B6F020E4A6F000E4D6F020E4C6F1EEF6B
:105818002CF0000E0101476F0A0E466F000E496F0B
:105828000A0E486F000E4B6F0A0E4A6F000E4D6F3E
:105838000A0E4C6FCB05D8A424EF2CF026EF2CF0E1
:105848004BEF2CF08D518E11D8A42DEF2CF02FEFAB
:105858002CF04BEF2CF0590E00016D6FFF0E6E6FA0
:1058680027EC47F0650E00016D6FF90E6E6F27EC9F
:1058780047F0060E00017C6F130E7B6FAD0EE82E0D
:10588800FED77B2FFCD77C2FFAD700D0FF00120061
:10589800020E0718D8A453EF2CF055EF2CF0E3EFC5
:1058A8002CF060002BF0D9FF60002FF0DAFF6000C9
:1058B8000FF0DFFF03C010F004C011F005C012F0B4
:1058C80006C013F011C010F012C011F013C012F08E
:1058D800136A10C003F011C004F012C005F013C021
:1058E80006F0600023F0D9FF600027F0DAFF6000BF
:1058F8000FF0DFFF03C010F004C011F005C012F074
:1059080006C013F011C010F012C011F013C012F04D
:10591800136A10C003F011C004F012C005F013C0E0
:1059280006F00350030B146E03C010F004C011F00E
:1059380005C012F006C013F0030ED89010361136C9
:1059480012361336E82EA1EF2CF010C003F011C068
:1059580004F012C005F013C006F00350E00B142445
:10596800146E1450080F146E1450EB0B60003BF0CB
:10597800D9FF60003FF0DAFFDF6E03C010F004C00B
:1059880011F005C012F006C013F011C010F012C0DB
:1059980011F013C012F0136A10C003F011C004F024
:1059A80012C005F013C006F0600033F0D9FF6000A4
:1059B80037F0DAFF60000FF0DFFF15EF2DF0600021
:1059C80023F0D9FF600027F0DAFFDF6A60002BF0D0
:1059D800D9FF60002FF0DAFFDF6A03C010F004C0BF
:1059E80011F005C012F006C013F0050ED89010365D
:1059F800113612361336E82EFAEF2CF010C003F0E9
:105A080011C004F012C005F013C006F060003BF0AE
:105A1800D9FF60003FF0DAFF60000FF0DFFFC1EF51
:105A28002CF0120059BE1DEF2DF01BEF2DF023EFC7
:105A38002DF0000E356E010E346E27EF2DF058C094
:105A480034F059C035F07DC132F07EC133F0000E1C
:105A5800376E1F0E366E000E0201406FAAEF2DF052
:105A68003606D8A03706210E3624D96E020E372006
:105A7800DA6E22C003F023C004F024C005F025C06C
:105A880006F026C007F027C008F028C009F029C092
:105A98000AF00A0E0B6E000E0C6E000E0D6E000E54
:105AA8000E6E000E0F6E000E106E000E116E000EC0
:105AB800126E44EC38F003C02AF004C02BF005C085
:105AC8002CF006C02DF007C02EF008C02FF009C03A
:105AD80030F00AC031F02A50300FDF6E3406D8A0FB
