:040000000DEF00F010
:040008008DEF0BF07D
:10001800FF00DEEF0BF022C038F023C039F024C017
:100028003AF025C03BF026C03CF027C03DF028C080
:100038003EF029C03FF03FBE24EF00F027EF00F06C
:10004800010E28EF00F0000E426E4250D8B42FEF98
:1000580000F031EF00F041EF00F03F1E3E1E3D1E64
:100068003C1E3B1E3A1E391E386C000E39223A22BD
:100078003B223C223D223E223F220001CABF4FEFD5
:1000880000F0CA5106E1C905D8B04DEF00F04FEFB6
:1000980000F055EF00F0000E356E010E346E59EF8A
:1000A80000F0C9C034F0CAC035F0C7C036F0C8C0C7
:1000B80037F04250D8B463EF00F065EF00F07CEF02
:1000C80000F03606D8A037064250D8A46EEF00F0EC
:1000D80070EF00F076EF00F0000E336E2B0E326EEC
:1000E8007AEF00F0000E336E2D0E326E32C042F001
:1000F800000E416E1F0E406E000E0101526F01EF9F
:1001080001F04006D8A04106330E4024D96E010EF6
:100118004120DA6E38C003F039C004F03AC005F067
:100128003BC006F03CC007F03DC008F03EC009F0F7
:100138003FC00AF00A0E0B6E000E0C6E000E0D6E1C
:10014800000E0E6E000E0F6E000E106E000E116E79
:10015800000E126ED3EC03F003C02AF004C02BF09B
:1001680005C02CF006C02DF007C02EF008C02FF0F7
:1001780009C030F00AC031F02AC015F02BC016F0C3
:10018800F1EC0AF01550300FDF6E3406D8A03506B2
:100198003606D8A0370638C003F039C004F03AC094
:1001A80005F03BC006F03CC007F03DC008F03EC07B
:1001B80009F03FC00AF00A0E0B6E000E0C6E000E1E
:1001C8000D6E000E0E6E000E0F6E000E106E000EFD
:1001D800116E000E126E0FEC03F003C038F004C06D
:1001E80039F005C03AF006C03BF007C03CF008C043
:1001F8003DF009C03EF00AC03FF041BE0CEF01F0EF
:10020800415008E14004D8A00CEF01F00EEF01F0D6
:100218002AEF01F0385039103A103B103C103D10CD
:100228003E103F10D8A41BEF01F01DEF01F085EF41
:1002380000F035BE2AEF01F0355006E13404D8B09D
:1002480028EF01F02AEF01F085EF00F04250D8B412
:1002580030EF01F032EF01F03EEF01F04006D8A098
:100268004106330E4024D96E010E4120DA6E60003B
:100278000BF1DFFF20C015F021C016F0330E40242B
:10028800176E010E4120186E36C019F037C01AF0EB
:10029800D8EC07F0120015EF02F031EC0BF000017A
:1002A8008F51901191119211D8B45DEF01F05FEF69
:1002B80001F043EF02F0CABA64EF01F066EF01F013
:1002C80079EF01F0CC5109E1650ECB5DD8A06FEF55
:1002D80001F071EF01F075EF01F0010ED96F43EFF6
:1002E80002F0CB4BCC2B43EF02F0000ECC6F000E8C
:1002F800CB6F43EF02F0000ED46F0A0ED36F020EDD
:10030800D96FBA8643EF02F050EC0BF00001D351DD
:10031800D411D8A492EF01F094EF01F043EF02F06A
:100328009AEC07F0A10E0001CF5D0F0ED059D8B09E
:10033800A0EF01F0A2EF01F0ADEF01F0A10ECD5D4D
:100348000F0ECE59D8A0ABEF01F0ADEF01F0B1EF31
:1003580001F0030ED96F43EF02F0000ED46F320E96
:10036800D36F070ED96F43EF02F0BA86000ED46F31
:10037800640ED36F040ED96F43EF02F050EC0BF00C
:100388000001D351D411D8A4CCEF01F0CEEF01F085
:1003980043EF02F09AEC07F00001D05109E1640E36
:1003A800CF5DD8A0DAEF01F0DCEF01F0E7EF01F064
:1003B800CE5107E1640ECD5DD8B0E5EF01F0E7EF6F
:1003C80001F0B1EF01F0050ED96F43EF02F0000E16
:1003D800D46F320ED36FBA96BA96060ED96F43EF22
:1003E80002F0BA96BA84D351D411D8A4FEEF01F022
:1003F80000EF02F043EF02F0BA96BA94000ED96FFC
:1004080043EF02F0BA86BA94D351D411D8A40FEFAF
:1004180002F011EF02F043EF02F0BA96BA9402EF3D
:1004280002F00001D9510F6E106A1050000AD8B4BA
:1004380020EF02F043EF02F00F50000AD8B451EF5A
:1004480001F0010AD8B47FEF01F0030AD8B488EFAD
:1004580001F0010AD8B4B9EF01F0070AD8B4C2EF25
:1004680001F0010AD8B4EBEF01F0030AD8B4F5EFB4
:1004780001F0010AD8B406EF02F043EF02F01200CF
:10048800600017F1D9FF60001BF1DAFF6F007BFFF6
:10049800F6FF6F0077FFF7FFF86A0800F550250AA6
:1004A800D8A459EF02F05BEF02F0F5EF02F060001C
:1004B80017F1D9FF60001BF1DAFFDE2A000EDD22FA
:1004C800000E0001C86F000EC76FC7C0D5F0C9691C
:1004D800CA69600017F1D9FF60001BF1DAFF6F00ED
:1004E80078FF53F06F0074FF54F060004FF1F6FF8F
:1004F800600053F1F7FFF86A0800F550640AD8B4B1
:1005080088EF02F08AEF02F09BEF02F060004FF1F3
:10051800F6FF600053F1F7FFF86A0800F550690A22
:10052800D8A499EF02F09BEF02F0EAEF02F0600026
:100538001FF1D9FF600023F1DAFF6F007CFF49F05B
:10054800020EDE266F007CFF4AF0000EDD226000FE
:1005580027F1D9FF60002BF1DAFF6F0078FF4BF02D
:100568006F0074FF4CF0000E4CBEFF0E4D6E4E6EC9
:100578004F6E506E516E526E010E5324496E000E2E
:1005880054204A6E600017F1D9FF60001BF1DAFFB2
:10059800600027F1DEFF60002BF1DDFF43C020F093
:1005A80044C021F04BC022F04CC023F04DC024F0D1
:1005B8004EC025F04FC026F050C027F051C028F09B
:1005C80052C029F00FEC00F00EEF03F0600017F1B5
:1005D800D9FF60001BF1DAFFDE2A000EDD220EEFE4
:1005E80003F0600017F1D9FF60001BF1DAFF6F001C
:1005F8007BFFF6FF6F0077FFF7FFF86A0800F550FA
:10060800056E066A43C007F044C008F004EC06F023
:10061800EAEF02F01200000E146E12BE18EF03F09B
:1006280016EF03F02AEF03F0121E111E101E0F1E04
:100638000E1E0D1E0C1E0B6C000E0C220D220E221F
:100648000F22102211221222010E146E0ABE31EF5F
:1006580003F02FEF03F043EF03F00A1E091E081EF4
:10066800071E061E051E041E036C000E042205222A
:1006780006220722082209220A22010E141A20EE55
:1006880015F0070EDE6AE806FDE20B500C100D109F
:100698000E100F10101011101210D8B456EF03F0EE
:1006A80058EF03F0AAEF03F0010E136E66EF03F0A4
:1006B800D8900B360C360D360E360F3610361136EE
:1006C8001236132A12AE6BEF03F06DEF03F05CEFF6
:1006D80003F0D890153616361736183619361A36E6
:1006E8001B361C360B50035C0C5004580D50055833
:1006F8000E5006580F5007581050085811500958F6
:1007080012500A58D8A08BEF03F08DEF03F09EEF3C
:1007180003F00B50035E0C50045A0D50055A0E504E
:10072800065A0F50075A1050085A1150095A1250B9
:100738000A5A1580D8901232113210320F320E3206
:100748000D320C320B32132E6DEF03F01450D8B467
:10075800B0EF03F0B2EF03F0C2EF03F01C1E1B1E54
:100768001A1E191E181E171E161E156C000E1622AC
:100778001722182219221A221B221C2215C003F044
:1007880016C004F017C005F018C006F019C007F02D
:100798001AC008F01BC009F01CC00AF01200000EB5
:1007A800146E0ABEDCEF03F0DAEF03F0EEEF03F0AD
:1007B8000A1E091E081E071E061E051E041E036CBF
:1007C800000E0422052206220722082209220A22F4
:1007D800010E146E12BEF5EF03F0F3EF03F005EF10
:1007E80004F0121E111E101E0F1E0E1E0D1E0C1ED2
:1007F8000B6C000E0C220D220E220F221022112249
:1008080012220B500C100D100E100F10101011109A
:100818001210D8B412EF04F014EF04F05CEF04F0F7
:10082800010E136E22EF04F0D8900B360C360D36FD
:100838000E360F36103611361236132A12AE27EF3F
:1008480004F029EF04F018EF04F00B50035C0C508F
:1008580004580D5005580E5006580F5007581050A0
:1008680008581150095812500A58D8A03EEF04F001
:1008780040EF04F050EF04F00B50035E0C50045AA4
:100888000D50055A0E50065A0F50075A1050085A64
:100898001150095A12500A5AD89012321132103295
:1008A8000F320E320D320C320B32132E29EF04F0B8
:1008B8001450D8B462EF04F064EF04F074EF04F05D
:1008C8000A1E091E081E071E061E051E041E036CAE
:1008D800000E0422052206220722082209220A22E3
:1008E80003C003F004C004F005C005F006C006F01C
:1008F80007C007F008C008F009C009F00AC00AF0EC
:1009080012006FEC0DF00009D8B48DEF04F08FEFF2
:1009180004F0C9EF04F09CEF04F0BDEC0DF015EF06
:1009280005F02CEC0EF015EF05F0000E15EF05F0B4
:1009380072C00CF073C00DF002D8ADEF04F00500E2
:10094800FA6E00016651FD6E6751FE6EFF6AFA503D
:1009580012000E6E0F6A0F50000AD8B4B6EF04F0FA
:1009680099EF04F00E50010AD8B499EF04F0030A85
:10097800D8B491EF04F0010AD8B495EF04F0070A4F
:10098800D8B499EF04F099EF04F064EC0DF0000985
:10099800D8B4D1EF04F0D3EF04F014EF05F0000160
:1009A8008351030B0009D8B4DCEF04F0DEEF04F048
:1009B800EAEF04F0010E0E6E8351030B0F6E0E501A
:1009C8000F5E83510F18FC0B0F18836F6000F7F14F
:1009D800D9FF6000FBF1DAFFDF50126E7D4B7E2BF2
:1009E8007F07D8A080077F518011D8A4FEEF04F0BC
:1009F80000EF05F008EF05F05CEC07F00E6E0E5006
:100A0800106E116A0CEF05F0000E116E030E106ED9
:100A180010C013F01250D5EC0DF0135015EF05F07F
:100A2800030E1200000183893AEF05F01BEC0EF06B
:100A3800080E66EF05F01BEC0EF0070E66EF05F0EA
:100A480000017F29DAEC0DF0040E66EF05F0070EC1
:100A580000018119D8B433EF05F035EF05F037EF11
:100A680005F01EEC0EF00F0E66EF05F06CC00CF0F2
:100A78006DC00DF002D84AEF05F00500FA6E60511E
:100A8800FD6E6151FE6EFF6AFA5012000E6E0F6A1B
:100A98000F50000AD8B453EF05F02BEF05F00E50B5
:100AA800010AD8B42BEF05F0030AD8B41FEF05F0FC
:100AB800010AD8B41AEF05F0070AD8B424EF05F0F4
:100AC8002BEF05F012007AEC0DF00009D8A46FEFB7
:100AD80005F071EF05F074EF05F0040EB5EF05F0C1
:100AE80000018351030B0009D8B47DEF05F07FEFB7
:100AF80005F08BEF05F0010E106E8351030B116E9C
:100B08001050115E83511118FC0B1118836F7F0769
:100B1800D8A080077F518011D8B495EF05F097EFE2
:100B280005F0A5EF05F018EC0EF06000F7F1D9FF1D
:100B38006000FBF1DAFFDF6E00017D4B7E2B71EF69
:100B480005F016EC05F0126E18EC0EF06000F7F1E7
:100B5800D9FF6000FBF1DAFFDF6E00017D4B7E2BD1
:100B6800125012003901A39F5B50B76E60006BF101
:100B7800B6FF0001F051F111D8B4C5EF05F0C7EF89
:100B880005F0D3EF05F002D8D3EF05F00500FA6EB3
:100B9800F051FD6EF151FE6EFF6AFA50120000012D
:100BA800D351D411D8B4DBEF05F0DDEF05F0E0EF59
:100BB80005F0D307D8A0D4075C50D8B4E6EF05F009
:100BC800E9EF05F0010EEAEF05F0000E5C6EDB516F
:100BD800D8A4F1EF05F0F3EF05F002EF06F0090EE7
:100BE800DB6FDC51D8B4FBEF05F0FEEF05F0010E2A
:100BF800FFEF05F0000EDC6F03EF06F0DB071200D5
:100C080007500810D8B40BEF06F00DEF06F016EFFA
:100C180006F007500810D8A414EF06F016EF06F0F7
:100C28001BEF06F00550D0EC0DF04EEF06F020EE6D
:100C380009F00750D9260850DA22DE50DE10D8B461
:100C480028EF06F02AEF06F045EF06F020EE09F04F
:100C58000750D9260850DA2210EE03F00750E12693
:100C68000850E222DE50E65CE650800A0D6EDE5047
:100C7800800A0D58D8B043EF06F045EF06F04EEF66
:100C880006F020EE03F00750D9260850DA22DE2AB3
:100C9800000EDD221200036E010E046E000183B700
:100CA80058EF06F05AEF06F095EF06F003C07CF017
:100CB80083958387FC0E83170F0E816F010E7B6F60
:100CC800F40E7A6F8389600E606F1C0E616F000EE0
:100CD8006C6F000E6D6F600E626F1C0E636F000EFE
:100CE8006E6F000E6F6F600E646F1C0E656F000EE6
:100CF800706F000E716F600E666F1C0E676F000ECE
:100D0800726F000E736F5C0E686F1C0E696F000EB9
:100D1800746F000E756F08EC0EF0D9EC0CF0000E35
:100D2800046E04501200B10E0001E76FFF0EE86F69
:100D38007AEC0CF0E60E0001E76FFF0EE86F7AEC34
:100D48000CF05C0E0001E76FFF0EE86F7AEC0CF018
:100D5800DD0E1B6E000E1C6EF00E1D6E33EC09F0DE
:100D6800EB0E0001E76FFE0EE86F7AEC0CF03C0E1C
:100D78000001E76FFF0EE86F7AEC0CF0160E000129
:100D8800E76FFF0EE86F7AEC0CF0BC90DD0E000107
:100D9800EB6F000EEC6F000EED6F1CEC07F0960E7B
:100DA8000001E76FFF0EE86F7AEC0CF01200076E97
:100DB80003500410D8B4E3EF06F0E5EF06F003EFB4
:100DC80007F00750020D600EF324D96E000EF420D0
:100DD800DA6E60000FF0DEFF600013F0DDFF0750F1
:100DE800020D6C0EF324D96E000EF420DA6E60004A
:100DF80017F0DEFF60001BF0DDFF1BEF07F0075068
:100E0800020D600EF324D96E000EF420DA6E600E27
:100E1800DE6E1C0EDD6E0750020D6C0EF324D96ECB
:100E2800000EF420DA6E000EDE6E000EDD6E12008B
:100E3800070E0001ED6523EF07F025EF07F030EF0F
:100E480007F07A0EE76FFF0EE86FEDC0E9F0EA6B86
:100E58007AEC0CF02EEF07F0EDC0EEF0010EEF6F1C
:100E6800EE2B39EF07F0D890EF37EE2F37EF07F07A
:100E78000001EF51FF0A596E20EE02F0EB51D9261E
:100E8800EC51DA225950DF16010E186E20EE02F0EE
:100E9800EB51D926EC51DA22DF50196E6000AFF31E
:100EA800D9FF6000B3F3DAFFDF508CEC08F01200D2
:100EB8000001838971EF07F01BEC0EF0070E99EF24
:100EC80007F000017F29DAEC0DF0030E99EF07F027
:100ED8001EEC0EF00A0E99EF07F06CC00CF06DC016
:100EE8000DF002D881EF07F00500FA6E6051FD6E33
:100EF8006151FE6EFF6AFA5012000E6E0F6A0F50B3
:100F0800000AD8B48AEF07F06CEF07F00E50010A18
:100F1800D8B46CEF07F0030AD8B460EF07F0060AFC
:100F2800D8B465EF07F06CEF07F01200000E0B6EF7
:100F3800000E0A6E000E0D6E000E0C6E000E0E6E88
:100F4800000EC5EC0BF003500A2604500B22010ECC
:100F5800C5EC0BF003500C2604500D220E2A090E86
:100F68000E64B9EF07F0BBEF07F0A4EF07F00AC073
:100F780003F00BC004F0000E066E0A0E056E52EC6C
:100F880008F003C0CFF004C0D0F00CC003F00DC0CF
:100F980004F0000E066E0A0E056E52EC08F003C04F
:100FA800CDF004C0CEF012001ABEDDEF07F0DFEF7F
:100FB80007F0E5EF07F019C01EF01AC01FF0E9EFBF
:100FC80007F0000E1F6E000E1E6E000E1D6E000E46
:100FD8001C6EFBEF07F0000E066E200E056E15C0A6
:100FE80007F016C008F004EC06F01C4A1D2A1E5033
:100FF8001C5C1D50800A1B6E1F50800A1B58D8A00D
:1010080008EF08F00AEF08F0EFEF07F017C00EF04E
:1010180018C00FF015C010F016C011F0CFEC0AF090
:10102800120080EC0AF000018351030B0009D8B4C8
:1010380020EF08F022EF08F02FEF08F06FEC0DF02A
:101048000009D8B42AEF08F02CEF08F02FEF08F0C9
:10105800100E0001816F00018151020DAD0EF324C5
:10106800F66EFE0EF420F76EF86A000EF8220900FC
:101078006F00D4FF14F009006F00D4FF15F002D8F8
:101088004FEF08F00500FA6E1450FD6E1550FE6E15
:10109800FF6AFA5012000001816F1200000E086EFC
:1010A800000E076E05500610D8B45DEF08F05FEF2C
:1010B80008F087EF08F0010E096E67EF08F0D89086
:1010C80005360636092A06AE6CEF08F06EEF08F012
:1010D80063EF08F0D890073608360550035C0650D1
:1010E8000458D8A07AEF08F07CEF08F081EF08F0F8
:1010F8000550035E0650045A0780D8900632053220
:10110800092E6EEF08F007C003F008C004F01200C3
:101118001A6ED29E1A504FEC06F00009D8B497EF19
:1011280008F099EF08F08EEF08F0180E086E180E08
:10113800096E190E0A6E000E0B6E41EC0DF0180EBA
:10114800036E000E046E000E066E010E056EB5EC01
:101158000CF0000E086E000E096E000E0A6E000EEE
:101168000B6E35EC0DF0F8EC0DF064EC0CF0E806C5
:10117800D8B4C1EF08F0C3EF08F0B9EF08F0D28E89
:10118800120008EC0EF0020E0001826FD8EF08F092
:10119800BDEC0DF0FCEF08F02CEC0EF0FCEF08F0C5
:1011A800AEEC0DF0FCEF08F06EC00CF06FC00DF067
:1011B80002D8E8EF08F00500FA6E6251FD6E63513F
:1011C800FE6EFF6AFA5012000E6E0F6A0F50000A88
:1011D800D8B4F1EF08F0D4EF08F00E50020AD8B4F2
:1011E800CCEF08F0010AD8B4D0EF08F0D4EF08F03B
:1011F8001200000EBA6E000EBB6E000EBC6ECB0E57
:10120800C26EDC0EC36EBC0EC46E7F0E3A01606FF8
:101218002C0E506FF70E406F000E816F000E516F4D
:10122800000E416F080E616F000E426F030E526F81
:10123800080E626F43695369636944695469646954
:10124800080E846F0F0EEA6F090EE46F220E096F05
:10125800210E086F160E0D6F080EE36F1200600066
:101268006FF0D9FF600073F0DAFF200EDF6E20EE1A
:1012780003F01B50D9261C50DA22000EDF6E20EE38
:1012880002F01B50D9261C50DA22000EDF6E20EE29
:1012980001F01B50D9261C50DA22600077F0DFFFDE
:1012A800030E186E20EE01F01B50D9261C50DA22CE
:1012B800DF50196E60006FF0D9FF600073F0DAFF3D
:1012C800DF508CEC08F01200FC0E00018317020EB0
:1012D800826F839577EF09F02AEC0EF09BEF09F007
:1012E8000F0E9BEF09F070C00CF071C00DF002D822
:1012F80087EF09F00500FA6E6451FD6E6551FE6EC8
:10130800FF6AFA5012000E6E0F6A0F50000AD8B426
:1013180090EF09F074EF09F00E50020AD8B470EF9C
:1013280009F0010AD8B470EF09F074EF09F012005F
:10133800000E3D01D46F000ED56F000ED66F000E63
:10134800D76F000ED86F000ED96FA00EDA6F800E1F
:10135800DB6F000EDC6F670EDD6F000EDE6F000EB8
:10136800DF6F000EE06F000EE16F000EE26F000EFF
:10137800036E000E046EE9EC0DF0000E036E000E15
:10138800046EE4EC0DF0000E036E000E046EEEEC3D
:101398000DF0000E5D6E12003901A3A1D6EF09F021
:1013A800D8EF09F0DAEF09F0FDEF09F0A2AFDFEFAF
:1013B80009F0E1EF09F0E3EF09F0FDEF09F03D0175
:1013C80079A5E9EF09F0EBEF09F0EDEF09F0FDEF92
:1013D80009F079AFF2EF09F0F4EF09F0F6EF09F050
:1013E800FDEF09F076A9FBEF09F0FDEF09F0D0EF6A
:1013F80009F01200000E3E01DE6F000EDF6F000ED6
:10140800E06F000EE16F000EE46F000EE56F000E56
:10141800EA6F000EEC6F000EF16F000EF36F000E16
:10142800F46F000EF56F000EF66F000EF76F000EEA
:10143800F96F000EFA6F000EFB6F000EFC6F000EC6
:10144800FD6F000EFE6F010EFF6F840EF86F120025
:10145800E3C055F0E4C056F040EF0AF0E1C043F0B5
:10146800E2C044F0550E456E000E466EE5C047F0EA
:10147800E6C048F044EC02F0600057F1F6FF600067
:101488005BF1F7FFF86A0800F5500009D8A44FEFA0
:101498000AF051EF0AF032EF0AF0000E0001E26F95
:1014A800000EE16F1200166E010E176E000183B573
:1014B80060EF0AF062EF0AF07EEF0AF08385000E13
:1014C800176E7F51DAEC0DF01650D8B46EEF0AF0B3
:1014D80070EF0AF077EF0AF0040E0001816FF5EC67
:1014E8000BF07CEF0AF0030E0001816F59EC0DF050
:1014F800FBEC0CF0175012009BEC0DF00009D8B46F
:1015080088EF0AF08AEF0AF08EEF0AF027EC0EF067
:10151800A8EF0AF085EC0DF00009D8B496EF0AF0B0
:1015280098EF0AF09CEF0AF021EC0EF0A8EF0AF011
:1015380090EC0DF00009D8B4A4EF0AF0A6EF0AF079
:10154800A8EF0AF024EC0EF0120020EE02F00C5086
:10155800D9260D50DA226F0078FF03F06F0074FF70
:1015680004F0600033F0D9FF600037F0DAFF6F0055
:1015780078FF05F06F0074FF06F0B5EC0CF0000E74
:10158800086E000E096E000E0A6E000E0B6E41EC1E
:101598000DF0020E1200000E146E000E136EE0EF36
:1015A8000AF012C005F0066A10C007F011C008F072
:1015B80004EC06F0134A142A13500E24D96E145062
:1015C8000F20DA6EDF50126E1250D8A4EEEF0AF038
:1015D800F0EF0AF0D5EF0AF0120016BEFEEF0AF09F
:1015E800165006E11504D8B0FCEF0AF0FEEF0AF039
:1015F8000CEF0BF015C017F016C018F0171E181EC8
:10160800174A182A17C015F018C016F010EF0BF07B
:1016180015C015F016C016F012000001D8515C185C
:10162800D8B419EF0BF01BEF0BF030EF0BF05CC0E8
:10163800D8F0BABA22EF0BF025EF0BF0010E26EF27
:101648000BF0000EFF0A036E033A0346BA50031864
:10165800DF0B0318BA6E040012000001DC51D61922
:10166800D8B439EF0BF03BEF0BF04FEF0BF0DCC0C9
:10167800D6F0BAB442EF0BF045EF0BF0010E46EF8F
:101688000BF0000EFF0A036E03460346BA50031818
:10169800FB0B0318BA6E12005C500001D719D8B4BE
:1016A80058EF0BF05AEF0BF06EEF0BF05CC0D7F071
:1016B800BAB461EF0BF064EF0BF0010E65EF0BF0BD
:1016C800000EFF0A036E03460346BA500318FB0BCD
:1016D8000318BA6E1200530EB96ECF0EB76E2C0EE9
:1016E800B66EB6506F00DCFE05F0066A05C006F05F
:1016F800056A05105A6E06505B6E3901A39F938FD9
:10170800680E036E1C0E046EF3EC0DF0900EB86EAE
:1017180012006F00E8FF01F06F00ECFF02F03901E2
:1017280093AF99EF0BF09BEF0BF0A4EF0BF0A3AF87
:10173800A0EF0BF0A2EF0BF0A4EF0BF0B6EC05F066
:1017480060000BF0FBFF600007F0FAFF1100A2EC4D
:101758000CF0D29E97EC06F0D28E11EC0BF04FEC09
:1017680001F00001DC51DA19D8B4BDEF0BF0BFEF7E
:101778000BF0B1EF0BF0DCC0DAF0B1EF0BF00DEFCE
:1017880000F0076E60001FF0F1FE3E01F88FF89D33
:10179800F881F8B1D2EF0BF0D4EF0BF0CDEF0BF0EE
:1017A800F051066E056AEF510524036E000E0620FF
:1017B800046E120000EE00F1530EEE6AE806FDE139
:1017C80000EE60F0810EEE6AE806FDE15D6A5C6A93
:1017D800080ED56E000ED66E000ED76E0001ABEF68
:1017E8000BF000018351FC0B0209836F7F05801108
:1017F800D8A401EF0CF003EF0CF005EF0CF016EC99
:1018080005F0D88000017C35D5EC0DF0040E1200EF
:101818000CC003F00DC004F0000E066E010E056E3C
:10182800B5EC0CF0000E086E000E096E000E0A6E84
:10183800000E0B6E41EC0DF0040E12000CC003F00C
:101848000DC004F0000E066E020E056EB5EC0CF02D
:10185800000E086E000E096E000E0A6E000E0B6E6A
:1018680041EC0DF0020E12000CC003F00DC004F0A4
:10187800000E066E010E056EB5EC0CF0000E086E3B
:10188800000E096E000E0A6E000E0B6E41EC0DF094
:10189800020E12000CC003F00DC004F0000E066E1C
:1018A800020E056EB5EC0CF0000E086E000E096E07
:1018B800000E0A6E000E0B6E41EC0DF0040E1200C5
:1018C800010E036E000183B56CEF0CF06EEF0CF0A7
:1018D80078EF0CF083977C6908EC0EF00AEC0DF0B9
:1018E800CAEC0DF082C003F003501200E90E576EE7
:1018F800000E586E000E0001E16F000EE26FE7C0A7
:10190800E3F0E8C0E4F0570EE56F000EE66F2CEC4C
:101918000AF012000FEC0EF00CEC0EF00009D8B42F
:1019280098EF0CF09AEF0CF0A0EF0CF0000EDAEC48
:101938000DF0000ED5EC0DF0000E120032EC0EF09A
:10194800C7EC0CF0EAEC0CF0FDEC08F04DEC0DF0F7
:10195800FEEC09F019EC0DF06FEC0BF09CEC09F0C3
:101968001200000183A9BBEF0CF0BDEF0CF0C6EF2D
:101978000CF003C07DF004C07EF005C07FF006C007
:1019880080F083991200000E3901C06F000EC16FFC
:10199800000EC26F000EC36F000EC46F000EC56F3D
:1019A800000EC66F000EC76F12003D0173BFDFEF58
:1019B8000CF0E1EF0CF0E9EF0CF0000E796F000E7F
:1019C8007A6F000E766F6C69738F1200040E3D01FA
:1019D800736F800E746F180E756F030E7B6F000E99
:1019E800796F000E7A6F000E766F6C69120001EF46
:1019F8000DF0D0EC09F015EC08F0000183B507EF05
:101A08000DF009EF0DF0FDEF0CF012003901939382
:101A18009395929F93913D017A917A957A9F7A9DB9
:101A28007A937693769576911200010EAE6E000E3B
:101A3800AD6E000EAF6EF90EAB6E000EAA6E3901D8
:101A4800A495A00EAC6E1200036E3901A7AB2FEF60
:101A58000DF031EF0DF029EF0DF060000FF0D2FD21
:101A6800120008C003F009C004F00AC005F00BC05A
:101A780006F0020EDBEC06F0120008C003F009C005
:101A880004F00AC005F00BC006F0000EDBEC06F00F
:101A98001200620E3901D96F000EDB6F000EDD6F88
:101AA800050EDF6F000EDE6F120000018351FC0B84
:101AB8000209836F7C517C25D5EC0DF0030E1200D2
:101AC8003D0178BB6AEF0DF06DEF0DF0010E6EEF82
:101AD8000DF0000E12003D0174BB75EF0DF078EFAC
:101AE8000DF0010E79EF0DF0000E12003D0178B1F6
:101AF80080EF0DF083EF0DF0010E84EF0DF0000E76
:101B080012003D0179B58BEF0DF08EEF0DF0010E4F
:101B18008FEF0DF0000E12003D0176B996EF0DF033
:101B280099EF0DF0010E9AEF0DF0000E12003D0135
:101B380079BFA1EF0DF0A4EF0DF0010EA5EF0DF0A8
:101B4800000E1200DFEC0DF000018395020E826F8B
:101B58000F0E1200DFEC0DF000018395000E826F6E
:101B68000F0E120012EC0EF00FEC0EF0C4EC0DF09C
:101B7800120000017F51DAEC0DF0F5EC0BF01200C9
:101B880000018395000E826F0F0E12003D01739FB6
:101B9800000E796F78851200046E045028EC0DF061
:101BA8001200036E60000FF06BFD1200036E600000
:101BB8000FF06CFD12003D01739F7885738F120042
:101BC80003C0F4F004C0F5F0120003C0F6F004C03E
:101BD800F7F0120003C0F2F004C0F3F0120003C0E3
:101BE800F0F004C0F1F01200000E57EC0AF01200F9
:101BF80012EC0EF0090E120015EC0EF0040E120095
:101C080015EC0EF0030E1200000E3D01796F120064
:101C18003D016C5112003D01739B12003D01748D12
:101C280012003D01749D12003D016A5112003D01F0
:101C3800738D12003D01739D12003D0179951200CC
:101C48003D01769912003D01799F1200010E1200A4
:101C5800020E1200050E1200010E1200D29A120096
:021C6800120068
:10FEAC0000881BEA17B21A0A09CE0AB80E2C0A7A75
:10FEBC001B581C541C1C19001C081C6C1BF81B5CCC
:10FECC001BD0128A114C1B050000160400001603EF
:10FEDC000000160200001601000016000000165368
:10FEEC00746172742053797374656D202D20526582
:10FEFC006C6F6164696E672044656661756C742013
:10FF0C0056616C756573200D0A0053746172742010
:10FF1C0053797374656D202D205374617274696EFE
:10FF2C0067204D6F746F72202F205053200D0A00E4
:10FF3C0053746172742053797374656D202D205342
:10FF4C0074617274696E672050696E73200D0A00BB
:10FF5C0053746172742053797374656D202D20492C
:10FF6C004F20457870616E646572200D0A00455211
:10FF7C00524F52202D20494F20494E56414C494456
:10FF8C002050494E2025640D0A0053746172742070
:10FF9C0053797374656D202D2046696E697368659D
:10FFAC0064200D0A00537461727420537973746564
:10FFBC006D202D205374617274696E67200D0A00D8
:10FFCC004552524F52202D20494F20494E56414CFC
:10FFDC0049442050494E200D0A005374617274201C
:10FFEC0053797374656D202D20454550524F4D202B
:04FFFC000D0A0000EA
:020000040020DA
:10000000FF0FFF0FFF0FFF0FFF0FFF0FFF0FFF0F80
:020000040030CA
:0A000000ECFFF7FFCCC7FFFFFEFF87
:00000001FF
