:040000000DEF00F010
:0400080091EF0AF07A
:10001800FF00AFEF0AF026EF01F0BA8637EC0AF0DE
:1000280025EC09F0E806D8A41CEF00F01EEF00F05C
:100038005BEF01F04E2ADE0E236EFF0E246EEFEC0E
:100048000BF05BEF01F0CCB62CEF00F02EEF00F0D8
:1000580037EF00F0CB0E236EFF0E246EEFEC0BF0A3
:100068004E2A5BEF01F08C0E236EFF0E246EEFEC30
:100078000BF0020E4F6E080E4E6E5BEF01F0410E54
:10008800236EFF0E246EEFEC0BF0540E2A6E010E59
:100098002B6E1CEC07F0000E446E0F0E436E34EF0F
:1000A80000F055EC0AF043504410D8A45EEF00F07D
:1000B80060EF00F05BEF01F0F0EC05F0A10E3D5CA5
:1000C8000F0E3E58D8A06BEF00F06DEF00F080EFF8
:1000D80000F0A10E3B5C0F0E3C58D8A076EF00F064
:1000E80078EF00F080EF00F07F0E236EFE0E246E96
:1000F800EFEC0BF034EF00F0F60E236EFD0E246EDD
:10010800EFEC0BF0030E4F6E3FEF00F0270E236E5F
:10011800FF0E246EEFEC0BF0BC8A000E446E640EEA
:10012800436E34EF00F055EC0AF043504410D8A465
:10013800A0EF00F0A2EF00F05BEF01F0F0EC05F0AB
:100148003E5007E1640E3D5CD8B0ADEF00F0AFEF74
:1001580000F0C2EF00F03C5007E1640E3B5CD8B001
:10016800B8EF00F0BAEF00F0C2EF00F0740E236EA3
:10017800FF0E246EEFEC0BF034EF00F03E0E236E12
:10018800FE0E246EEFEC0BF0040E4F6E3FEF00F006
:10019800F10E236EFF0E246EEFEC0BF0000E446E92
:1001A800320E436E540E2A6E010E2B6EE3EC06F0EF
:1001B800BC9A070E4E6E5BEF01F0BA86BA944350B4
:1001C8004410D8A4EAEF00F0ECEF00F05BEF01F088
:1001D800BA86BA84000E4E6E5BEF01F04C50D8A47C
:1001E800F8EF00F0FAEF00F007EF01F0010E4C6EA7
:1001F800BA84540E2A6E010E2B6EE3EC06F0BC9AFC
:10020800000E59EC03F04F5059EC03F025EC09F0BF
:10021800E806D8A412EF01F014EF01F05BEF01F04B
:10022800000E4C6E090E4E6E5BEF01F025EC09F0E6
:100238000009D8A422EF01F024EF01F05BEF01F0F0
:10024800EEEF00F04E502F6E306A3050000AD8B4EE
:1002580030EF01F05BEF01F02F50000AD8B411EF36
:1002680000F0010AD8B427EF00F0030AD8B443EF2E
:1002780000F0010AD8B455EF00F0070AD8B48AEFA5
:1002880000F0010AD8B497EF00F0030AD8B4CCEF15
:1002980000F0010AD8B4E1EF00F00F0AD8B4F2EF89
:1002A80000F0010AD8B41AEF01F05BEF01F0120078
:1002B8001050D96EDA6A6F007BFFF6FF6F0077FF88
:1002C800F7FFF86A0800F550250AD8A46EEF01F088
:1002D80070EF01F045EF02F01050D96EDA6ADE2AAD
:1002E800000EDD22000E326E000E316E31C045F078
:1002F800336834681050D96EDA6A6F0078FF15F0E9
:100308006F0074FF16F0600057F0F6FF60005BF0B6
:10031800F7FFF86A0800F550640AD8B496EF01F0C0
:1003280098EF01F0A9EF01F0600057F0F6FF6000C8
:100338005BF0F7FFF86A0800F550690AD8A4A7EF40
:1003480001F0A9EF01F03DEF02F01150D96EDA6A21
:10035800020EDF26DF5CD96EDA6A6F0078FF17F0CD
:100368006F0078FF18F0010E1524126E000E16208B
:10037800136E1050D96EDA6A60004BF0DEFF600031
:100388004FF0DDFF200E1B6E18BECDEF01F0D0EF51
:1003980001F0010ED1EF01F0000E146E1B061B5088
:1003A800840FD96EDA6A17C003F018C004F0000E83
:1003B800066E0A0E056E23EC04F003C009F004C0B3
:1003C8000AF0CAEC0AF00950300FDF6E17C003F0CC
:1003D80018C004F0000E066E0A0E056EC1EC03F09C
:1003E80003C017F004C018F017501810D8B4FFEF66
:1003F80001F001EF02F009EF02F01B50D8A407EF5B
:1004080002F009EF02F0D2EF01F01B50D8B40FEF61
:1004180002F011EF02F032EF02F01450D8B417EFE7
:1004280002F019EF02F032EF02F01B061B50840FA6
:10043800D96EDA6A2D0EDF6E32EF02F01B50840F90
:10044800D96EDA6ADF50126E1250056E066A0EC057
:1004580007F00FC008F0EDEC02F01B2A200E1B1865
:10046800D8A439EF02F03BEF02F022EF02F05BEF85
:1004780002F01050D96EDA6ADE2A000EDD225BEF38
:1004880002F01050D96EDA6A6F007BFFF6FF6F003A
:1004980077FFF7FFF86A0800F550056E066A0EC088
:1004A80007F00FC008F0EDEC02F03DEF02F012008B
:1004B80072EC0CF00009D8B464EF02F066EF02F0B9
:1004C800A0EF02F073EF02F0C0EC0CF0ECEF02F0DA
:1004D8002FEC0DF0ECEF02F0000EECEF02F072C022
:1004E8000CF073C00DF002D884EF02F00500FA6E2C
:1004F80000016651FD6E6751FE6EFF6AFA501200E8
:100508000F6E106A1050000AD8B48DEF02F070EF29
:1005180002F00F50010AD8B470EF02F0030AD8B401
:1005280068EF02F0010AD8B46CEF02F0070AD8B4F9
:1005380070EF02F070EF02F067EC0CF00009D8B42D
:10054800A8EF02F0AAEF02F0EBEF02F000018351EE
:10055800030B0009D8B4B3EF02F0B5EF02F0C1EF16
:1005680002F0010E0F6E8351030B106E0F50105ED8
:1005780083511018FC0B1018836F6000F7F1D9FF36
:100588006000FBF1DAFFDF50136E7D4B7E2B7F0797
:10059800D8A080077F518011D8A4D5EF02F0D7EFFB
:1005A80002F0DFEF02F02EEC06F00F6E0F50116E26
:1005B800126AE3EF02F0000E126E030E116E11C004
:1005C80014F01350D8EC0CF01450ECEF02F0030EBA
:1005D800120007500810D8B4F4EF02F0F6EF02F05A
:1005E800FFEF02F007500810D8A4FDEF02F0FFEF6C
:1005F80002F004EF03F00550D3EC0CF058EF03F0D1
:1006080020EE0AF00750D9260850DA22DE50DE1014
:10061800D8B411EF03F013EF03F02EEF03F020EE40
:100628000AF00750D9260850DA2210EE03F00750D6
:10063800E1260850E222DE50E65CE650800A0D6EA4
:10064800DE50800A0D58D8B02CEF03F02EEF03F0DF
:1006580058EF03F020EE03F00750D9260850DA22AD
:100668006F0078FF09F06F0074FF0AF060001FF058
:10067800D9FF600023F0DAFF6F0078FF0BF06F00FE
:1006880074FF0CF009500B24D96E0A500C20DA6E56
:10069800600017F0DFFF20EE03F00750D92608505E
:1006A800DA22DE2A000EDD221200036E0350D8A4DF
:1006B80060EF03F062EF03F06EEF03F0000E476E99
:1006C800000E386E000E376E000E366E000E356E58
:1006D800C0EF03F052504618D8B475EF03F077EF27
:1006E80003F085EF03F052C046F037503810D8B405
:1006F80080EF03F082EF03F085EF03F03706D8A010
:10070800380637503810D8A48CEF03F08EEF03F07A
:10071800C0EF03F04750D8B494EF03F097EF03F01D
:10072800010E98EF03F0000E476E4750D8A49FEFD4
:1007380003F0A1EF03F0AAEF03F0BA96354A362A80
:10074800000E386E0A0E376EC0EF03F0BA860350FB
:10075800355C000E3658D8B0B4EF03F0B6EF03F0AE
:10076800B8EF03F0A4EF03F0000E366E000E356EFE
:10077800000E386E1E0E376E1200000E086E06BE92
:10078800CAEF03F0C8EF03F0D0EF03F0056C061EC4
:10079800D8B0062A010E086E04BED7EF03F0D5EFD5
:1007A80003F0DDEF03F0036C041ED8B0042A010E39
:1007B800081A000E0A6E000E096E05500610D8B40D
:1007C800E8EF03F0EAEF03F012EF04F0010E076E12
:1007D800F2EF03F0D89005360636072A06AEF7EF93
:1007E80003F0F9EF03F0EEEF03F0D89009360A367C
:1007F8000550035C06500458D8A005EF04F007EF35
:1008080004F00CEF04F00550035E0650045A09800A
:10081800D89006320532072EF9EF03F00850D8B405
:1008280018EF04F01AEF04F01EEF04F0096C0A1E2A
:10083800D8B00A2A09C003F00AC004F01200000E5A
:10084800086E04BE2CEF04F02AEF04F032EF04F037
:10085800036C041ED8B0042A010E086E06BE39EFD8
:1008680004F037EF04F03DEF04F0056C061ED8B035
:10087800062A05500610D8B444EF04F046EF04F0F9
:100888006AEF04F0010E076E4EEF04F0D8900536BB
:100898000636072A06AE53EF04F055EF04F04AEF88
:1008A80004F00550035C06500458D8A05EEF04F02D
:1008B80060EF04F064EF04F00550035E0650045A3C
:1008C800D89006320532072E55EF04F00850D8B4F8
:1008D80070EF04F072EF04F076EF04F0036C041E7E
:1008E800D8B0042A03C003F004C004F012000001C9
:1008F80083899FEF04F01EEC0DF0080ECBEF04F097
:100908001EEC0DF0070ECBEF04F000017F29DDECA3
:100918000CF0040ECBEF04F0070E00018119D8B4D7
:1009280098EF04F09AEF04F09CEF04F021EC0DF03E
:100938000F0ECBEF04F06CC00CF06DC00DF002D8B8
:10094800AFEF04F00500FA6E6051FD6E6151FE6E66
:10095800FF6AFA5012000F6E106A1050000AD8B4DD
:10096800B8EF04F090EF04F00F50010AD8B490EFFC
:1009780004F0030AD8B484EF04F0010AD8B47FEF76
:1009880004F0070AD8B489EF04F090EF04F01200DD
:100998007DEC0CF00009D8A4D4EF04F0D6EF04F0F5
:1009A800D9EF04F0040E1AEF05F000018351030B90
:1009B8000009D8B4E2EF04F0E4EF04F0F0EF04F03B
:1009C800010E116E8351030B126E1150125E83518A
:1009D8001218FC0B1218836F7F07D8A080077F516D
:1009E8008011D8B4FAEF04F0FCEF04F00AEF05F038
:1009F8001BEC0DF06000F7F1D9FF6000FBF1DAFFA6
:100A0800DF6E00017D4B7E2BD6EF04F07BEC04F00B
:100A1800136E1BEC0DF06000F7F1D9FF6000FBF1DD
:100A2800DAFFDF6E00017D4B7E2B13501200390177
:100A3800A39F4250B76E600007F1B6FF5850591097
:100A4800D8B429EF05F02BEF05F037EF05F002D801
:100A580037EF05F00500FA6E5850FD6E5950FE6EDE
:100A6800FF6AFA50120043504410D8B43EEF05F024
:100A780040EF05F043EF05F04306D8A04406525076
:100A8800D8B449EF05F04CEF05F0010E4DEF05F035
:100A9800000E526E5050D8A454EF05F056EF05F0F2
:100AA80065EF05F0090E506E5150D8B45EEF05F0B1
:100AB80061EF05F0010E62EF05F0000E516E66EF72
:100AC80005F050061200036E010E046E000183B794
:100AD80070EF05F072EF05F0ADEF05F003C07CF0A4
:100AE80083958387FC0E83170F0E816F010E7B6F32
:100AF800F40E7A6F8389660E606F1A0E616F000EAE
:100B08006C6F000E6D6F660E626F1A0E636F000ECB
:100B18006E6F000E6F6F660E646F1A0E656F000EB3
:100B2800706F000E716F660E666F1A0E676F000E9B
:100B3800726F000E736F620E686F1A0E696F000E87
:100B4800746F000E756F0BEC0DF0CDEC0BF0000E12
:100B5800046E04501200F20E236EFE0E246EEFECAB
:100B68000BF05B0E236EFF0E246EEFEC0BF09D0E68
:100B7800236EFE0E246EEFEC0BF0540E1C6E000E6E
:100B88001D6E52EC09F0CB0E236EFD0E246EEFECB9
:100B98000BF05F0E236EFE0E246EEFEC0BF0BA86A0
:100BA800BA84BC9A540E2A6E010E2B6EE3EC06F042
:100BB8001B0E236EFE0E246EEFEC0BF0BC90540E51
:100BC8002A6E000E2B6EE3EC06F0D70E236EFE0E97
:100BD800246EEFEC0BF01200000E0B6E000E0A6E86
:100BE800000E0D6E000E0C6E000E0E6E000EE4EC84
:100BF8000AF003500A2604500B22010EE4EC0AF016
:100C080003500C2604500D220E2A090E0E640FEF15
:100C180006F011EF06F0FAEF05F00AC003F00BC07A
:100C280004F0000E066E0A0E056EA9EC06F003C06D
:100C38003DF004C03EF00CC003F00DC004F0000EFF
:100C4800066E0A0E056EA9EC06F003C03BF004C060
:100C58003CF012000001838943EF06F01EEC0DF012
:100C6800070E6BEF06F000017F29DDEC0CF0030E98
:100C78006BEF06F021EC0DF00A0E6BEF06F06CC07E
:100C88000CF06DC00DF002D853EF06F00500FA6EB7
:100C98006051FD6E6151FE6EFF6AFA5012000F6ED0
:100CA800106A1050000AD8B45CEF06F03EEF06F068
:100CB8000F50010AD8B43EEF06F0030AD8B432EF59
:100CC80006F0060AD8B437EF06F03EEF06F0120039
:100CD800A4EC09F000018351030B0009D8B477EFA5
:100CE80006F079EF06F086EF06F072EC0CF00009DA
:100CF800D8B481EF06F083EF06F086EF06F0100E09
:100D08000001816F00018151020DA50EF324F66EDA
:100D1800FD0EF420F76EF86A000EF82209006F0045
:100D2800D4FF15F009006F00D4FF16F002D8A6EF23
:100D380006F00500FA6E1550FD6E1650FE6EFF6A3D
:100D4800FA5012000001816F1200000E086E000EAA
:100D5800076E05500610D8B4B4EF06F0B6EF06F0EB
:100D6800DEEF06F0010E096EBEEF06F0D8900536EC
:100D78000636092A06AEC3EF06F0C5EF06F0BAEF4D
:100D880006F0D890073608360550035C065004581C
:100D9800D8A0D1EF06F0D3EF06F0D8EF06F0055053
:100DA800035E0650045A0780D89006320532092E91
:100DB800C5EF06F007C003F008C004F01200070EE4
:100DC8002B64E9EF06F0EBEF06F0F6EF06F0BB0E4A
:100DD800236EFE0E246E2BC025F0266AEFEC0BF076
:100DE800F4EF06F02BC02CF0010E2D6E2C2AFFEF2D
:100DF80006F0D8902D362C2EFDEF06F02D50FF0A68
:100E08002E6E2A50D96EDA6A020ED9262E50DF16B7
:100E1800010E196E2A50D96EDA6A020ED926DF50F1
:100E28001A6E2A50D96EDA6ADF508CEC07F012007D
:100E3800070E2B6422EF07F024EF07F02FEF07F0DF
:100E4800BB0E236EFE0E246E2BC025F0266AEFEC37
:100E58000BF02DEF07F02BC02CF0010E2D6E2C2A75
:100E680038EF07F0D8902D362C2E36EF07F02D509E
:100E78002E6E2A50D96EDA6A020ED9262E50DF124B
:100E8800010E196E2A50D96EDA6A020ED926DF5081
:100E98001A6E2A50D96EDA6ADF508CEC07F012000D
:100EA8000BEC0DF0020E0001826F67EF07F0C0EC4B
:100EB8000CF08BEF07F02FEC0DF08BEF07F0B1EC97
:100EC8000CF08BEF07F06EC00CF06FC00DF002D87D
:100ED80077EF07F00500FA6E6251FD6E6351FE6E02
:100EE800FF6AFA5012000F6E106A1050000AD8B448
:100EF80080EF07F063EF07F00F50020AD8B45BEFFA
:100F080007F0010AD8B45FEF07F063EF07F01200AB
:100F18001B6ED29E1B5067EC05F00009D8B497EF02
:100F280007F099EF07F08EEF07F0280E086E160EFF
:100F3800096E1A0E0A6E0B6A44EC0CF0190E036E59
:100F4800046A000E066E010E056EA9EC0BF0000E89
:100F5800086E000E096E000E0A6E000E0B6E38EC5D
:100F68000CF0FBEC0CF06CEC0BF0E806D8B4BFEF1F
:100F780007F0C1EF07F0B7EF07F0D28E1200076E47
:100F880003500410D8B4CBEF07F0CDEF07F0E7EF2C
:100F980007F00750020DF350600FD96EDA6A60004F
:100FA8000FF0DEFF600013F0DDFF0750020DF35075
:100FB8006C0FD96EDA6A600017F0DEFF60001BF074
:100FC800DDFFF9EF07F00750020DF350600FD96EFF
:100FD800DA6A660EDE6E1A0EDD6E0750020DF350E9
:100FE8006C0FD96EDA6ADE6ADD6A1200000EBA6E1C
:100FF800000EBB6E000EBC6EC30EC26EDC0EC36E5E
:101008009C0EC46E670E3A01606F2C0E506F4069DB
:10101800000E816F000E516F000E416F180E616F48
:10102800000E426F030E526F000E626F43695369E0
:101038006369446954696469080E846F0F0EEA6F26
:10104800090EE46F220E096F210E086F160E0D6F40
:10105800080EE36F1200FC0E00018317020E826F68
:1010680083953EEF08F02DEC0DF062EF08F00F0EBF
:1010780062EF08F070C00CF071C00DF002D84EEFAE
:1010880008F00500FA6E6451FD6E6551FE6EFF6A48
:10109800FA5012000F6E106A1050000AD8B457EFB9
:1010A80008F03BEF08F00F50020AD8B437EF08F009
:1010B800010AD8B437EF08F03BEF08F01200000E31
:1010C8003D01D46F000ED56F000ED66F000ED76F9E
:1010D800000ED86F000ED96FA00EDA6F800EDB6F8E
:1010E800000EDC6F080EDD6F000EDE6F000EDF6F86
:1010F800000EE06F000EE16F000EE26F000E036E4F
:10110800000E046EECEC0CF0000E036E000E046E84
:10111800E7EC0CF0000E036E000E046EF1EC0CF020
:10112800000E536E120096EC0BF0D29EAFEC05F059
:10113800D28E18EC0AF00FEC00F051504D18D8B4CC
:10114800A8EF08F0AAEF08F09DEF08F051C04DF0A5
:10115800A30E236EFF0E246E4EC025F0266AEFEC18
:101168000BF0F0EC05F0B70E236EFF0E246E3DC0B9
:1011780025F03EC026F03BC027F03CC028F0EFEC3D
:101188000BF09DEF08F00DEF00F03901A3A1CFEFB0
:1011980008F0D1EF08F0D3EF08F0F6EF08F0A2AFAF
:1011A800D8EF08F0DAEF08F0DCEF08F0F6EF08F017
:1011B8003D0179A5E2EF08F0E4EF08F0E6EF08F06A
:1011C800F6EF08F079AFEBEF08F0EDEF08F0EFEF8E
:1011D80008F0F6EF08F076A9F4EF08F0F6EF08F05B
:1011E800C9EF08F01200000E3E01DE6F000EDF6F3F
:1011F800000EE06F000EE16F000EE46F000EE56F69
:10120800000EEA6F000EEC6F000EF16F000EF36F28
:10121800000EF46F000EF56F000EF66F000EF76FFC
:10122800000EF96F000EFA6F000EFB6F000EFC6FD8
:10123800000EFD6F000EFE6F010EFF6F940EF86F2B
:101248001200CCB82AEF09F02CEF09F03FEF09F0B3
:101258003A5009E1650E395CD8A035EF09F037EF4F
:1012680009F03BEF09F0010E4A6E50EF09F0394AD8
:101278003A2A50EF09F0000E3A6E000E396E4A0411
:10128800D8A449EF09F04BEF09F050EF09F0000E30
:101298004A6E010E51EF09F0000E12001C50D96E73
:1012A800DA6A200EDF6E1C50D96EDA6A030ED92670
:1012B800DF6A1C50D96EDA6A020ED926DF6A1C5022
:1012C800D96EDA6A010ED926600077F0DFFF030EC7
:1012D800196E1C50D96EDA6A010ED926DF501A6EC3
:1012E8001C50D96EDA6ADF508CEC07F01200176ECA
:1012F800010E186E000183B584EF09F086EF09F03E
:10130800A2EF09F08385000E186E7F51DDEC0CF01A
:101318001750D8B492EF09F094EF09F09BEF09F059
:10132800040E0001816FFDEC0AF0A0EF09F0030E36
:101338000001816F5CEC0CF0FEEC0BF01850120011
:101348009EEC0CF00009D8B4ACEF09F0AEEF09F050
:10135800B2EF09F02AEC0DF0CCEF09F088EC0CF0B4
:101368000009D8B4BAEF09F0BCEF09F0C0EF09F0F2
:1013780024EC0DF0CCEF09F093EC0CF00009D8B494
:10138800C8EF09F0CAEF09F0CCEF09F027EC0DF02F
:1013980012001EC021F01FC022F0DDEF09F01CC0B2
:1013A8000EF01DC00FF0210E106E20C011F05CEC85
:1013B80001F0600087F0F6FF60008BF0F7FFF86A35
:1013C8000800F5500009D8A4ECEF09F0EEEF09F099
:1013D800D3EF09F0000E1D6E000E1C6E120020EEF9
:1013E80002F00C50D9260D50DA22DF500E6E0EC0D6
:1013F80003F0046A600033F0D9FF600037F0DAFFC9
:101408006F0078FF05F06F0074FF06F0A9EC0BF091
:10141800000E086E000E096E000E0A6E000E0B6EAE
:1014280044EC0CF0020E12004B505218D8B41FEFC7
:101438000AF021EF0AF036EF0AF052C04BF0BABAC0
:1014480028EF0AF02BEF0AF0010E2CEF0AF0000E3D
:10145800FF0A036E033A0346BA500318DF0B03185A
:10146800BA6E0400120051504818D8B43EEF0AF082
:1014780040EF0AF054EF0AF051C048F0BAB447EF11
:101488000AF04AEF0AF0010E4BEF0AF0000EFF0ACD
:10149800036E03460346BA500318FB0B0318BA6ED3
:1014A800120052504918D8B45CEF0AF05EEF0AF007
:1014B80072EF0AF052C049F0BAB465EF0AF068EF6B
:1014C8000AF0010E69EF0AF0000EFF0A036E0346E8
:1014D8000346BA500318FB0B0318BA6E1200530EDA
:1014E800B96ECF0EB76E2C0EB66EB6506F00DCFE1E
:1014F80005F0066A05C006F0056A0510416E06503B
:10150800426E3901A39F938F6E0E036E1A0E046EFE
:10151800F6EC0CF0900EB86E12006F00E8FF01F0C8
:101528006F00ECFF02F0390193AF9DEF0AF09FEFD7
:101538000AF0A8EF0AF0A3AFA4EF0AF0A6EF0AF0AA
:10154800A8EF0AF01BEC05F060000BF0FBFF600051
:1015580007F0FAFF110000EE00F1360EEE6AE80619
:10156800FDE100EE60F0840EEE6AE806FDE100EEB3
:1015780031F0270EEE6AE806FDE1080ED56E000E82
:10158800D66E000ED76E000197EF08F00ABECFEFB7
:101598000AF0D1EF0AF0D7EF0AF009C009F00AC043
:1015A8000AF0E3EF0AF009C00BF00AC00CF00B1EBA
:1015B8000C1E0B4A0C2A0BC009F00CC00AF01200D2
:1015C800076E60001FF0F1FE3E01F88FF89DF8816C
:1015D800F8B1F1EF0AF0F3EF0AF0ECEF0AF0F0518E
:1015E800066E056AEF510524036E000E0620046E90
:1015F800120000018351FC0B0209836F7F058011E3
:10160800D8A409EF0BF00BEF0BF00DEF0BF07BEC10
:1016180004F0D88000017C35D8EC0CF0040E1200E0
:101628000CC003F00DC004F0000E066E010E056E2E
:10163800A9EC0BF0000E086E000E096E000E0A6E83
:10164800000E0B6E44EC0CF0040E12000CC003F0FC
:101658000DC004F0000E066E020E056EA9EC0BF02C
:10166800000E086E000E096E000E0A6E000E0B6E5C
:1016780044EC0CF0020E12000CC003F00DC004F094
:10168800000E066E010E056EA9EC0BF0000E086E3A
:10169800000E096E000E0A6E000E0B6E44EC0CF084
:1016A800020E12000CC003F00DC004F0000E066E0E
:1016B800020E056EA9EC0BF0000E086E000E096E06
:1016C800000E0A6E000E0B6E44EC0CF0040E1200B5
:1016D800010E036E000183B574EF0BF076EF0BF08B
:1016E80080EF0BF083977C690BEC0DF00DEC0CF0A0
:1016F800CDEC0CF082C003F00350120012EC0DF098
:101708000FEC0DF00009D8B48CEF0BF08EEF0BF056
:1017180094EF0BF0000EDDEC0CF0000ED8EC0CF0A2
:10172800000E120035EC0DF0BBEC0BF0DEEC0BF00C
:10173800FAEC07F050EC0CF0F7EC08F01CEC0CF0AD
:1017480073EC0AF063EC08F01200000183A9AFEF14
:101758000BF0B1EF0BF0BAEF0BF003C07DF004C053
:101768007EF005C07FF006C080F083991200000E5D
:101778003901C06F000EC16F000EC26F000EC36F3B
:10178800000EC46F000EC56F000EC66F000EC76F47
:1017980012003D0173BFD3EF0BF0D5EF0BF0DDEF77
:1017A8000BF0000E796F000E7A6F000E766F6C6981
:1017B800738F1200040E3D01736F800E746F180E44
:1017C800756F030E7B6F000E796F000E7A6F000E37
:1017D800766F6C691200250E296E000E1C6E000EC5
:1017E8001D6E23C01EF024C01FF0290E206ECDEC04
:1017F80009F0120004EF0CF0C9EC08F06CEC06F0EC
:10180800000183B50AEF0CF00CEF0CF000EF0CF0C0
:101818001200390193939395929F93913D017A9188
:101828007A957A9F7A9D7A93769376957691120037
:10183800010EAE6E000EAD6E000EAF6EF90EAB6E01
:10184800000EAA6E3901A495A00EAC6E1200036EAC
:101858003901A7AB32EF0CF034EF0CF02CEF0CF0A1
:1018680060000FF0D2FD120008C003F009C004F0B8
:101878000AC005F00BC006F0020EC3EC07F0120018
:1018880008C003F009C004F00AC005F00BC006F058
:10189800000EC3EC07F01200620E3901D96F000E7A
:1018A800DB6F000EDD6F050EDF6F000EDE6F1200BE
:1018B80000018351FC0B0209836F7C517C25D8EC15
:1018C8000CF0030E12003D0178BB6DEF0CF070EFC9
:1018D8000CF0010E71EF0CF0000E12003D0174BB0C
:1018E80078EF0CF07BEF0CF0010E7CEF0CF0000EA3
:1018F80012003D0178B183EF0CF086EF0CF0010E79
:1019080087EF0CF0000E12003D0179B58EEF0CF058
:1019180091EF0CF0010E92EF0CF0000E12003D0159
:1019280076B999EF0CF09CEF0CF0010E9DEF0CF0DE
:10193800000E12003D0179BFA4EF0CF0A7EF0CF0E8
:10194800010EA8EF0CF0000E1200E2EC0CF0000102
:101958008395020E826F0F0E1200E2EC0CF000016C
:101968008395000E826F0F0E120015EC0DF012EC2D
:101978000DF0C7EC0CF0120000017F51DDEC0CF00B
:10198800FDEC0AF0120000018395000E826F0F0E25
:1019980012003D01739F000E796F78851200046E66
:1019A80004502BEC0CF01200036E60000FF06BFD7E
:1019B8001200036E60000FF06CFD12003D01739F72
:1019C8007885738F120003C0E6F004C0E7F01200B8
:1019D80003C05AF004C05BF0120003C0E4F004C076
:1019E800E5F0120003C058F004C059F01200000ED0
:1019F8007BEC09F0120015EC0DF0090E120018EC42
:101A08000DF0040E120018EC0DF0030E1200000E7B
:101A18003D01796F12003D016C5112003D01739B2D
:101A280012003D01748D12003D01749D12003D01AC
:101A38006A5112003D01738D12003D01739D120021
:101A48003D01799512003D01769912003D01799F7B
:101A58001200010E1200020E1200050E1200010EF5
:081A68001200D29A12001200D4
:10FDA400008E19FA15B818B80498095C0CF6088086
:10FDB400195E1A5A1A0417061A0E1A7219FE1962D3
:10FDC400195E10A80E52195374617274205379731A
:10FDD40074656D202D2052656C6F6164696E6720B7
:10FDE40044656661756C742056616C756573200D8D
:10FDF4000A0053686F7274206369726375697420B2
:10FE040077697468206672616D65206465746563E2
:10FE1400746564200D0A00537461727420537973FD
:10FE240074656D202D205374617274696E6720505F
:10FE340053202F205053200D0A00436F6E746163CA
:10FE44007420766F6C7461676520686967682064E4
:10FE540065746563746564200D0A0053746172747B
:10FE64002053797374656D202D2053746172746905
:10FE74006E672050696E73200D0A0053686F7274A8
:10FE84002063697263756974206E6F74206465748D
:10FE94006563746564200D0A0053746172742053A1
:10FEA400797374656D202D20494F20457870616EFB
:10FEB400646572200D0A004552524F52202D20498C
:10FEC4004F20494E56414C49442050494E20256408
:10FED4000D0A0053746172742053797374656D2034
:10FEE4002D2046696E6973686564200D0A00537499
:10FEF4006172742053797374656D202D205374617D
:10FF04007274696E67200D0A004552524F52202DBB
:10FF140020494F20494E56414C49442050494E20D7
:10FF24000D0A0052656C6179206E656761746976AB
:10FF34006520706F7765726564200D0A0052656CE8
:10FF4400617920706F73697469766520706F776565
:10FF5400726564200D0A00537461727420537973BE
:10FF640074656D202D20454550524F4D200D0A00DB
:10FF7400436F6E7461637420766F6C74616765207F
:10FF84004F4B2121200D0A004672616D65206E6F72
:10FF94007420636F6E6E6563746564200D0A00736C
:10FFA40074617465206D616368696E6520256420E1
:10FFB4000D0A00616463313D25642C206164633261
:10FFC4003D2564200D0A004672616D6520636F6EE5
:10FFD4006E6563746564200D0A00427574746F6EF7
:10FFE400206465746563746564200D0A0052656C51
:0CFFF400617973204F4646200D0A000082
:020000040020DA
:10000000FF0FFF0FFF0FFF0FFF0FFF0FFF0FFF0F80
:020000040030CA
:0A000000ECFFF7FFCCC7FFFFFEFF87
:00000001FF
