:040000000DEF00F010
:040008003BEF41F099
:10001800FF00D7EF40F0000E0001B66F000EB56F7D
:1000280005EF07F020EE07F08851D9268951DA222A
:10003800DF508A6F20EE06F08851D9268951DA22DE
:10004800DF508B6F8A51B56F8BC0B6F0B5C003F027
:10005800B6C004F0000E066E640E056EB7EC3EF0F6
:1000680003C0B5F004C0B6F00001B551010146194E
:100078000BE10001B65101014719D8B446EF00F071
:1000880048EF00F057EF00F0B5C046F1B6C047F1B1
:10009800A00E00016D6FF70E6E6FB5C06FF0B6C0A1
:1000A80070F005EC46F0000120EE09F08851D926E1
:1000B8008951DA22DF508A6F20EE08F08851D9265C
:1000C8008951DA22DF508B6F8A51B56F8BC0B6F039
:1000D800B5C003F0B6C004F0000E066E640E056EDF
:1000E800B7EC3EF003C0B5F004C0B6F00001B5515E
:1000F800010148190BE10001B65101014919D8B4B1
:1001080088EF00F08AEF00F099EF00F0B5C048F1F1
:10011800B6C049F1CB0E00016D6FF60E6E6FB5C01B
:100128006FF0B6C070F005EC46F0000120EE0BF061
:100138008851D9268951DA22DF508A6F20EE0AF0D9
:100148008851D9268951DA22DF508B6F8A51B56FD1
:100158008BC0B6F0B5C003F0B6C004F0000E066E52
:10016800640E056EB7EC3EF003C0B5F004C0B6F0FF
:100178000001B55101014A190BE10001B651010115
:100188004B19D8B4CAEF00F0CCEF00F0DBEF00F069
:10019800B5C04AF1B6C04BF1C30E00016D6FF70E42
:1001A8006E6FB5C06FF0B6C070F005EC46F0000198
:1001B80020EE0DF08851D9268951DA22DF508A6F56
:1001C80020EE0CF08851D9268951DA22DF508B6F46
:1001D8008A51B56F8BC0B6F0B5C003F0B6C004F055
:1001E800000E066E640E056EB7EC3EF003C0B5F067
:1001F80004C0B6F00001B55101014C190BE1000132
:10020800B65101014D19D8B40CEF01F00EEF01F011
:100218008FEF07F0B5C04CF1B6C04DF1EF0E0001FD
:100228006D6FF60E6E6FB5C06FF0B6C070F005EC6E
:1002380046F08FEF07F020EE06F08851D926895155
:10024800DA22DF50B46FB45101014119D8B42FEF4D
:1002580001F031EF01F045EF01F0B4C041F10001C8
:10026800B4519AEC41F034C042F135C043F1150E57
:1002780000016D6FF90E6E6FB4C06FF0706B05EC16
:1002880046F0000120EE08F08851D9268951DA227B
:10029800DF508A6F20EE07F08851D9268951DA227B
:1002A800DF508B6F8A51B56F8BC0B6F0B5C003F0C5
:1002B800B6C004F0000E066E640E056EB7EC3EF094
:1002C80003C0B5F004C0B6F00001B55101014E19E4
:1002D8000BE10001B65101014F19D8B476EF01F0D6
:1002E80078EF01F087EF01F0B5C04EF1B6C04FF1DD
:1002F800130E00016D6FF70E6E6FB5C06FF0B6C0CC
:1003080070F005EC46F0000120EE0AF08851D9267D
:100318008951DA22DF508A6F20EE09F08851D926F8
:100328008951DA22DF508B6F8A51B56F8BC0B6F0D6
:10033800B5C003F0B6C004F0000E066E640E056E7C
:10034800B7EC3EF003C0B5F004C0B6F00001B551FB
:10035800010150190BE10001B65101015119D8B43E
:10036800B8EF01F0BAEF01F0C9EF01F0B5C050F1F4
:10037800B6C051F15E0E00016D6FF60E6E6FB5C01E
:100388006FF0B6C070F005EC46F0000120EE0CF0FE
:100398008851D9268951DA22DF508A6F20EE0BF076
:1003A8008851D9268951DA22DF508B6F8A51B56F6F
:1003B8008BC0B6F0B5C003F0B6C004F0000E066EF0
:1003C800640E056EB7EC3EF003C0B5F004C0B6F09D
:1003D8000001B551010154190BE10001B6510101A9
:1003E8005519D8B4FAEF01F0FCEF01F08FEF07F0E0
:1003F800B5C054F1B6C055F1E20E00016D6FF40EB0
:100408006E6FB5C06FF0B6C070F005EC46F08FEFB8
:1004180007F020EE07F08851D9268951DA22DF50FB
:100428008A6F20EE06F08851D9268951DA22DF50EA
:100438008B6F8A51B56F8BC0B6F0B5C003F0B6C0EC
:1004480004F0000E066E640E056EB7EC3EF003C0B5
:10045800B5F004C0B6F00001B551010152190BE125
:100468000001B65101015319D8B43DEF02F03FEF36
:1004780002F04EEF02F0B5C052F1B6C053F1A40E2F
:1004880000016D6FF50E6E6FB5C06FF0B6C070F0FD
:1004980005EC46F0000120EE08F08851D926895174
:1004A800DA22DF50B46FB45101015619D8B45FEFA6
:1004B80002F061EF02F08FEF07F0B4C056F1830E3F
:1004C80000016D6FF60E6E6FB4C06FF0706B05ECC7
:1004D80046F08FEF07F020EE07F08851D9268951B2
:1004E800DA22DF508A6F20EE06F08851D92689512A
:1004F800DA22DF508B6F8A51B56F8BC0B6F0B551D9
:10050800010144190BE10001B65101014519D8B4A4
:1005180090EF02F092EF02F08FEF07F0B5C044F1D0
:10052800B6C045F1F00E00016D6FF30E6E6FB5C0E9
:100538006FF0B6C070F005EC46F08FEF07F020EED4
:1005480006F08851D9268951DA22750EDE18D8A40A
:10055800B0EF02F0B2EF02F08FEF07F020EE09F0F3
:100568008851D9268951DA22DF508A6F8AC08BF0E8
:100578008C6B8D6B8E6B8DC08EF08CC08DF08BC0AC
:100588008CF08B6B20EE08F08851D9268951DA223D
:10059800DF508F6F8FC090F0916B926B936B91C00F
:1005A80093F090C092F0916B906B20EE07F0885119
:1005B800D9268951DA22DF50946F94C095F0966B52
:1005C800976B986B95C098F0976B966B956B90515D
:1005D8009511996F915196119A6F925197119B6F3E
:1005E800935198119C6F8B5199119D6F8C519A1151
:1005F8009E6F8D519B119F6F8E519C11A06F20EEA5
:100608000AF08851D9268951DA22DF50A16FA15109
:100618009D11A26F9E51A36F9F51A46FA051A56F0A
:10062800A2C003F0A3C004F0A4C005F0A5C006F062
:10063800D8EC43F0E806D8A424EF03F026EF03F043
:100648006CEF03F0F50E00016D6FFA0E6E6F05EC9E
:1006580046F0F70E00017B6F000E7C6F000E7D6F79
:100668008BEC3CF0010E0001ED6FBC90010EEE6FBB
:100678000D0E00018A6FFB0EE82EFED78A2FFCD7DD
:1006880000D04BEF03F01EEC44F024EC20F0F4EC27
:1006980026F00009D8B453EF03F055EF03F047EF05
:1006A80003F00A0E00016D6FF50E6E6F05EC46F053
:1006B800060E00018B6F130E8A6FAD0EE82EFED763
:1006C8008A2FFCD78B2FFAD700D0FF008FEF07F0C7
:1006D800190E00016D6FF40E6E6F05EC46F08FEF8A
:1006E80007F020EE07F08851D9268951DA22DF5029
:1006F800B46F040E01013F19D8B485EF03F087EFFA
:1007080003F08FEF07F00001B451E319D8B48FEF6D
:1007180003F091EF03F08FEF07F0B4C0E3F0360E6B
:100728006D6FF90E6E6FB4C06FF0706B05EC46F02C
:100738008FEF07F020EE06F08851D9268951DA228A
:10074800DF50B46F040E01013F19D8B4AEEF03F0C7
:10075800B0EF03F0C5EF03F00001B451E219D8B4CB
:10076800B8EF03F0BAEF03F0C5EF03F0B4C0E2F05E
:10077800D60E6D6FFA0E6E6FB4C06FF0706B05EC2D
:1007880046F0000120EE08F08851D9268951DA2276
:10079800DF50B46FB429D8B4D4EF03F0D7EF03F027
:1007A800010ED8EF03F0000EF36F20EE0BF0885126
:1007B800D9268951DA22DF50B46F330EB419D8A480
:1007C800E8EF03F0EAEF03F00CEF04F001013F0556
:1007D800D8B4F1EF03F0F3EF03F00CEF04F0010EDF
:1007E8003E6F000E0001E66F000EE56F000E01017E
:1007F800886F000E876F000E866F000E856F7D0E66
:1008080000016D6FF70E6E6F05EC46F08FEF07F085
:10081800350E0001B419D8A414EF04F016EF04F053
:100828008FEF07F0030E01013F19D8B41EEF04F053
:1008380020EF04F08FEF07F0030E3E6F000E00016B
:10084800E66F000EE56F000E0101886F000E876FDE
:10085800000E866F000E856F390E00016D6FF60E63
:100868006E6F05EC46F08FEF07F020EE06F088512A
:10087800D9268951DA22DE04D8A445EF04F047EFDF
:1008880004F08FEF07F020EE09F08851D92689513E
:10089800DA22DF508A6F8AC08BF08C6B8D6B8E6B7F
:1008A8008DC08EF08CC08DF08BC08CF08B6B20EEE1
:1008B80008F08851D9268951DA22DF508F6F8FC00E
:1008C80090F0916B926B936B91C093F090C092F003
:1008D800916B906B20EE07F08851D9268951DA2266
:1008E800DF50946F94C095F0966B976B986B95C09A
:1008F80098F0976B966B956B90519511996F9151F4
:1009080096119A6F925197119B6F935198119C6F02
:100918008B5199119D6F8C519A119E6F8D519B111E
:100928009F6F8E519C11A06F20EE0AF08851D92636
:100938008951DA22DF50A16FA1519D11A66F9E51F6
:10094800A76F9F51A86FA051A96FA6C003F0A7C0B9
:1009580004F0A8C005F0A9C006F0D8EC43F0E806FA
:10096800D8A4B9EF04F0BBEF04F0CBEF04F054C106
:100978009DF155C19EF1020E01013E6F9D0E0001D1
:100988006D6FFC0E6E6F05EC46F08FEF07F0FA0EF8
:1009980000016D6FFB0E6E6F05EC46F08FEF07F0F0
:1009A800030E01013F19D8B4DCEF04F0DEEF04F0C8
:1009B800E7EF04F0040E3F19D8A4E5EF04F0E7EFE1
:1009C80004F08FEF07F0000120EE06F08851D926D9
:1009D8008951DA22DF50B46F040E01013F19D8B4EF
:1009E800F8EF04F0FAEF04F02AEF05F0AA0E000180
:1009F800B419D8A402EF05F004EF05F08FEF07F063
:100A0800040E01013E6F000120EE07F08851D9263F
:100A18008951DA22DF50B26FB2510A0D6F00CCFF54
:100A280091F16F00D0FF92F1A70E6D6FF60E6E6F09
:100A380005EC46F0C20E00016D6FFE0E6E6FB2C07F
:100A48006FF0706B05EC46F08FEF07F0BB0E0001FE
:100A5800B419D8A432EF05F034EF05F08FEF07F0A2
:100A6800EF0E6D6FF50E6E6F05EC46F0780E000117
:100A78006D6FF90E6E6F05EC46F00B0E00018B6F73
:100A8800260E8A6F5D0EE82EFED78A2FFCD78B2F95
:100A9800FAD700D0FF008FEF07F020EE06F088515C
:100AA800D9268951DA22DF50B46F840EB419D8A43C
:100AB80060EF05F062EF05F003EF06F020EE09F0B5
:100AC8008851D9268951DA22DF508A6F8AC08BF083
:100AD8008C6B8D6B8E6B8DC08EF08CC08DF08BC047
:100AE8008CF08B6B20EE08F08851D9268951DA22D8
:100AF800DF508F6F8FC090F0916B926B936B91C0AA
:100B080093F090C092F0916B906B20EE07F08851B3
:100B1800D9268951DA22DF50946F94C095F0966BEC
:100B2800976B986B95C098F0976B966B956B9051F7
:100B38009511996F915196119A6F925197119B6FD8
:100B4800935198119C6F8B5199119D6F8C519A11EB
:100B58009E6F8D519B119F6F8E519C11A06F20EE3F
:100B68000AF08851D9268951DA22DF50A16FA151A4
:100B78009D11AA6F9E51AB6F9F51AC6FA051AD6F85
:100B8800AAC003F0ABC004F0ACC005F0ADC006F0DD
:100B9800D8EC43F0E806D8A4D4EF05F0D6EF05F07A
:100BA800FCEF05F0000E046E000E036E000E056EDD
:100BB8006BEC43F0070E00016D6FFD0E6E6F05ECD8
:100BC80046F0ED0E00016D6FFC0E6E6F05EC46F001
:100BD8000B0E00018B6F260E8A6F5D0EE82EFED776
:100BE8008A2FFCD78B2FFAD700D0FF0003EF06F02F
:100BF800EF0E00016D6FFE0E6E6F05EC46F00A0EEB
:100C08000001B419D8A40BEF06F00DEF06F08FEF32
:100C180007F0000EB36F20EE0DF08851D9268951E8
:100C2800DA22DF50B46FB451DB19D8B41EEF06F0E6
:100C380020EF06F02DEF06F0010EB36FB4C0DBF025
:100C4800D20E6D6FFF0E6E6FDBC06FF0706B05EC30
:100C580046F0000120EE0CF08851D9268951DA229D
:100C6800DF50B46FB451DC19D8B43DEF06F03FEF54
:100C780006F04CEF06F0010EB36FB4C0DCF0900E36
:100C88006D6FFF0E6E6FDCC06FF0706B05EC46F099
:100C9800000120EE0BF08851D9268951DA22DF5065
:100CA800B46FB451DD19D8B45CEF06F05EEF06F00E
:100CB8006BEF06F0010EB36FB4C0DDF0E20E6D6F9E
:100CC800FF0E6E6FDDC06FF0706B05EC46F0000133
:100CD80020EE09F08851D9268951DA22DF508A6F2F
:100CE8008AC08BF08C6B8D6B8E6B8DC08EF08CC038
:100CF8008DF08BC08CF08B6B20EE08F08851D926D4
:100D08008951DA22DF508F6F8FC090F0916B926B10
:100D1800936B91C093F090C092F0916B906B20EE22
:100D280007F08851D9268951DA22DF50946F94C090
:100D380095F0966B976B986B95C098F0976B966B40
:100D4800956B90519511996F915196119A6F925197
:100D580097119B6F935198119C6F8B5199119D6FAF
:100D68008C519A119E6F8D519B119F6F8E519C11C2
:100D7800A06F20EE0AF08851D9268951DA22DF5077
:100D8800A16FA1519D11AE6F9E51AF6F9F51B06F72
:100D9800A051B16FAE51DE190FE1AF51DF190CE16F
:100DA800B051E01909E1B151E119D8B4DEEF06F00C
:100DB800E0EF06F0F8EF06F0010EB36FAEC0DEF01C
:100DC800AFC0DFF0B0C0E0F0B1C0E1F0C20E6D6FAF
:100DD800FB0E6E6FDEC06FF0DFC070F0E0C071F028
:100DE800E1C072F005EC46F00001B305D8A4FFEFAE
:100DF80006F001EF07F08FEF07F048EC3CF08FEFBB
:100E080007F020EE01F08851D9268951DA226F00C7
:100E180078FF8AF06F0078FF8BF06F0078FF8CF016
:100E28006F0078FF8DF08D51030AD8B476EF07F084
:100E38000A0AD8B47DEF07F0100AD8B488EF07F093
:100E48008FEF07F08B51520AD8B42DEF07F08FEFD0
:100E580007F08A51000AD8B475EF03F08FEF07F056
:100E68008B51500AD8B43BEF07F08FEF07F08A5147
:100E7800020AD8B416EF00F0010AD8B41FEF01F047
:100E8800070AD8B40DEF02F0010AD8B439EF04F01C
:100E9800030AD8B4D4EF04F0010AD8B46FEF02F013
:100EA8000F0AD8B4A3EF02F08FEF07F08B51530A63
:100EB800D8B461EF07F08FEF07F08A51000AD8B471
:100EC8009EEF03F08FEF07F08B51160AD8B46FEF3F
:100ED80007F08FEF07F08A510F0AD8B451EF05F0E9
:100EE8008FEF07F08C51F80AD8B426EF07F08FEF90
:100EF80007F08C51B00AD8B434EF07F0480AD8B4D8
:100F08005AEF07F08FEF07F08C51F80AD8B468EF62
:100F180007F08FEF07F012006000F7F0D9FF6000CC
:100F2800FBF0DAFF6F007BFFF6FF6F0077FFF7FF3C
:100F3800F86A0800F550250AD8A4A5EF07F0A7EF2E
:100F480007F01CEF0BF06000F7F0D9FF6000FBF032
:100F5800DAFFDE2A000EDD22000E0101826F000E8C
:100F6800816F81C1ADF1586859686000F7F0D9FF09
:100F78006000FBF0DAFF6F0078FF6BF06F0074FF22
:100F88006CF06000AFF1F6FF6000B3F1F7FFF86AAC
:100F980008006F00D4FF62F0F3EF07F06B4B6C2B87
:100FA8006000AFF1F6FF6000B3F1F7FFF86A0800E0
:100FB800F5506C0AD8A4E3EF07F0E5EF07F015EF5A
:100FC80008F04C0E626F6B4B6C2B15EF08F0690E36
:100FD800626F15EF08F0000E626F15EF08F0000160
:100FE8006251416E426A4250000AD8B4FEEF07F0DF
:100FF800EFEF07F04150640AD8B4EBEF07F00D0AA1
:10100800D8B4EBEF07F0050AD8B4D2EF07F0190A05
:10101800D8B4EBEF07F00D0AD8B4EBEF07F0EFEF19
:1010280007F06000AFF1F6FF6000B3F1F7FFF86A70
:101038000800F550640AD8B424EF08F026EF08F049
:10104800E5EF08F06000AFF1F6FF6000B3F1F7FFDD
:10105800F86A0800F550690AD8A435EF08F037EFA8
:1010680008F028EF09F0E5EF08F06000FFF0D9FF7D
:10107800600003F1DAFF6F007CFF41F0020EDE260C
:101088006F007CFF42F0000EDD22600007F1D9FFFF
:1010980060000BF1DAFF6F0078FF63F06F0074FFF8
:1010A80064F0000E64BFFF0E656F666F676F686F50
:1010B800696F6A6FFEEF08F06000FFF0D9FF60000B
:1010C80003F1DAFF6F007CFF41F0040EDE266F00AB
:1010D8007CFF42F0000EDD22600007F1D9FF6000BE
:1010E8000BF1DAFF6F0078FF43F06F0078FF44F0F0
:1010F8006F0078FF45F06F0078FF46F043C047F077
:1011080044C048F045C049F046C04AF04B6A4ABE60
:101118004B684BC04CF04BC04DF04BC04EF047C035
:1011280063F048C064F049C065F04AC066F04BC03F
:1011380067F04CC068F04DC069F04EC06AF0FEEF31
:1011480008F06000FFF0D9FF600003F1DAFF6F00DC
:101158007CFF41F0080EDE266F007CFF42F0000E97
:10116800DD22600007F1D9FF60000BF1DAFF6F00A4
:1011780078FF43F06F0078FF44F06F0078FF45F088
:101188006F0078FF46F06F0078FF47F06F0078FF38
:1011980048F06F0078FF49F06F0078FF4AF043C0CD
:1011A80063F044C064F045C065F046C066F047C0CF
:1011B80067F048C068F049C069F04AC06AF0FEEFBD
:1011C80008F06251416E426A4250000AD8B4EFEF0B
:1011D80008F0FEEF08F041504C0AD8B4A5EF08F02B
:1011E800250AD8B439EF08F0050AD8B460EF08F03A
:1011F800FEEF08F0010E6B25416E000E6C21426E69
:101208006000F7F0D9FF6000FBF0DAFF600007F13B
:10121800DEFF60000BF1DDFF3BC020F03CC021F099
:1012280063C022F064C023F065C024F066C025F0D6
:1012380067C026F068C027F069C028F06AC029F0A6
:101248002BEC28F035EF0BF06000AFF1F6FF6000F3
:10125800B3F1F7FFF86A0800F550780AD8B437EF09
:1012680009F039EF09F0E4EF09F06000AFF1F6FF9B
:101278006000B3F1F7FFF86A0800F550750AD8A4C2
:1012880048EF09F04AEF09F05EEF0AF0E4EF09F0E1
:101298006000FFF0D9FF600003F1DAFF6F007CFF08
:1012A80041F0020EDE266F007CFF42F0000EDD22C8
:1012B800600007F1D9FF60000BF1DAFF6F0078FFDB
:1012C80043F06F0074FF44F043C063F044C064F01F
:1012D800656B666B676B686B696B6A6BFDEF09F032
:1012E8006000FFF0D9FF600003F1DAFF6F007CFFB8
:1012F80041F0040EDE266F007CFF42F0000EDD2276
:10130800600007F1D9FF60000BF1DAFF6F0078FF8A
:1013180043F06F0078FF44F06F0078FF45F06F00EE
:1013280078FF46F04350636F4450646F4550656FD3
:101338004650666F676B686B696B6A6BFDEF09F007
:101348006000FFF0D9FF600003F1DAFF6F007CFF57
:1013580041F0080EDE266F007CFF42F0000EDD2211
:10136800600007F1D9FF60000BF1DAFF6F0078FF2A
:1013780043F06F0078FF44F06F0078FF45F06F008E
:1013880078FF46F06F0078FF47F06F0078FF48F06D
:101398006F0078FF49F06F0078FF4AF043C063F0B0
:1013A80044C064F045C065F046C066F047C067F0C9
:1013B80048C068F049C069F04AC06AF0FDEF09F01A
:1013C8006251416E426A4250000AD8B4EEEF09F009
:1013D800FDEF09F041504C0AD8B4A4EF09F0250AF2
:1013E800D8B44CEF09F0050AD8B474EF09F0FDEF52
:1013F80009F0010E6B25416E000E6C21426E6000F3
:10140800F7F0D9FF6000FBF0DAFF600007F1DEFFBC
:1014180060000BF1DDFF41EF0AF03BC020F03CC05B
:1014280021F063C022F064C023F065C024F066C0D8
:1014380025F067C026F068C027F069C028F06AC0A8
:1014480029F0DEEC2BF035EF0BF03BC020F03CC070
:1014580021F063C022F064C023F065C024F066C0A8
:1014680025F067C026F068C027F069C028F06AC078
:1014780029F0F1EC2EF035EF0BF06000AFF1F6FF3C
:101488006000B3F1F7FFF86A0800F550416E426A50
:101498004250000AD8B453EF0AF05EEF0AF0415008
:1014A800750AD8B411EF0AF00D0AD8B429EF0AF07A
:1014B8005EEF0AF06000F7F0D9FF6000FBF0DAFF9A
:1014C8006F007BFFF6FF6F0077FFF7FFF86A0800F1
:1014D800F550730AD8B473EF0AF075EF0AF094EF79
:1014E8000AF06000F7F0D9FF6000FBF0DAFF6F0048
:1014F80078FF03F06F0074FF04F0F70E056EFF0E1F
:10150800066E000E086E030E076E57EC33F003509C
:101518000410D8A492EF0AF094EF0AF0E5EF0AF06D
:101528006000F7F0D9FF6000FBF0DAFF6F007BFF87
:10153800F6FF6F0077FFF7FFF86A0800F550730AA7
:10154800D8B4A9EF0AF0ABEF0AF0B2EF0AF0000E38
:101558000001616F030E606FB7EF0AF0000E000123
:10156800616F010E606F6000F7F0D9FF6000FBF05B
:10157800DAFF6051DE266151DD223BC00EF03CC02F
:101588000FF06000FFF0D9FF600003F1DAFF6F0091
:101598007CFF41F0020EDE266F007CFF42F0000E59
:1015A800DD22600007F1D9FF60000BF1DAFF6F0060
:1015B80078FF10F06F0074FF11F003EC31F035EF95
:1015C8000BF06000F7F0D9FF6000FBF0DAFF6F0066
:1015D8007BFFF6FF6F0077FFF7FFF86A0800F5500A
:1015E800250AD8A4FAEF0AF0FCEF0AF011EF0BF085
:1015F8006000F7F0D9FF6000FBF0DAFFDE2A000E8A
:10160800DD22000E066E250E056E3BC007F03CC0BD
:1016180008F07AEC36F035EF0BF06000F7F0D9FF00
:101628006000FBF0DAFFDE2A000EDD2235EF0BF05A
:101638006000F7F0D9FF6000FBF0DAFF6F007BFF76
:10164800F6FF6F0077FFF7FFF86A0800F550056EA0
:10165800066A3BC007F03CC008F07AEC36F011EFA0
:101668000BF01200010E00016F6F500E3C643FEF4B
:101678000BF041EF0BF044EF0BF0060E5CEF0EF0B1
:10168800800E066E0E0E16EC47F0000E0001676F16
:1016980049EF0EF0930E706F000E7B6F000E6A6FAD
:1016A8003C50D8B45AEF0BF05CEF0BF06CEF0BF03A
:1016B8006000EBF0D9FF6000EFF0DAFF040EDF64A2
:1016C80068EF0BF06AEF0BF06CEF0BF0010E6A6F2E
:1016D8006A51D8A472EF0BF075EF0BF0010E76EF9C
:1016E8000BF0000E7A6FC8EF0BF0950E706F030EBB
:1016F8007B6F000E6B6F3C50D8B485EF0BF087EF13
:101708000BF097EF0BF06000EBF0D9FF6000EFF003
:10171800DAFF070EDF6493EF0BF095EF0BF097EF0E
:101728000BF0010E6B6F6B51D8A49DEF0BF0A0EF7F
:101738000BF0010EA1EF0BF0000E7A6FC8EF0BF063
:10174800970E706F060E7B6F000E7A6FC8EF0BF066
:10175800050E5CEF0EF06F513D6E3E6A3E50000A7A
:10176800D8B4B9EF0BF0ACEF0BF03D50010AD8B488
:101778004EEF0BF0030AD8B479EF0BF0010AD8B496
:10178800A4EF0BF0ACEF0BF07B51F80DF3503C24B9
:10179800846F84BFD4EF0BF0D2EF0BF0D6EF0BF0D1
:1017A800000E846F020E836F7A51D8B4DEEF0BF00F
:1017B800E0EF0BF0E3EF0BF0880E726F832B84C021
:1017C8003DF03E6A3DBE3E06070E3D16000E3E1633
:1017D8003D503E10D8A4F3EF0BF0F7EF0BF03F6A43
:1017E8003F2AF8EF0BF03F6A00018451036E046A48
:1017F80003BE0406000E066E080E056E1EEC38F0D9
:1018080003503F2400017D6F7D51D8B40EEF0CF0DA
:1018180010EF0CF057EF0CF07A51D8A416EF0CF03B
:1018280018EF0CF01EEF0CF0000E616F040E606FE5
:1018380022EF0CF0000E616F030E606F60C06DF058
:101848007D516D5DD8B02BEF0CF02DEF0CF02FEF24
:101858000CF06DC07DF0000E816F4EEF0CF07B51E7
:101868003A243D6E000E3B203E6E81513D26000E0F
:101878003E22010E3D24D96E000E3E20DA6E700E17
:101888008325E16EE26A000EE2226F007FFFE7FF28
:10189800832B812B7D51815DD8A055EF0CF057EF3C
:1018A8000CF033EF0CF07A51D8B45DEF0CF05FEF29
:1018B8000CF061EF0CF0080E8427000E686F81EFC2
:1018C8000DF08451800A600FD8A06DEF0CF06FEF17
:1018D8000CF09BEF0CF0700E716F72517319741944
:1018E8007519766F700E096E000E0A6E070E0B6E74
:1018F800770E0C6E000E0D6E9AEC39F00001826FB7
:101908008251D8B48AEF0CF08CEF0CF08FEF0CF00A
:1019180082515CEF0EF0000E806F090E696F760E33
:101928007E6F000E7F6F030E7C6FC9EF0CF0845141
:10193800070B806F8451036E046A03BE0406000E11
:10194800066E080E056E1EEC38F003500001816F1C
:101958008151020F836F8351100DF3508025716FF1
:101968008051D8A4BAEF0CF0BDEF0CF0010EBEEF19
:101978000CF0000E8325696F700E83257E6F7F6BD8
:10198800000E7F23835109087C6F80C06CF06C5176
:10199800100DF3508025046E0D0EBAEC46F0700E53
:1019A8002F6E000E306E69C031F07EC032F07FC0FD
:1019B80033F07C0E346E000E356E800E366E000EDF
:1019C800376E6CC038F0000E396E7DEC44F00001C3
:1019D800826F020E8219D8A4F4EF0CF0F6EF0CF027
:1019E80067EF0DF00E0E87EC46F000016E6F6EABE0
:1019F80000EF0DF002EF0DF005EF0DF0020E5CEFB9
:101A08000EF06E511F0B796F7951D8A40EEF0DF0BF
:101A180010EF0DF012EF0DF0200E796F79513D6E39
:101A28003E6A84C03FF0406A3FBE40063D503F5C7E
:101A38004050800A416E3E50800A4158D8A027EF96
:101A48000DF029EF0DF02BEF0DF0ACEF0BF079C096
:101A580084F08451070B816F8405070B666F8151F1
:101A6800D8A439EF0DF03DEF0DF03D6A3D2A3EEF69
:101A78000DF03D6A00018451036E046A03BE04063A
:101A8800000E066E080E056E1EEC38F003503D245D
:101A98003E6E3E280001836F66C03DF0010E3E6E2B
:101AA8003D2A59EF0DF0D8903E363D2E57EF0DF0F8
:101AB800700E00018325D96EDA6A000EDA223E50D4
:101AC800DF1281EF0DF08251D8B46DEF0DF06FEF9A
:101AD8000DF071EF0DF08CEF0CF08451800A600F5F
:101AE800D8A079EF0DF07BEF0DF07FEF0DF0010E30
:101AF800686F81EF0DF0200E846F6851D8B487EFBE
:101B08000DF089EF0DF065EF0CF0880E7219D8B45E
:101B180090EF0DF092EF0DF098EF0DF0000E636F5F
:101B2800020E626F9CEF0DF0000E636F030E626F82
:101B380062C083F0880E7219D8B4A5EF0DF0A7EF34
:101B48000DF0ADEF0DF0000E656F040E646FB1EF90
:101B58000DF0000E656F030E646F64C07DF0000E1B
:101B6800816FD2EF0DF0700E8325D96EDA6A000E00
:101B7800DA227B513A243D6E000E3B203E6E8151A5
:101B88003D26000E3E22010E3D24E16E000E3E2051
:101B9800E26E6F007FFFE7FF832B812B7D51815D14
:101BA800D8A0D9EF0DF0DBEF0DF0B7EF0DF0030E75
:101BB8007C19D8A4E2EF0DF0E4EF0DF0ECEF0DF096
:101BC8008051D8B4EAEF0DF0ECEF0DF0EFEF0DF027
:101BD800010E5CEF0EF07EC009F07FC00AF0010E26
:101BE8000B6E720E0C6E000E0D6E9AEC39F0000141
:101BF800826F8251D8B403EF0EF005EF0EF007EFB5
:101C08000EF08CEF0CF020EE01F07E51D9267F51BA
:101C1800DA22DE507219D8A414EF0EF016EF0EF087
:101C280025EF0EF020EE02F07E51D9267F51DA2200
:101C3800DE507319D8B423EF0EF025EF0EF028EF1D
:101C48000EF0070E5CEF0EF06000FBF1D9FF6000AC
:101C5800FFF1DAFFDFA433EF0EF035EF0EF038EFC7
:101C68000EF06F2B49EF0EF0010E676F6000FBF16D
:101C7800D9FF6000FFF1DAFF10EE0BF03A50E126D1
:101C88003B50E2226F007FFFE7FF6751D8B44FEF68
:101C98000EF051EF0EF0AFEF0BF06F51030DF3287C
:101CA8006000EBF0D9FF6000EFF0DAFFDF6E000EA6
:101CB8001200010126512711D8A465EF0EF067EF35
:101CC8000EF087EF0EF0000E276F140E266FE5C09A
:101CD800E2F1CA0E00017B6F010E7C6F050E7D6F6D
:101CE800180E7E6FFF0E7F6F160E806FE20E816FEB
:101CF800010E826F010E836F0EEC36F0010E0001AB
:101D0800F26FA5EF10F024512511D8A48EEF0EF034
:101D180090EF0EF0ADEF0EF0000E256F140E246F4D
:101D2800E6C0E2F1CA0E00017B6F010E7C6F060E61
:101D38007D6F180E7E6FFF0E7F6F160E806FE20E9E
:101D4800816F010E826F010E836F0EEC36F082EF09
:101D58000EF028512911D8A4B4EF0EF0B6EF0EF00A
:101D6800D3EF0EF0000E296F140E286FC3C1E2F1F5
:101D7800CA0E00017B6F010E7C6F050E7D6F200E71
:101D88007E6FFF0E7F6F160E806FE20E816F010E61
:101D9800826F010E836F0EEC36F082EF0EF02C513D
:101DA8002D11D8A4DAEF0EF0DCEF0EF0FBEF0EF0F9
:101DB800000E2D6F140E2C6F8651E26F85C1E3F172
:101DC800CA0E00017B6F010E7C6F070E7D6F170E28
:101DD8007E6FFF0E7F6F160E806FE20E816F010E11
:101DE800826F020E836F0EEC36F082EF0EF02A51EE
:101DF8002B11D8A402EF0FF004EF0FF023EF0FF030
:101E0800000E2B6F140E2A6F8851E26F87C1E3F121
:101E1800CA0E00017B6F010E7C6F040E7D6F170EDA
:101E28007E6FFF0E7F6F160E806FE20E816F010EC0
:101E3800826F020E836F0EEC36F082EF0EF02E5199
:101E48002F11D8A42AEF0FF02CEF0FF049EF0FF065
:101E5800000E2F6F140E2E6F83C1E2F1CA0E00011F
:101E68007B6F010E7C6F040E7D6F190E7E6FFF0E67
:101E78007F6F160E806FE20E816F010E826F010E6A
:101E8800836F0EEC36F082EF0EF032513311D8A486
:101E980050EF0FF052EF0FF087EF0FF0000E336F97
:101EA8000A0E326FC551D8A45CEF0FF05EEF0FF049
:101EB80064EF0FF0000E336F960E326F35EF11F0AE
:101EC8003FC1E2F1CDC0E3F1CCC0E4F1CBC0E5F114
:101ED800CAC0E6F1C4C1E7F1CA0E00017B6F010E6A
:101EE8007C6F000E7D6F500E7E6FF80E7F6F160EA2
:101EF800806FE20E816F010E826F060E836F0EEC0B
:101F080036F082EF0EF030513111D8A48EEF0FF079
:101F180090EF0FF03FEF10F0000E316F140E306F9E
:101F2800DAC0E2F1D9C0E3F1D8C0E4F1D3C0B7F028
:101F3800D4C0B8F0D5C0B9F0D6C0BAF0D7C0BBF09D
:101F4800D8C0BCF0D9C0BDF0DAC0BEF0210EB7EFE2
:101F58000FF00001D890BE33BD33BC33BB33BA3366
:101F6800B933B833B733E82EADEF0FF0B7510101ED
:101F7800E56FD3C0B7F0D4C0B8F0D5C0B9F0D6C0BB
:101F8800BAF0D7C0BBF0D8C0BCF0D9C0BDF0DAC039
:101F9800BEF0190EDAEF0FF00001D890BE33BD3352
:101FA800BC33BB33BA33B933B833B733E82ED0EFC9
:101FB8000FF0B7510101E66FD3C0B7F0D4C0B8F045
:101FC800D5C0B9F0D6C0BAF0D7C0BBF0D8C0BCF005
:101FD800D9C0BDF0DAC0BEF0110EFDEF0FF0000160
:101FE800D890BE33BD33BC33BB33BA33B933B833FF
:101FF800B733E82EF3EF0FF0B7510101E76FD3C005
:10200800B7F0D4C0B8F0D5C0B9F0D6C0BAF0D7C0D0
:10201800BBF0D8C0BCF0D9C0BDF0DAC0BEF0B8C0C3
:10202800B7F0B9C0B8F0BAC0B9F0BBC0BAF0BCC01C
:10203800BBF0BDC0BCF0BEC0BDF00001BE6BB75167
:102048000101E86FD3C0E9F1CA0E00017B6F010EF0
:102058007C6F010E7D6F500E7E6FF80E7F6F160E2F
:10206800806FE20E816F010E826F080E836F0EEC97
:1020780036F082EF0EF036513711D8A446EF10F043
:1020880048EF10F071EF10F0000E376F640E366FE6
:10209800010E3A27000E3B233C233D233DC1E2F1CC
:1020A8003CC1E3F13BC1E4F13AC1E5F1CA0E0001DC
:1020B8007B6F010E7C6F000E7D6F300E7E6FF80E09
:1020C8007F6F160E806FE20E816F010E826F040E15
:1020D800836F0EEC36F082EF0EF038513911D8A428
:1020E80078EF10F07AEF10F0A5EF10F0000E396FCE
:1020F800140E386F000EE26FE1C0E3F1E0C0E4F1C6
:10210800DFC0E5F1DEC0E6F1DDC0E7F1DCC0E8F1F3
:10211800DBC0E9F1CA0E00017B6F010E7C6F030E74
:102128007D6F600E7E6FF80E7F6F160E806FE20E69
:10213800816F010E826F080E836F0EEC36F082EF0E
:102148000EF030EC47F0E806D8B4ADEF10F0AFEF82
:1021580010F0B9EF10F023EC47F0E806D8A4B7EF79
:1021680010F0B9EF10F0D1EF10F00001F4510101B7
:10217800BF19D8B4C2EF10F0C4EF10F035EF11F06A
:10218800F4C0BFF1E6EC36F0730E00016D6FF30E8C
:102198006E6F05EC46F035EF11F00001F205D8A49A
:1021A800D8EF10F0DAEF10F0EBEF10F0CA0E156E62
:1021B800010E166ED3EC1CF0E806D8A4E6EF10F07A
:1021C800E8EF10F0EBEF10F0000E0001F26FDCEC1E
:1021D80045F00009D8B4F3EF10F0F5EF10F00FEF69
:1021E80011F0490E166E020E176E5FEC24F0E80629
:1021F800D8A401EF11F003EF11F00AEF11F0490E26
:102208000001886F020E896F0FEC00F0020E0101C9
:10221800356F580E346F010134513511D8A417EFBA
:1022280011F019EF11F035EF11F0D80E00016D6FB4
:10223800F90E6E6F05EC46F0780E00016D6FF90E21
:102248006E6F05EC46F00B0E0001B86F260EB76FE7
:102258005D0EE82EFED7B72FFCD7B82FFAD700D0DF
:10226800FF00120033EC2EF001013E513F19D8B4A3
:1022780040EF11F042EF11F06FEF11F0020E3E192E
:10228800D8A449EF11F04BEF11F056EF11F0000E02
:10229800C66F020E0001E76F370E6D6FF20E6E6F9C
:1022A80005EC46F001013E05D8A45DEF11F05FEFA3
:1022B80011F068EF11F0030E0001E76F670E6D6F04
:1022C800F20E6E6F05EC46F03EC13FF1000E0001C4
:1022D800E86F000EE96F01019D519E11D8A477EFB8
:1022E80011F079EF11F0D3EF12F03F05D8B47FEF7A
:1022F80011F081EF11F0D3EF12F0040E3F19D8B4AA
:1023080088EF11F08AEF11F0D3EF12F0020E3F19A7
:10231800D8B491EF11F093EF11F0D3EF12F0000160
:10232800E805D8A49AEF11F09CEF11F0D3EF12F062
:10233800E905D8A4A2EF11F0A4EF11F0D3EF12F041
:10234800EC51D8A4AAEF11F0ACEF11F0EAEF11F0BC
:10235800C005D8B4B2EF11F0B4EF11F0C3EF11F02B
:10236800D351D411D511D611D711D811D911DA11E9
:10237800D8B4C1EF11F0C3EF11F0D3EF12F0010E92
:10238800EC6F650E6D6FFE0E6E6FC0C06FF0706BF8
:10239800D3C071F0D4C072F0D5C073F0D6C074F059
:1023A800D7C075F0D8C076F0D9C077F0DAC078F029
:1023B80005EC46F0000E0001E86F000EE96F010E13
:1023C80001019C6F2C0E9B6FD3EF12F00101B951E4
:1023D800D8A4F1EF11F0F3EF11F029EF12F000019A
:1023E800D105D8A4FAEF11F0FCEF11F01BEF12F0B1
:1023F800D205D8A402EF12F004EF12F01BEF12F08E
:10240800C051D8B40AEF12F00CEF12F01BEF12F023
:10241800D351D411D511D611D711D811D911DA1138
:10242800D8A419EF12F01BEF12F07AEF12F0010E98
:102438000101B96F010EC66F6F0E00016D6FF80EC6
:102448006E6F05EC46F07AEF12F00001D105D8A4C2
:1024580030EF12F032EF12F05DEF12F0D205D8A48F
:1024680038EF12F03AEF12F05DEF12F0C005D8A481
:1024780040EF12F042EF12F05DEF12F0D351D41199
:10248800D511D611D711D811D911DA11D8B44FEF07
:1024980012F051EF12F05DEF12F0000E0101B96F6A
:1024A800000EC66F780E00016D6FFA0E6E6F05ECA8
:1024B80046F00001C051D8A464EF12F066EF12F0A4
:1024C8007AEF12F0D351D411D511D611D711D811F2
:1024D800D911DA11D8A473EF12F075EF12F07AEF70
:1024E80012F0000E01019C6F000E9B6F0101B951A3
:1024F800D8B481EF12F083EF12F08CEF12F09B51F9
:102508009C11D8A48AEF12F08CEF12F0D3EF12F0DE
:10251800000EB96F000E9C6F000E9B6F000E00013D
:10252800EC6FD351D411D511D611D711D811D911B7
:10253800DA11D8A4A2EF12F0A4EF12F0B8EF12F05B
:10254800C051D8A4AAEF12F0ACEF12F0B8EF12F015
:10255800000E0101C66FF40E00016D6FF80E6E6F6C
:1025680005EC46F0D3EF12F001015651B2EC45F0FC
:10257800010E01013E6F050E0001E219D8A4C7EF54
:1025880012F0C9EF12F0CBEF12F0020EE26F980EC4
:102598006D6FF90E6E6F05EC46F0D3EF12F0050E75
:1025A80001014019D8A4DBEF12F0DDEF12F0E0EFE3
:1025B80012F0C46950EF13F0000EC46F50EF13F01F
:1025C800020E01013F19D8A4ECEF12F0EEEF12F061
:1025D80072EF13F00001C051D8A4F5EF12F0F7EF35
:1025E80012F01AEF13F0D351D411D511D611D71117
:1025F800D811D911DA11D8A404EF13F006EF13F0AB
:102608001AEF13F0000EE86F000EE96F000E0101DB
:102618009E6F320E9D6F030E3E6F090E00016D6FA7
:10262800F80E6E6F05EC46F072EF13F001019D5144
:102638009E11D8A422EF13F024EF13F028EF13F023
:10264800010E3E6F72EF13F072EF13F0020E0101EC
:102658003F19D8A432EF13F034EF13F072EF13F0F0
:10266800030E3E6F72EF13F0F4510101B819D8B49C
:1026780040EF13F042EF13F072EF13F0F4C0B8F12B
:10268800920E00016D6FF40E6E6FE2C06FF0706B0A
:1026980005EC46F072EF13F00001E2517D6F7E6B9E
:1026A8007E51000AD8B45BEF13F038EF13F07D5178
:1026B800010AD8B42AEF13F0030AD8B4E4EF12F0F1
:1026C800010AD8B4E4EF12F0070AD8B4E4EF12F024
:1026D800010AD8B42AEF13F038EF13F01200000102
:1026E800BF05D8A47AEF13F07CEF13F080EF13F056
:1026F8000101888D82EF13F00101889D0001F0052A
:10270800D8A489EF13F08BEF13F0B0EF13F00101A9
:1027180093519411D8A493EF13F095EF13F0B0EF01
:1027280013F0000E946F0A0E936F49EC3DF0000908
:10273800D8A4A1EF13F0A3EF13F0AEEF13F001014B
:102748008785820E00016D6FFC0E6E6F05EC46F0FA
:10275800B0EF13F00101879501013F05D8A4B7EF49
:1027680013F0B9EF13F03AEF14F00001D351D4117C
:10277800D511D611D711D811D911DA11D8A4C7EFAC
:1027880013F0CAEF13F0010ECBEF13F0000E7B6FBE
:10279800C0C07CF07C510101BC19D8A4D6EF13F05D
:1027A800D8EF13F0E3EF13F000017B510101BD19DD
:1027B800D8B4E1EF13F0E3EF13F0ECEF13F07CC0C3
:1027C800BCF17BC0BDF1000E0001E86F000EE96F9F
:1027D8000001E805D8A4F3EF13F0F5EF13F03CEF90
:1027E80014F0E905D8A4FBEF13F0FDEF13F03CEF6C
:1027F80014F0C005D8A403EF14F005EF14F018EF97
:1028080014F0D351D411D511D611D711D811D9112B
:10281800DA11D8A412EF14F014EF14F018EF14F032
:10282800010185871AEF14F0010185970001C05155
:10283800D8A421EF14F023EF14F036EF14F0D3519D
:10284800D411D511D611D711D811D911DA11D8B49C
:1028580030EF14F032EF14F036EF14F001018783F3
:102868003CEF14F0010187933CEF14F087938597B0
:10287800020E0001D019D8B444EF14F046EF14F05A
:1028880055EF14F0030ED019D8B44DEF14F04FEFF4
:1028980014F055EF14F00101889F879F879B879D4F
:1028A8008799040E0001D019D8A45DEF14F05FEFEA
:1028B80014F0F4EF14F0000E7E6F020ECE19D8A4B7
:1028C80068EF14F06AEF14F0ABEF14F0D105D8A458
:1028D80070EF14F073EF14F0010E74EF14F0000EA3
:1028E8007D6FD205D8A47BEF14F07EEF14F0010EB3
:1028F8007FEF14F0000E7E6F7D05D8A486EF14F0EC
:1029080088EF14F094EF14F07E05D8A48EEF14F03D
:1029180090EF14F094EF14F00101888FF4EF14F0A5
:102928007D05D8A49AEF14F09CEF14F09EEF14F0F4
:102938000101878D00017E05D8A4A5EF14F0A7EF4B
:1029480014F0F4EF14F001018789F4EF14F0CE05C8
:10295800D8A4B1EF14F0B3EF14F0F4EF14F0020EB2
:10296800D119D8A4BAEF14F0BDEF14F0010EBEEFE0
:1029780014F0000E7D6F020ED219D8A4C6EF14F021
:10298800C9EF14F0010ECAEF14F0000E7E6F7D053A
:10299800D8A4D1EF14F0D3EF14F0DDEF14F07E05D6
:1029A800D8A4D9EF14F0DBEF14F0DDEF14F090EFBA
:1029B80014F07D05D8A4E3EF14F0E5EF14F0E7EF89
:1029C80014F00101878F00017E05D8A4EEEF14F002
:1029D800F0EF14F0F4EF14F00101878BF4EF14F02A
:1029E800010187518811D8A4FCEF14F0FEEF14F010
:1029F80007EF15F085518611D8B405EF15F007EFEC
:102A080015F090EF15F08551871100017F6F0101D6
:102A1800865188110001806F80AF15EF15F017EF10
:102A280015F01EEF15F0000E0101846F5A0E836F2A
:102A380094EF15F07FA123EF15F025EF15F02CEF9B
:102A480015F0000E0101846F580E836F94EF15F096
:102A58007FA731EF15F033EF15F03AEF15F0000EC0
:102A68000101846F560E836F94EF15F080AD3FEF30
:102A780015F041EF15F048EF15F0000E0101846FD5
:102A88005B0E836F94EF15F07FA54DEF15F04FEFB8
:102A980015F056EF15F0000E0101846F570E836F85
:102AA80094EF15F07FAF5BEF15F05DEF15F064EF75
:102AB80015F0000E0101846F520E836F94EF15F02C
:102AC8007FAD69EF15F06BEF15F072EF15F0000EA2
:102AD8000101846F530E836F94EF15F07FAB77EF8E
:102AE80015F079EF15F080EF15F0000E0101846FF5
:102AF800540E836F94EF15F07FA985EF15F087EFDB
:102B080015F08EEF15F0000E0101846F550E836FDE
:102B180094EF15F094EF15F0000E846F000E836F9C
:102B280012003901A39F5B50B76E60006BF1B6FFCE
:102B38000101EE51EF11D8B4A4EF15F0A6EF15F08E
:102B4800B2EF15F002D8B2EF15F00500FA6EEE51AB
:102B5800FD6EEF51FE6EFF6AFA5012000101AB5193
:102B6800AC11D8B4BAEF15F0BCEF15F0BFEF15F003
:102B7800AB07D8A0AC07A951AA11D8B4C6EF15F075
:102B8800C8EF15F0CBEF15F0A907D8A0AA07A751F1
:102B9800A811D8B4D2EF15F0D4EF15F0D7EF15F08F
:102BA800A707D8A0A807A551A611D8B4DEEF15F03D
:102BB800E0EF15F0E3EF15F0A507D8A0A607A3519D
:102BC800A411D8B4EAEF15F0ECEF15F0EFEF15F01B
:102BD800A307D8A0A407A151A211D8B4F6EF15F005
:102BE800F8EF15F0FBEF15F0A107D8A0A2079F5149
:102BF800A011D8B402EF16F004EF16F007EF16F0A4
:102C08009F07D8A0A0079D519E11D8B40EEF16F0CB
:102C180010EF16F013EF16F09D07D8A09E079B51F2
:102C28009C11D8B41AEF16F01CEF16F01FEF16F02F
:102C38009B07D8A09C0799519A11D8B426EF16F093
:102C480028EF16F02BEF16F09907D8A09A0797519E
:102C58009811D8B432EF16F034EF16F037EF16F0BB
:102C68009707D8A0980795519611D8B43EEF16F05B
:102C780040EF16F043EF16F09507D8A0960793514A
:102C88009411D8B44AEF16F04CEF16F04FEF16F047
:102C98009307D8A094077D517E117F118011D8B475
:102CA80058EF16F05AEF16F05FEF16F07D07000E9A
:102CB8007E5B7F5B805B91519211D8B466EF16F012
:102CC80068EF16F06BEF16F09107D8A092078F51B6
:102CD8009011D8B472EF16F074EF16F077EF16F083
:102CE8008F07D8A090078D518E11D8B47EEF16F0BB
:102CF80080EF16F083EF16F08D07D8A08E078B5162
:102D08008C11D8B48AEF16F08CEF16F08FEF16F00E
:102D18008B07D8A08C0724512511D8B496EF16F04C
:102D280098EF16F09BEF16F02407D8A02507265138
:102D38002711D8B4A2EF16F0A4EF16F0A7EF16F0FB
:102D48002607D8A0270728512911D8B4AEEF16F0C6
:102D5800B0EF16F0B3EF16F02807D8A029073651C0
:102D68003711D8B4BAEF16F0BCEF16F0BFEF16F073
:102D78003607D8A037072C512D11D8B4C6EF16F056
:102D8800C8EF16F0CBEF16F02C07D8A02D072A5164
:102D98002B11D8B4D2EF16F0D4EF16F0D7EF16F007
:102DA8002A07D8A02B072E512F11D8B4DEEF16F022
:102DB800E0EF16F0E3EF16F02E07D8A02F073051FA
:102DC8003111D8B4EAEF16F0ECEF16F0EFEF16F089
:102DD8003007D8A0310732513311D8B4F6EF16F0C6
:102DE800F8EF16F0FBEF16F03207D8A0330738518A
:102DF8003911D8B402EF17F004EF17F007EF17F006
:102E08003807D8A0390734513511D8B40EEF17F068
:102E180010EF17F013EF17F03407D8A03507575104
:102E28005811D8B41AEF17F01CEF17F01FEF17F06E
:102E38005707D8A0580759515A11D8B426EF17F098
:102E480028EF17F02BEF17F05907D8A05A075B5156
:102E58005C11D8B432EF17F034EF17F037EF17F0F2
:102E68005B07D8A05C075D515E11D8B43EEF17F040
:102E780040EF17F043EF17F05D07D8A05E075F51EA
:102E88006011D8B44AEF17F04CEF17F04FEF17F076
:102E98005F07D8A0600761516211D8B456EF17F0E8
:102EA80058EF17F05BEF17F06107D8A06207000131
:102EB800F551D8B462EF17F065EF17F0010E66EF21
:102EC80017F0000EF56F0101C951D8A46EEF17F085
:102ED80070EF17F080EF17F0090EC96F0001F45179
:102EE800D8B479EF17F07CEF17F0010E7DEF17F0EB
:102EF800000EF46F81EF17F0C90712001450800B11
:102F0800216E14501424286E13AE8DEF17F08FEF36
:102F180017F090EF17F028802850D8B496EF17F0E4
:102F280098EF17F0ADEF17F02828D8A49EEF17F008
:102F3800A0EF17F0A8EF17F0000E116E000E126E3A
:102F4800000E136E000E146E138E000E146EB5EF85
:102F580017F0000E116E000E126E000E136E000EAA
:102F6800146E1850800B211A18501824296E17AEA9
:102F7800C0EF17F0C2EF17F0C3EF17F02980295000
:102F8800D8B4C9EF17F0CBEF17F0E0EF17F0292806
:102F9800D8A4D1EF17F0D3EF17F0DBEF17F0000E3E
:102FA800156E000E166E000E176E000E186E178E38
:102FB800000E186EE8EF17F0000E156E000E166E74
:102FC800000E176E000E186E1550161017101810F8
:102FD800D8A4F1EF17F0F3EF17F00BEF18F0000E8D
:102FE800116E000E126E000E136E000E146E800E1F
:102FF80013127F0E14122150141211C011F012C0B6
:1030080012F013C013F014C014F04EEF19F028504A
:10301800D8A411EF18F013EF18F01DEF18F0000EF8
:10302800116E000E126E000E136E000E146E4EEF2F
:1030380019F0295028C019F01A6A195E000E1A5A98
:103048007F0E1924226E000E1A20236E11C01DF067
:1030580012C01EF013C01FF014C020F0000E116E35
:10306800000E126E000E136E000E146E000E246E0B
:10307800000E256E000E266E000E276E000E296EBD
:103088007EEF18F02950D8B44CEF18F04EEF18F036
:1030980065EF18F0D8901D361E361F362036D890AA
:1030A800113612361336143627AE5DEF18F05FEF7F
:1030B80018F060EF18F01180D8902436253626369F
:1030C800273615501D5C16501E5817501F5818509B
:1030D8002058D8A072EF18F074EF18F07DEF18F0B0
:1030E800278C15501D5E16501E5A17501F5A18501F
:1030F800205A292A190E296484EF18F086EF18F04F
:1031080046EF18F01D501E101F102010D8B48FEF76
:1031180018F091EF18F0A9EF18F02480A9EF18F033
:10312800D890113612361336143627AE9EEF18F0A3
:10313800A0EF18F0A1EF18F01180D89024362536AA
:10314800263627362206D8A0230613AEAEEF18F08F
:10315800B0EF18F094EF18F0000E296E27AEB7EF15
:1031680018F0B9EF18F0DDEF18F0FF0E2414196EFF
:10317800FF0E25141A6EFF0E26141B6E7F0E2714E1
:103188001C6E19501A101B101C10D8B4CEEF18F072
:10319800D0EF18F0D4EF18F0010E296EDDEF18F01B
:1031A80011A0D9EF18F0DBEF18F0DDEF18F0D0EF31
:1031B80018F02950D8B4E3EF18F0E5EF18F009EF4C
:1031C80019F0010E1126000E12221322142214A047
:1031D800F0EF18F0F2EF18F009EF19F011C019F03C
:1031E80012C01AF013C01BF014C01CF01C341C329F
:1031F8001B321A32193219C011F01AC012F01BC052
:1032080013F01CC014F0224A232A23BE14EF19F02D
:10321800235008E12228D8A014EF19F016EF19F06E
:1032280021EF19F0000E236E2268000E116E000EB9
:10323800126E000E136E000E146E23BE2EEF19F0E0
:10324800235006E12204D8B02CEF19F02EEF19F024
:103258003CEF19F0000E236E000E226E000E116E68
:10326800000E126E000E136E000E146E000E216E0C
:1032780022C028F028A043EF19F045EF19F048EFD5
:1032880019F0138E49EF19F0139ED8902830146E58
:10329800FFEF17F01200000E0001886F20EE8BF090
:1032A800070EDE6AE806FDE2EE05D8A45EEF19F027
:1032B80060EF19F096EF19F0020ED019D8B467EF45
:1032C80019F069EF19F096EF19F0030ED019D8B478
:1032D80070EF19F072EF19F096EF19F00101B5517E
:1032E800D8A479EF19F07BEF19F099EF19F0B351E1
:1032F800D8A481EF19F083EF19F089EF19F0010EC6
:10330800B36F000E8C6F030E8B6F8B518C11D8A48A
:1033180090EF19F092EF19F096EF19F0010EB56FD2
:1033280043EC39F0000E14EF1BF0B251D8A49FEF14
:1033380019F0A1EF19F0A7EF19F0010EB26F000E06
:10334800906F140E8F6F0001F5510101B419D8B4B4
:10335800B0EF19F0B2EF19F0CDEF1AF0F5C0B4F1F3
:1033680009EC41F00009D8B4BCEF19F0BEEF19F030
:10337800CDEF1AF0F1EC45F00009D8B4C6EF19F01A
:10338800C8EF19F0CDEF1AF0000E00018A6F000E99
:10339800896F01EF1AF0580E8925D96E020E8A211D
:1033A800DA6EDF50856F85518B13FF0E02015725AA
:1033B8000001856F866BFF0E86238551895D8A51D2
:1033C800800A876F8651800A8759D8B0EEEF19F0C6
:1033D800F0EF19F0FFEF19F091C092F090C091F062
:1033E8008FC090F08EC08FF08DC08EF08CC08DF0A5
:1033F8008BC08CF08B6B894B8A2B020157510001D3
:10340800856F866B8551895D8A51800A876F8651E1
:10341800800A8759D8A013EF1AF015EF1AF0CFEFEA
:1034280019F08B51D31919E18C51D41916E18D512A
:10343800D51913E18E51D61910E18F51D7190DE125
:103448009051D8190AE19151D91907E19251DA1925
:10345800D8A431EF1AF033EF1AF035EF1AF0010E55
:10346800886F01016D5100018B1927E101016E512F
:1034780000018C1922E101016F5100018D191DE134
:103488000101705100018E1918E10101715100010B
:103498008F1913E101017251000190190EE1010128
:1034A80073510001911909E1010174510001921948
:1034B800D8A461EF1AF063EF1AF0B8EF1AF0020E11
:1034C8000101B1656AEF1AF06CEF1AF0B5EF1AF066
:1034D800010E0001886F8B51D3191BE18C51D4194F
:1034E80018E18D51D51915E18E51D61912E18F5178
:1034F800D7190FE19051D8190CE19151D91909E167
:103508009251DA19D8B48BEF1AF08DEF1AF0CDEF8B
:103518001AF08BC0D3F08CC0D4F08DC0D5F08EC01B
:10352800D6F08FC0D7F090C0D8F091C0D9F092C033
:10353800DAF04D0E6D6FF80E6E6F8BC06FF08CC0A9
:1035480070F08DC071F08EC072F08FC073F090C0B3
:1035580074F091C075F092C076F005EC46F0CDEFAE
:103568001AF0B12BCDEF1AF0000E0101B16F8BC02C
:103578006DF18CC06EF18DC06FF18EC070F18FC08F
:1035880071F190C072F191C073F192C074F1CDEFF6
:103598001AF000018805D8B4D4EF1AF0D6EF1AF063
:1035A800E0EF1AF001018F519011D8A4DEEF1AF064
:1035B800E0EF1AF096EF19F0000E0101B56F000E5A
:1035C800B36F000EB26FFC0E036E000E046E040E95
:1035D800056E6FEC47F00001D351D411D511D61107
:1035E800D711D811D911DA11D8B4FDEF1AF0FFEFBD
:1035F8001AF013EF1BF08851D8A405EF1BF007EF62
:103608001BF013EF1BF020EED3F0070EDE6AE8067E
:10361800FDE2DE0E6D6FFB0E6E6F05EC46F0010EDF
:103628001200000E00017D6F000E806F030EE2197C
:10363800D8B421EF1BF023EF1BF035EF1BF0020E7F
:10364800E219D8B42AEF1BF02CEF1BF035EF1BF072
:10365800040EE219D8A433EF1BF035EF1BF054EF3A
:103668001BF0020E01013F19D8B43DEF1BF03FEFEC
:103678001BF054EF1BF0C705D8A445EF1BF047EF2C
:103688001BF056EF1BF0010E00017D6F8081E68173
:10369800F20E6D6FF20E6E6F05EC46F056EF1BF0F2
:1036A8000001E691000E0101C76F0001E851D8B48E
:1036B80060EF1BF062EF1BF0D2EF1CF0E951D8A4C9
:1036C80068EF1BF06AEF1BF06EEF1BF0D2EF1CF0F7
:1036D800D2EF1CF0C105D8A474EF1BF076EF1BF0F5
:1036E8007BEF1BF0010E806F010E7D6FE585D00525
:1036F800D8A481EF1BF083EF1BF0FAEF1BF0000E4C
:103708007B6F000E7C6F020ECE19D8A48EEF1BF0D3
:1037180090EF1BF0A4EF1BF0D105D8A496EF1BF097
:1037280098EF1BF0A0EF1BF0D205D8B49EEF1BF06A
:10373800A0EF1BF0C0EF1BF0010E7C6FC0EF1BF079
:10374800CE05D8A4AAEF1BF0ACEF1BF0C0EF1BF01E
:10375800020ED119D8A4B3EF1BF0B5EF1BF0BEEFE2
:103768001BF0020ED219D8B4BCEF1BF0BEEF1BF051
:10377800C0EF1BF0010E7B6F7C05D8B4C6EF1BF0C1
:10378800C8EF1BF0D0EF1BF07B05D8A4CEEF1BF0E1
:10379800D0EF1BF0E1EF1BF00101C051D8A4D7EF27
:1037A8001BF0D9EF1BF0E4EF1BF0010EC06F020E07
:1037B800AA6F580EA96FE4EF1BF0000E0101C06F4D
:1037C800C005D8A4EAEF1BF0ECEF1BF0FAEF1BF0F2
:1037D800A951AA11D8A4F3EF1BF0F5EF1BF0FAEFEB
:1037E8001BF0010E00017D6F8087E68701013F0510
:1037F800D8A401EF1CF003EF1CF021EF1CF000012E
:10380800C051D8A40AEF1CF00CEF1CF023EF1CF0F9
:10381800D351D411D511D611D711D811D911DA1124
:10382800D8A419EF1CF01BEF1CF023EF1CF0010EBD
:103838007D6F8083E58323EF1CF00001E5937D0510
:10384800D8A429EF1CF02BEF1CF039EF1CF0E45141
:10385800D8A431EF1CF033EF1CF039EF1CF0010E47
:10386800E46F52C1ABF153C1ACF1E405D8A43FEF0A
:103878001CF041EF1CF088EF1CF00101AB51AC11BA
:10388800D8A449EF1CF04BEF1CF088EF1CF0000E99
:103898000001E46F80B353EF1CF055EF1CF056EFB6
:1038A8001CF0E59380B55BEF1CF05DEF1CF05EEF5C
:1038B8001CF0E59580B163EF1CF065EF1CF066EF36
:1038C8001CF0E69180B76BEF1CF06DEF1CF06EEF0B
:1038D8001CF0E6978051D8A474EF1CF076EF1CF02A
:1038E8007EEF1CF0A10E6D6FFF0E6E6F05EC46F0BB
:1038F80088EF1CF052C1ABF153C1ACF19D0E6D6F56
:10390800F30E6E6F05EC46F00001E651D8A48FEF78
:103918001CF091EF1CF099EF1CF0E551D8B497EF2B
:103928001CF099EF1CF0CFEF1CF0E651E511576E33
:1039380057507E6F7F6B7EA3A4EF1CF0A6EF1CF0A0
:10394800ABEF1CF0010E0101C36FD2EF1CF07EA596
:10395800B0EF1CF0B2EF1CF0B7EF1CF0020E010143
:10396800C36FD2EF1CF07EA7BCEF1CF0BEEF1CF0BB
:10397800C3EF1CF0030E0101C36FD2EF1CF07EA150
:10398800C8EF1CF0CAEF1CF06CEF1BF0040E01012D
:10399800C36FD2EF1CF0000E0101C36F1200000EBE
:1039A800186E000E196E000E1A6E000E1B6E000EB9
:1039B800176E3701E0B7E3EF1CF0E5EF1CF06BEF93
:1039C8001DF020EE01F01550D9261650DA226F00AE
:1039D80078FF03F06F0078FF04F06F0078FF05F0C0
:1039E8006F0078FF06F0600057F0D9FF60005BF0C9
:1039F800DAFFDF50076E180E086E000E096E190EFA
:103A08000A6E000E0B6E1A0E0C6E000E0D6E1B0E5B
:103A18000E6E000E0F6E14EC2BF0600063F0E3F7EF
:103A2800600067F0E4F760006BF0E1F760006FF0AA
:103A3800E2F720EE05F01550D9261650DA22DF50AD
:103A48003701E56F20EE06F01550D9261650DA2218
:103A5800DF50E66F20EE07F01550D9261650DA220F
:103A6800DF50E76F20EE08F01550D9261650DA22FD
:103A7800DF50E86F20EE09F01550D9261650DA22EB
:103A8800DF50E96F20EE0AF01550D9261650DA22D9
:103A9800DF50EA6F20EE0BF01550D9261650DA22C7
:103AA800DF50EB6F20EE0CF01550D9261650DA22B5
:103AB800DF50EC6F20EE0DF01550D9261650DA22A3
:103AC800DF50ED6FE087010E176E81EF1EF0D0B763
:103AD80070EF1DF072EF1DF0F6EF1DF020EE01F013
:103AE8001550D9261650DA226F0078FF03F06F00C0
:103AF80078FF04F06F0078FF05F06F0078FF06F09C
:103B0800600057F0D9FF60005BF0DAFFDF50076E06
:103B1800180E086E000E096E190E0A6E000E0B6E56
:103B28001A0E0C6E000E0D6E1B0E0E6E000E0F6E32
:103B380014EC2BF0600063F0D3F7600067F0D4F763
:103B480060006BF0D1F760006FF0D2F720EE05F05F
:103B58001550D9261650DA22DF503701D56F20EEDE
:103B680006F01550D9261650DA22DF50D66F20EE0F
:103B780007F01550D9261650DA22DF50D76F20EEFD
:103B880008F01550D9261650DA22DF50D86F20EEEB
:103B980009F01550D9261650DA22DF50D96F20EED9
:103BA8000AF01550D9261650DA22DF50DA6F20EEC7
:103BB8000BF01550D9261650DA22DF50DB6F20EEB5
:103BC8000CF01550D9261650DA22DF50DC6F20EEA3
:103BD8000DF01550D9261650DA22DF50DD6FD08748
:103BE80067EF1DF0C0B7FBEF1DF0FDEF1DF081EF93
:103BF8001EF020EE01F01550D9261650DA226F007B
:103C080078FF03F06F0078FF04F06F0078FF05F08D
:103C18006F0078FF06F0600057F0D9FF60005BF096
:103C2800DAFFDF50076E180E086E000E096E190EC7
:103C38000A6E000E0B6E1A0E0C6E000E0D6E1B0E29
:103C48000E6E000E0F6E14EC2BF0600063F0C3F7DD
:103C5800600067F0C4F760006BF0C1F760006FF0B8
:103C6800C2F720EE05F01550D9261650DA22DF509B
:103C78003701C56F20EE06F01550D9261650DA2206
:103C8800DF50C66F20EE07F01550D9261650DA22FD
:103C9800DF50C76F20EE08F01550D9261650DA22EB
:103CA800DF50C86F20EE09F01550D9261650DA22D9
:103CB800DF50C96F20EE0AF01550D9261650DA22C7
:103CC800DF50CA6F20EE0BF01550D9261650DA22B5
:103CD800DF50CB6F20EE0CF01550D9261650DA22A3
:103CE800DF50CC6F20EE0DF01550D9261650DA2291
:103CF800DF50CD6FC08767EF1DF017501200276E99
:103D080019501A10D8A48BEF1EF08DEF1EF093EF08
:103D18001EF0000E226E000E216E9EEF1EF0600057
:103D280067F0D9FF60006BF0DAFFDF501D6E1D50A1
:103D3800216E226A21C023F01B50100DF35023245A
:103D4800246E000E046E010EBAEC46F07F0E046E6F
:103D5800040EBAEC46F0800E046E0A0EBAEC46F079
:103D680014C004F012C005F013C006F0090E90EC60
:103D780043F024C004F00D0EBAEC46F027C004F05E
:103D8800010EBAEC46F00C0E2718D8A4CEEF1EF0A0
:103D9800D0EF1EF0D5EF1EF0800E066E0D0E63EC10
:103DA80047F0070E2C6ED00E2B6E040E87EC46F0F3
:103DB800286E640E2818D8A4E4EF1EF0E6EF1EF073
:103DC800E8EF1EF0FEEF1EF028A0EDEF1EF0EFEF7B
:103DD8001EF0F2EF1EF0030E23EF20F02B06D8A002
:103DE8002C062B502C10D8A4FCEF1EF0FEEF1EF072
:103DF800D9EF1EF02B502C10D8A405EF1FF007EFB9
:103E08001FF009EF1FF0EFEF1EF0060E87EC46F0EB
:103E1800296E29C01DF0130E1D16D8B416EF1FF019
:103E280018EF1FF01BEF1FF0010E23EF20F0000E1C
:103E38002E6E15501610D8B424EF1FF026EF1FF081
:103E480070EF1FF017501810D8B42DEF1FF02FEF98
:103E58001FF070EF1FF00A0E87EC46F02D6E600021
:103E68005FF0D9FF600063F0DAFF2D50DE5CD8B058
:103E780040EF1FF042EF1FF045EF1FF0040E23EF55
:103E880020F060005FF0D9FF600063F0DAFF6000A7
:103E9800B7F0DFFF2DC004F015C005F016C006F01E
:103EA8001BC007F0090E52EC34F00C0E87EC46F0FC
:103EB800070B2E6E19501A10D8B465EF1FF067EF74
:103EC8001FF070EF1FF0600067F0D9FF60006BF023
:103ED800DAFF6000BBF0DFFF29A675EF1FF077EF70
:103EE8001FF07AEF1FF0020E23EF20F01550161086
:103EF800D8B481EF1FF083EF1FF022EF20F01750A6
:103F08001810D8B48AEF1FF08CEF1FF022EF20F0C2
:103F18001C50D8B492EF1FF094EF1FF022EF20F05E
:103F280060005FF0D9FF600063F0DAFFDE04D8A418
:103F3800A0EF1FF0A2EF1FF0AEEF1FF0040E2E1837
:103F4800D8A4A9EF1FF0ABEF1FF0AEEF1FF0FF0EE4
:103F580023EF20F060005FF0D9FF600063F0DAFF24
:103F6800010EDF64BAEF1FF0BCEF1FF0C4EF1FF0C3
:103F78002E50D8B4C2EF1FF0C4EF1FF0C7EF1FF0E8
:103F8800070E23EF20F015C009F016C00AF06000F4
:103F98005FF0D9FF600063F0DAFFDF50FE0F0B6EB1
:103FA800250E0C6E000E0D6E9AEC39F02A6E2A5012
:103FB800D8B4E1EF1FF0E3EF1FF0E6EF1FF02A504F
:103FC80023EF20F060005FF0D9FF600063F0DAFFB4
:103FD800DF501D6E1D5015241E6E000E16201F6E1C
:103FE800FE0E1E24D96EFF0E1F20DA6E2550DE1835
:103FF800D8A401EF20F003EF20F0C4EF1FF0600019
:104008005FF0D9FF600063F0DAFFDF501D6E1D50CE
:1040180015241E6E000E16201F6EFF0E1E24D96E6C
:10402800FF0E1F20DA6E2650DE18D8B41EEF20F0DF
:1040380020EF20F022EF20F0C4EF1FF0000E120056
:104048000001E705D8B42BEF20F02DEF20F080EF2A
:1040580020F0FC0E036E000E046E400E056E04EC9C
:1040680048F0FB0E036E000E046E400E056E04EC65
:1040780048F00001EE05D8A444EF20F046EF20F008
:1040880080EF20F0ED05D8A44CEF20F04EEF20F0A3
:1040980080EF20F0140E01017D6F000E7E6F000E80
:1040A8007F6F000E806F020E0001E719D8A45FEF42
:1040B80020F061EF20F06AEF20F0A4EC40F0160E3B
:1040C80000016D6FFC0E6E6F05EC46F0030E0001EB
:1040D800E719D8A472EF20F074EF20F07DEF20F0FC
:1040E8007AEC42F0310E00016D6FFC0E6E6F05EC3C
:1040F80046F0010E0001E76FD005D8B486EF20F036
:1041080088EF20F091EF20F0040ED019D8A48FEF9B
:1041180020F091EF20F0AEEF20F0CE05D8A497EF75
:1041280020F099EF20F0AEEF20F001019E5107E159
:104138000A0E9D5DD8B0A3EF20F0A5EF20F0AEEFFA
:1041480020F0030E0001E76F6A0E6D6FF40E6E6FBC
:1041580005EC46F0040E0001D019D8A4B6EF20F003
:10416800B8EF20F0F6EF20F0020ECE19D8A4BFEF7A
:1041780020F0C1EF20F0F6EF20F0050E0101BB6141
:10418800C8EF20F0CAEF20F0F6EF20F0BB51D8A41A
:10419800D0EF20F0D2EF20F0DEEF20F0BB2B010EA5
:1041A800A06F2C0E9F6F960E00016D6FF20E6E6F52
:1041B80005EC46F001019F51A011D8A4E6EF20F0CC
:1041C800E8EF20F0F6EF20F0010EA06F2C0E9F6FA5
:1041D800BB2B030E0001E76F310E6D6FF50E6E6F8E
:1041E80005EC46F00001D005D8B4FDEF20F0FFEF54
:1041F80020F09DEF21F0040ED019D8B406EF21F07D
:1042080008EF21F09DEF21F0000E806F020ED0190B
:10421800D8A411EF21F013EF21F01DEF21F0CF0505
:10422800D8A419EF21F01BEF21F01DEF21F0010EAA
:10423800806F030ED019D8A424EF21F026EF21F0C7
:1042480031EF21F0020ECF19D8A42DEF21F02FEF76
:1042580021F031EF21F0010E806F01017D517E11B7
:104268007F118011D8B43BEF21F03DEF21F046EFEC
:1042780021F000018005D8A444EF21F046EF21F099
:104288009DEF21F02EEC45F000018005D8A44FEFFA
:1042980021F051EF21F054EF21F0000E0101BB6F26
:1042A800FC0E036E000E046E400E056E6FEC47F0B8
:1042B800FB0E036E000E046E400E056E6FEC47F0A9
:1042C80001017D517E117F118011D8A46EEF21F07C
:1042D80070EF21F07BEF21F0040E0001D06F4C0E3F
:1042E8006D6FFC0E6E6F05EC46F09DEF21F000013E
:1042F800CF05D8A482EF21F084EF21F08CEF21F0D4
:10430800980E6D6FFA0E6E6F05EC46F09DEF21F07A
:10431800020ECF19D8A493EF21F095EF21F09DEF6D
:1043280021F0B70E6D6FFA0E6E6F05EC46F09DEF3B
:1043380021F012000001EE05D8A4A5EF21F0A7EFA7
:1043480021F0B5EF21F0D80E826F010E836FA8EC33
:104358002CF00009D8A4B3EF21F0B5EF21F0B8EFA5
:1043680021F0000EFFEF22F064C18AF0D9C18BF072
:1043780000018B518A19D8A4C4EF21F0C7EF21F0AE
:10438800010EC8EF21F0000EC16F63C18AF0D8C1D9
:104398008BF08B518A19D8A4D4EF21F0D7EF21F0F4
:1043A800010ED8EF21F0000EC06F000E8C6F000ECA
:1043B800866F000E8D6F000E876F4E0E0101E0258F
:1043C800156EF80EE121166E3FEC44F015C08EF024
:1043D80016C08FF04E0E0101DE25156EF80EDF2196
:1043E800166E3FEC44F015C090F016C091F0000135
:1043F8008FBF0AEF22F08F5107E1650E8E5DD8B0AE
:1044080008EF22F00AEF22F018EF22F091BF16EF22
:1044180022F0915109E1650E905DD8A016EF22F0C7
:1044280018EF22F030EF22F06BC103F06CC104F0FA
:10443800E0C105F0E1C106F0F5EC42F000018C6F37
:1044480069C103F06AC104F0DEC105F0DFC106F0FE
:10445800F5EC42F00001866F86518C19D8A437EF2D
:1044680022F039EF22F03DEF22F0030ED16F4DEF2D
:1044780022F08C05D8B443EF22F045EF22F049EF43
:1044880022F0010E886F4BEF22F0020E886F88C071
:10449800D1F04E0E0101DC25156EF80EDD21166EE9
:1044A8003FEC44F015C08EF016C08FF04E0E01019F
:1044B800DA25156EF80EDB21166E3FEC44F015C0B8
:1044C80090F016C091F000018FBF76EF22F08F5167
:1044D80007E1650E8E5DD8B074EF22F076EF22F01A
:1044E80084EF22F091BF82EF22F0915109E1650E2D
:1044F800905DD8A082EF22F084EF22F09CEF22F0AA
:1045080065C103F066C104F0DAC105F0DBC106F04D
:10451800F5EC42F00001876F67C103F068C104F051
:10452800DCC105F0DDC106F0F5EC42F000018D6F4D
:1045380087518D19D8A4A3EF22F0A5EF22F0A9EF97
:1045480022F0030ED26FB9EF22F08D05D8B4AFEF89
:1045580022F0B1EF22F0B5EF22F0010E896FB7EF2C
:1045680022F0020E896F89C0D2F0020ED119D8A4A8
:10457800C0EF22F0C2EF22F0CFEF22F0020ED219E4
:10458800D8A4C9EF22F0CBEF22F0CFEF22F0010E32
:10459800CF6FE5EF22F0D105D8A4D5EF22F0D7EF01
:1045A80022F0E3EF22F0D205D8A4DDEF22F0DFEF0E
:1045B80022F0E3EF22F0020ECF6FE5EF22F0030EB8
:1045C800CF6FFCBDEAEF22F0ECEF22F0FEEF22F015
:1045D80001019B519C11D8A4F4EF22F0F6EF22F0D0
:1045E800FEEF22F0FC0E036E000E046E010E056E47
:1045F8006FEC47F0010E12000001D005D8B407EFA8
:1046080023F009EF23F014EF23F0040ED019D8B4E7
:1046180010EF23F012EF23F014EF23F0000EEB6FEE
:1046280001019B519C11D8B41CEF23F01EEF23F01D
:1046380021EF23F0000E0001EB6F0001EB51D8A42D
:1046480028EF23F02AEF23F038EF23F0FC0E036E57
:10465800000E046E010E056E04EC48F09EEC21F08D
:104668000001EB6FEBC0E8F0EA51D8A43EEF23F06D
:1046780040EF23F04EEF23F0FC0E036E000E046EA5
:10468800040E056E04EC48F04FEC19F00001EA6FD7
:10469800EAC0E9F0E805D8A454EF23F056EF23F078
:1046A80061EF23F0E905D8A45CEF23F05EEF23F077
:1046B80061EF23F0010E0101C56F0001E851D8A494
:1046C80068EF23F06AEF23F077EF23F0EB05D8A427
:1046D80070EF23F072EF23F077EF23F0000E010163
:1046E800966F000E956F0001E951D8A47EEF23F074
:1046F80080EF23F08DEF23F0EA05D8A486EF23F0AE
:1047080088EF23F08DEF23F0000E0101986F000E63
:10471800976F010195519611D8B495EF23F097EF53
:1047280023F0A2EF23F097519811D8B49EEF23F00D
:10473800A0EF23F0A2EF23F05EEF24F0000E0001BB
:10474800976F000E966F000E996F000E986FEC052C
:10475800D8B4B1EF23F0B3EF23F0B7EF23F03FC1A4
:1047680095F0B9EF23F0050E956F95C040F10DEF68
:1047780024F0000E976F640E966F010E996F2C0E41
:10478800986F140E6D6FFB0E6E6F05EC46F030EFF0
:1047980024F0000E976F140E966F000E996F140E8A
:1047A800986F2B0E6D6FF80E6E6F05EC46F030EFBC
:1047B80024F0000E976F140E966F000E996F140E6A
:1047C800986F140E6D6FF60E6E6F05EC46F030EFB5
:1047D80024F0000E976F0A0E966F000E996F640E04
:1047E800986FF80E6D6FF90E6E6F05EC46F030EFAE
:1047F80024F0000E976F0A0E966F000E996F0A0E3E
:10480800986F570E6D6FF90E6E6F05EC46F030EF2E
:1048180024F0010140510001936F946B9451000AF8
:10482800D8B419EF24F030EF24F09351010AD8B42A
:10483800BDEF23F0030AD8B4DDEF23F0010AD8B4A2
:10484800EDEF23F0070AD8B4CDEF23F0010AD8B46E
:10485800FDEF23F030EF24F0010195519611D8A413
:1048680038EF24F03AEF24F047EF24F096C095F1A2
:1048780097C096F1000E0001EB6FC20E6D6FFF0E30
:104888006E6F05EC46F0010197519811D8A44FEFCF
:1048980024F051EF24F05EEF24F098C097F199C00E
:1048A80098F1000E0001EA6FB20E6D6FFF0E6E6F89
:1048B80005EC46F01200000E186E80AE66EF24F08C
:1048C80068EF24F00DEF25F082A66DEF24F06FEF6E
:1048D80024F097EF24F060005BF0D9FF60005FF0F0
:1048E800DAFF020EDF6E6F0010FE03F06F0004FEA9
:1048F80004F06F0008FE05F08350A6EC31F020EEBE
:1049080001F01650D9261750DA2260000FF0DEFFAA
:10491800600013F0DEFF600017F0DEFF60001BF0A0
:10492800DEFFB7EF24F060005BF0D9FF60005FF0B6
:10493800DAFF010EDF6E6F0008FE03F081503FECD6
:104948003EF020EE01F01650D9261750DA2260000A
:104958000FF0DEFF600013F0DEFF600017F0DEFFEF
:1049680060001BF0DEFF20EE05F01650D926175028
:10497800DA226F0017FEDFFF20EE06F01650D92668
:104988001750DA226F001BFEDFFF20EE07F01650EB
:10499800D9261750DA226F001FFEDFFF20EE08F03D
:1049A8001650D9261750DA226F0023FEDFFF20EEBB
:1049B80009F01650D9261750DA226F0027FEDFFFBC
:1049C80020EE0AF01650D9261750DA226F002BFE77
:1049D800DFFF20EE0BF01650D9261750DA226F00B1
:1049E8002FFEDFFF20EE0CF01650D9261750DA22E2
:1049F8006F0033FEDFFF20EE0DF01650D92617505A
:104A0800DA226F0037FEDFFF809E010E186EB9EFC5
:104A180025F03701F0AF13EF25F015EF25F0B9EFCA
:104A280025F0F2A71AEF25F01CEF25F044EF25F04A
:104A380060005BF0D9FF60005FF0DAFF020EDF6E06
:104A48006D00D0FF03F06D00C4FF04F06D00C8FFD7
:104A580005F0F351A6EC31F020EE01F01650D926FE
:104A68001750DA2260000FF0DEFF600013F0DEFF5F
:104A7800600017F0DEFF60001BF0DEFF64EF25F03A
:104A880060005BF0D9FF60005FF0DAFF010EDF6EB7
:104A98006D00C8FF03F0F1513FEC3EF020EE01F04D
:104AA8001650D9261750DA2260000FF0DEFF60009A
:104AB80013F0DEFF600017F0DEFF60001BF0DEFF82
:104AC80020EE05F01650D9261750DA226D00D7FFD0
:104AD800DFFF20EE06F01650D9261750DA226D00B7
:104AE800DBFFDFFF20EE07F01650D9261750DA2239
:104AF8006D00DFFFDFFF20EE08F01650D9261750B3
:104B0800DA226D00E3FFDFFF20EE09F01650D92608
:104B18001750DA226D00E7FFDFFF20EE0AF016508B
:104B2800D9261750DA226D00EBFFDFFF20EE0BF0DD
:104B38001650D9261750DA226D00EFFFDFFF20EE5E
:104B48000CF01650D9261750DA226D00F3FFDFFF5C
:104B580020EE0DF01650D9261750DA226D00F7FF17
:104B6800DFFF3701F09F09EF25F018501200000110
:104B7800F305D8A4C2EF25F0C4EF25F0D2EF26F054
:104B8800F051D8A4CAEF25F0CCEF25F0F3EF26F0CA
:104B980042C103F043C104F0B4EC44F0010E00013B
:104BA800F06FE60E6D6FF70E6E6F05EC46F0F3EFE3
:104BB80026F05D04D8B4E3EF25F0E5EF25F0F5EF36
:104BC80025F05C04D8B4EBEF25F0EDEF25F0F5EF18
:104BD80025F0F005D8A4F3EF25F0F5EF25F0F3EF75
:104BE80026F0000E5D6E000E5C6E000E046E000E68
:104BF800036EB4EC44F0000E0001F06FF70E0001F4
:104C08007B6F000E7C6F010E7D6F8BEC3CF0000E0D
:104C18000001EF6FF3EF26F0E305D8A416EF26F0B6
:104C280018EF26F047EF26F00101A551A611D8A4E8
:104C380020EF26F022EF26F05BEF26F05D50D8B487
:104C480028EF26F02BEF26F0010E2CEF26F0000EB1
:104C58005D6E5D04D8B433EF26F035EF26F03BEFF8
:104C680026F048C1A5F149C1A6F13FEF26F046C19B
:104C7800A5F147C1A6F15D04D8A445EF26F047EF9A
:104C880026F052EF26F042C103F043C104F0B4EC21
:104C980044F0010E0001F06F5BEF26F0000E046E89
:104CA800000E036EB4EC44F0000E0001F06F010139
:104CB800A351A411D8A463EF26F065EF26F0F3EF13
:104CC80026F05C50D8B46BEF26F06EEF26F0010E9C
:104CD8006FEF26F0000E5C6E5C04D8B476EF26F019
:104CE80078EF26F07EEF26F04CC1A3F14DC1A4F178
:104CF80082EF26F04AC1A3F14BC1A4F15C04D8A409
:104D080088EF26F08AEF26F002EF26F0F70E000172
:104D18007B6F000E7C6F010E7D6FCBEC3CF0010EBB
:104D28000001EF6FF3EF26F00101A551A611D8A4F9
:104D3800A0EF26F0A2EF26F0F3EF26F05D50D8B4EE
:104D4800A8EF26F0ABEF26F0010EACEF26F0000E30
:104D58005D6E5D04D8B4B3EF26F0B5EF26F0BBEF77
:104D680026F050C1A5F151C1A6F1BFEF26F04EC102
:104D7800A5F14FC1A6F15D04D8A4C5EF26F0C7EF91
:104D880026F0F9EF25F042C103F043C104F0B4EC7A
:104D980044F0010E0001F06F8AEF26F0E251806FB7
:104DA800816B8151000AD8B4DCEF26F0F3EF26F0CE
:104DB8008051010AD8B410EF26F0030AD8B4DDEF09
:104DC80025F0010AD8B498EF26F0070AD8B4DDEF29
:104DD80025F0010AD8B4DDEF25F0F3EF26F0120034
:104DE800FEEF27F0030ED16F030ED26F030ECF6FC5
:104DF8000101B02BA10E00016D6FFD0E6E6F05EC69
:104E080046F029EF28F01D0E6D6FFE0E6E6F05EC53
:104E180046F0140E01017D6F000E7E6F000E7F6F4D
:104E2800000E806FA4EC40F00101B02B29EF28F0B0
:104E3800040ED019D8A423EF27F025EF27F029EF87
:104E480028F0820E0001866FDD0EE82EFED7862F31
:104E5800FCD700D0D80E0001826F010E836FA8EC3A
:104E68002CF00009D8B43BEF27F03DEF27F02EEFE8
:104E780027F0D8C163F1D9C164F1E0C16BF1E1C198
:104E88006CF1DCC167F1DDC168F118EF27F0350E70
:104E98006D6FFE0E6E6F05EC46F0140E01017D6F0E
:104EA800000E7E6F000E7F6F000E806F7AEC42F06E
:104EB80018EF27F0040ED019D8A465EF27F067EF94
:104EC80027F029EF28F0820E0001866FDD0EE82E0C
:104ED800FED7862FFCD700D0D80E0001826F010EB6
:104EE800836FA8EC2CF00009D8B47DEF27F07FEF92
:104EF80027F070EF27F0DEC169F1DFC16AF1DAC18E
:104F080065F1DBC166F17E0E00016D6FF50E6E6F07
:104F180063C16FF0706B64C171F0726B05EC46F0A1
:104F2800D10E00016D6FF10E6E6F6BC16FF06CC129
:104F380070F067C171F068C172F069C173F06AC13D
:104F480074F065C175F066C176F005EC46F018EFAF
:104F580027F0A60E6D6FFB0E6E6F05EC46F0000E87
:104F6800046E020E036E63C105F06BEC43F0000E95
:104F7800046E010E036E64C105F06BEC43F0000E85
:104F8800086E050E076E6BC109F06CC10AF02DECB6
:104F980046F0000E086E090E076E67C109F068C179
:104FA8000AF02DEC46F0000E086E030E076E69C17C
:104FB80009F06AC10AF02DEC46F0000E086E070EE3
:104FC800076E65C109F066C10AF02DEC46F018EFCE
:104FD80027F06F0E6D6FFD0E6E6F05EC46F0000E3C
:104FE8000101B06F010E2AEF28F0000E0101B06F29
:104FF80029EF28F00101B0510001866F876B8751B6
:10500800000AD8B40AEF28F0F9EF27F08651000A11
:10501800D8B4F6EF26F0010AD8B407EF27F0030A50
:10502800D8B41CEF27F0010AD8B44BEF27F0070AD1
:10503800D8B45EEF27F0010AD8B4ADEF27F0030A21
:10504800D8B4EDEF27F0F9EF27F0000E120029BED3
:1050580030EF28F033EF28F0010E34EF28F0000E7F
:10506800386E3850D8B43BEF28F03DEF28F04DEFBC
:1050780028F0291E281E271E261E251E241E231E34
:10508800226C000E232224222522262227222822CF
:10509800292259BE54EF28F052EF28F05AEF28F091
:1050A800000E356E010E346E5EEF28F058C034F0F5
:1050B80059C035F081C136F082C137F03850D8B4C4
:1050C80068EF28F06AEF28F081EF28F03606D8A0BC
:1050D80037063850D8A473EF28F075EF28F07BEF27
:1050E80028F0000E336E2B0E326E7FEF28F0000E84
:1050F800336E2D0E326E32C038F0000E3A6E1F0E2F
:10510800396E000E0201486F06EF29F03906D8A063
:105118003A06290E3924D96E020E3A20DA6E22C0D8
:1051280003F023C004F024C005F025C006F026C013
:1051380007F027C008F028C009F029C00AF00A0EB5
:105148000B6E000E0C6E000E0D6E000E0E6E000E35
:105158000F6E000E106E000E116E000E126EA6EC91
:105168002FF003C02AF004C02BF005C02CF006C0B5
:105178002DF007C02EF008C02FF009C030F00AC08B
:1051880031F02AC015F02BC016F03FEC44F0155052
:10519800300FDF6E3406D8A035063606D8A037069D
:1051A80022C003F023C004F024C005F025C006F097
:1051B80026C007F027C008F028C009F029C00AF067
:1051C8000A0E0B6E000E0C6E000E0D6E000E0E6EAB
:1051D800000E0F6E000E106E000E116E000E126E95
:1051E8006FEC2DF003C022F004C023F005C024F0BA
:1051F80006C025F007C026F008C027F009C028F02F
:105208000AC029F03ABE11EF29F03A5008E13904F2
:10521800D8A011EF29F013EF29F02FEF29F0225031
:105228002310241025102610271028102910D8A480
:1052380020EF29F022EF29F08AEF28F035BE2FEF72
:1052480029F0355006E13404D8B02DEF29F02FEFBE
:1052580029F08AEF28F03850D8B435EF29F037EF25
:1052680029F043EF29F03906D8A03A06290E392447
:10527800D96E020E3A20DA6E6000E3F0DFFF20C03C
:1052880015F021C016F0290E3924176E020E3A20A7
:10529800186E36C019F037C01AF0C5EC3DF0120090
:1052A8005A0E00016D6FF70E6E6F05EC46F0000E9A
:1052B800046E000E036EDAEC46F0AA0AD8B467EF63
:1052C80029F06AEF29F0010E6BEF29F0000E0101B9
:1052D800C86FC805D8B473EF29F075EF29F07CEFD3
:1052E80029F0F20E00017B6FFF0E7C6F81EF29F031
:1052F800FB0E00017B6FFF0E7C6F2F0E6D6FFF0E94
:105308006E6F7BC06FF07CC070F005EC46F0000E4D
:10531800046E0B0E036EDAEC46F00001DB6F000E34
:10532800046E110E036EDAEC46F00001DC6F000E1D
:10533800046E100E036EDAEC46F00001DD6F000E0D
:105348000D6E0C0E0C6E6BEC41F00CC0DEF00DC057
:10535800DFF00EC0E0F00FC0E1F0040E00016D6F49
:10536800F20E6E6FDBC06FF0706BDDC071F0726BA8
:10537800DCC073F0746BDEC075F0DFC076F0E0C09F
:1053880077F0E1C078F005EC46F0000E046E020EEE
:10539800036EDAEC46F00009D8A4D5EF29F0D8EF6F
:1053A80029F0010ED9EF29F0000E0101636F000EFC
:1053B800046E010E036EDAEC46F00009D8A4E7EF9C
:1053C80029F0EAEF29F0010EEBEF29F0000E0101B8
:1053D800646F000E066E050E056ECEEC44F005C037
:1053E8006BF106C06CF1000E066E090E056ECEEC70
:1053F80044F005C067F106C068F1000E066E030EA2
:10540800056ECEEC44F005C069F106C06AF1000EE5
:10541800066E070E056ECEEC44F005C065F106C0B9
:1054280066F1BA0E00016D6FF40E6E6F63C16FF016
:10543800706B64C171F0726B05EC46F0680E000188
:105448006D6FF10E6E6F6BC16FF06CC170F067C15C
:1054580071F068C172F069C173F06AC174F065C116
:1054680075F066C176F005EC46F012000B6E0B5035
:10547800D8B441EF2AF043EF2AF065EF2AF006BED0
:105488004AEF2AF048EF2AF065EF2AF003C007F048
:1054980004C008F005C009F006C00AF0071E081E7F
:1054A800091E0A1E072A000E082209220A2207C01E
:1054B8000DF008C00EF009C00FF00AC010F06DEF33
:1054C8002AF003C00DF004C00EF005C00FF006C0AE
:1054D80010F00350041005100610D8A476EF2AF037
:1054E80078EF2AF082EF2AF0000E036E000E046EA9
:1054F800000E056E000E066E13EF2BF0960E0C6E66
:105508008CEF2AF00C2AD89010320F320E320D325E
:10551800000E0D14076E000E0E14086E000E0F1408
:10552800096EFE0E10140A6E0750081009100A10B2
:10553800D8A4A1EF2AF0A3EF2AF086EF2AF0B1EF62
:105548002AF00C2A010E0D26000E0E220F22102220
:10555800D89010320F320E320D32000E0D14076E35
:10556800000E0E14086E000E0F14096EFF0E1014B4
:105578000A6E0750081009100A10D8A4C6EF2AF0BE
:10558800C8EF2AF0A5EF2AF0D0EF2AF00C06D89041
:105598000D360E360F3610360FBED5EF2AF0D7EF80
:1055A8002AF0DFEF2AF0020E0C60DDEF2AF0DFEFC1
:1055B8002AF0CAEF2AF00CB0E4EF2AF0E6EF2AF05E
:1055C800E7EF2AF00F9ED8900C320CC007F0086A5B
:1055D800096A0A6A07C00AF0096A086A076A07506E
:1055E8000D1208500E1209500F120A5010120B50CB
:1055F800D8B401EF2BF003EF2BF00BEF2BF006BE26
:105608000AEF2BF008EF2BF00BEF2BF0108E0DC0EC
:1056180003F00EC004F00FC005F010C006F0120031
:10562800020E0718D8A41BEF2BF01DEF2BF0ABEFE1
:105638002BF060002BF0D9FF60002FF0DAFF60003C
:105648000FF0DFFF03C010F004C011F005C012F026
:1056580006C013F011C010F012C011F013C012F000
:10566800136A10C003F011C004F012C005F013C093
:1056780006F0600023F0D9FF600027F0DAFF600031
:105688000FF0DFFF03C010F004C011F005C012F0E6
:1056980006C013F011C010F012C011F013C012F0C0
:1056A800136A10C003F011C004F012C005F013C053
:1056B80006F00350030B146E03C010F004C011F081
:1056C80005C012F006C013F0030ED890103611363C
:1056D80012361336E82E69EF2BF010C003F011C014
:1056E80004F012C005F013C006F00350E00B1424B8
:1056F800146E1450080F146E1450EB0B60003BF03E
:10570800D9FF60003FF0DAFFDF6E03C010F004C07D
:1057180011F005C012F006C013F011C010F012C04D
:1057280011F013C012F0136A10C003F011C004F096
:1057380012C005F013C006F0600033F0D9FF600016
:1057480037F0DAFF60000FF0DFFFDDEF2BF06000CD
:1057580023F0D9FF600027F0DAFFDF6A60002BF042
:10576800D9FF60002FF0DAFFDF6A03C010F004C031
:1057780011F005C012F006C013F0050ED8901036CF
:10578800113612361336E82EC2EF2BF010C003F094
:1057980011C004F012C005F013C006F060003BF021
:1057A800D9FF60003FF0DAFF60000FF0DFFF89EFFC
:1057B8002BF0120059BEE5EF2BF0E3EF2BF0EBEFE7
:1057C8002BF0000E356E010E346EEFEF2BF058C043
:1057D80034F059C035F081C132F082C133F0000E87
:1057E800376E1F0E366E000E0201486F72EF2CF0F6
:1057F8003606D8A03706290E3624D96E020E372071
:10580800DA6E22C003F023C004F024C005F025C0DE
:1058180006F026C007F027C008F028C009F029C004
:105828000AF00A0E0B6E000E0C6E000E0D6E000EC6
:105838000E6E000E0F6E000E106E000E116E000E32
:10584800126E52EC37F003C02AF004C02BF005C0EA
:105858002CF006C02DF007C02EF008C02FF009C0AC
:1058680030F00AC031F02A50300FDF6E3406D8A06D
:1058780035063206D8A0330622C003F023C004F050
:1058880024C005F025C006F026C007F027C008F0A0
:1058980028C009F029C00AF00A0E0B6E000E0C6E23
:1058A800000E0D6E000E0E6E000E0F6E000E106EC6
:1058B800000E116E000E126EDAEC33F003C022F007
:1058C80004C023F005C024F006C025F007C026F068
:1058D80008C027F009C028F00AC029F03650371050
:1058E800D8B479EF2CF07BEF2CF097EF2CF0225006
:1058F8002310241025102610271028102910D8A4AA
:1059080088EF2CF08AEF2CF0FCEF2BF035BE97EFE8
:105918002CF0355006E13404D8B095EF2CF097EF11
:105928002CF0FCEF2BF020C015F021C016F0290E4A
:105938003624176E020E3720186E32C019F033C0A5
:105948001AF0C5EC3DF01200F70E00017B6F000E57
:105958007C6F060E7D6FF1EC3EF0576E000120EE75
:1059680001F08251D9268351DA2260005FF1DFFF0E
:10597800F70E7B6F000E7C6F070E7D6FF1EC3EF02B
:1059880060000BF2D9FF60000FF2DAFFDF6E010E44
:10599800E7EC44F003500101752704507623000E0C
:1059A800E7EC44F003500101772704507823030EF5
:1059B800E7EC44F003500101792704507A23020EE2
:1059C800E7EC44F0035001017B2704507C23B62BFD
:1059D800050EB661F2EF2CF0F4EF2CF0F7EF2CF097
:1059E800000E6EEF2DF0000EB66F000E0001856FF1
:1059F8008551020D750EF324D96E010EF420DA6E6E
:105A08006F0078FF03F06F0074FF04F0000E066E5D
:105A1800050E056EB7EC3EF000018551020D750EBE
:105A2800F324D96E010EF420DA6E60000FF0DEFF69
:105A3800600013F0DDFF852B030E856526EF2DF042
:105A480028EF2DF0FCEF2CF020EE02F08251D92641
:105A58008351DA226000D7F5DEFF6000DBF5DDFF59
:105A680020EE04F08251D9268351DA226000DFF556
:105A7800DEFF6000E3F5DDFF20EE06F08251D92657
:105A88008351DA226000E7F5DEFF6000EBF5DDFF09
:105A980020EE08F08251D9268351DA226000EFF512
:105AA800DEFF6000F3F5DDFF000E846F8451020D08
:105AB800750EF324D96E010EF420DA6EDE6ADD6A03
:105AC800842B030E84656BEF2DF06DEF2DF05AEFEC
:105AD8002DF0010E1200000E146E12BE78EF2DF09C
